{
    "contractName": "MilkDelivery",
    "abi": [
        {
            "inputs": [],
            "stateMutability": "nonpayable",
            "type": "constructor"
        },
        {
            "anonymous": false,
            "inputs": [
                {
                    "indexed": true,
                    "internalType": "address",
                    "name": "vendor",
                    "type": "address"
                },
                {
                    "indexed": true,
                    "internalType": "address",
                    "name": "caller",
                    "type": "address"
                },
                {
                    "indexed": false,
                    "internalType": "uint256",
                    "name": "date",
                    "type": "uint256"
                }
            ],
            "name": "MilkVendorDelisted",
            "type": "event"
        },
        {
            "anonymous": false,
            "inputs": [
                {
                    "indexed": true,
                    "internalType": "address",
                    "name": "vendor",
                    "type": "address"
                },
                {
                    "indexed": true,
                    "internalType": "address",
                    "name": "caller",
                    "type": "address"
                },
                {
                    "indexed": false,
                    "internalType": "uint256",
                    "name": "date",
                    "type": "uint256"
                }
            ],
            "name": "MilkVendorDisapproved",
            "type": "event"
        },
        {
            "anonymous": false,
            "inputs": [
                {
                    "indexed": true,
                    "internalType": "address",
                    "name": "vendor",
                    "type": "address"
                },
                {
                    "indexed": true,
                    "internalType": "uint256",
                    "name": "quantity",
                    "type": "uint256"
                },
                {
                    "indexed": true,
                    "internalType": "enum MilkDelivery.MILK_QUALITY_TYPE",
                    "name": "quality",
                    "type": "uint8"
                },
                {
                    "indexed": false,
                    "internalType": "uint256",
                    "name": "date",
                    "type": "uint256"
                }
            ],
            "name": "NewMilkDeliveryRecorded",
            "type": "event"
        },
        {
            "anonymous": false,
            "inputs": [
                {
                    "indexed": true,
                    "internalType": "address",
                    "name": "vendor",
                    "type": "address"
                },
                {
                    "indexed": true,
                    "internalType": "address",
                    "name": "addedBy",
                    "type": "address"
                },
                {
                    "indexed": true,
                    "internalType": "uint256",
                    "name": "date",
                    "type": "uint256"
                }
            ],
            "name": "NewMilkVendorAdded",
            "type": "event"
        },
        {
            "anonymous": false,
            "inputs": [
                {
                    "indexed": true,
                    "internalType": "address",
                    "name": "previousOwner",
                    "type": "address"
                },
                {
                    "indexed": true,
                    "internalType": "address",
                    "name": "newOwner",
                    "type": "address"
                }
            ],
            "name": "OwnershipTransferred",
            "type": "event"
        },
        {
            "anonymous": false,
            "inputs": [
                {
                    "indexed": true,
                    "internalType": "bytes32",
                    "name": "role",
                    "type": "bytes32"
                },
                {
                    "indexed": true,
                    "internalType": "bytes32",
                    "name": "previousAdminRole",
                    "type": "bytes32"
                },
                {
                    "indexed": true,
                    "internalType": "bytes32",
                    "name": "newAdminRole",
                    "type": "bytes32"
                }
            ],
            "name": "RoleAdminChanged",
            "type": "event"
        },
        {
            "anonymous": false,
            "inputs": [
                {
                    "indexed": true,
                    "internalType": "bytes32",
                    "name": "role",
                    "type": "bytes32"
                },
                {
                    "indexed": true,
                    "internalType": "address",
                    "name": "account",
                    "type": "address"
                },
                {
                    "indexed": true,
                    "internalType": "address",
                    "name": "sender",
                    "type": "address"
                }
            ],
            "name": "RoleGranted",
            "type": "event"
        },
        {
            "anonymous": false,
            "inputs": [
                {
                    "indexed": true,
                    "internalType": "bytes32",
                    "name": "role",
                    "type": "bytes32"
                },
                {
                    "indexed": true,
                    "internalType": "address",
                    "name": "account",
                    "type": "address"
                },
                {
                    "indexed": true,
                    "internalType": "address",
                    "name": "sender",
                    "type": "address"
                }
            ],
            "name": "RoleRevoked",
            "type": "event"
        },
        {
            "inputs": [],
            "name": "DEFAULT_ADMIN_ROLE",
            "outputs": [
                {
                    "internalType": "bytes32",
                    "name": "",
                    "type": "bytes32"
                }
            ],
            "stateMutability": "view",
            "type": "function"
        },
        {
            "inputs": [
                {
                    "internalType": "uint256",
                    "name": "",
                    "type": "uint256"
                }
            ],
            "name": "approvedVendors",
            "outputs": [
                {
                    "internalType": "address",
                    "name": "",
                    "type": "address"
                }
            ],
            "stateMutability": "view",
            "type": "function"
        },
        {
            "inputs": [
                {
                    "internalType": "uint256",
                    "name": "",
                    "type": "uint256"
                }
            ],
            "name": "deliveryItemById",
            "outputs": [
                {
                    "internalType": "address payable",
                    "name": "vendor",
                    "type": "address"
                },
                {
                    "internalType": "uint256",
                    "name": "id",
                    "type": "uint256"
                },
                {
                    "internalType": "uint256",
                    "name": "date",
                    "type": "uint256"
                },
                {
                    "internalType": "uint256",
                    "name": "quantity",
                    "type": "uint256"
                },
                {
                    "internalType": "enum MilkDelivery.MILK_QUALITY_TYPE",
                    "name": "milkQualityType",
                    "type": "uint8"
                }
            ],
            "stateMutability": "view",
            "type": "function"
        },
        {
            "inputs": [
                {
                    "internalType": "address",
                    "name": "",
                    "type": "address"
                }
            ],
            "name": "deliveryItemByVendor",
            "outputs": [
                {
                    "internalType": "address payable",
                    "name": "vendor",
                    "type": "address"
                },
                {
                    "internalType": "uint256",
                    "name": "id",
                    "type": "uint256"
                },
                {
                    "internalType": "uint256",
                    "name": "date",
                    "type": "uint256"
                },
                {
                    "internalType": "uint256",
                    "name": "quantity",
                    "type": "uint256"
                },
                {
                    "internalType": "enum MilkDelivery.MILK_QUALITY_TYPE",
                    "name": "milkQualityType",
                    "type": "uint8"
                }
            ],
            "stateMutability": "view",
            "type": "function"
        },
        {
            "inputs": [
                {
                    "internalType": "bytes32",
                    "name": "role",
                    "type": "bytes32"
                }
            ],
            "name": "getRoleAdmin",
            "outputs": [
                {
                    "internalType": "bytes32",
                    "name": "",
                    "type": "bytes32"
                }
            ],
            "stateMutability": "view",
            "type": "function"
        },
        {
            "inputs": [
                {
                    "internalType": "bytes32",
                    "name": "role",
                    "type": "bytes32"
                },
                {
                    "internalType": "address",
                    "name": "account",
                    "type": "address"
                }
            ],
            "name": "grantRole",
            "outputs": [],
            "stateMutability": "nonpayable",
            "type": "function"
        },
        {
            "inputs": [
                {
                    "internalType": "bytes32",
                    "name": "role",
                    "type": "bytes32"
                },
                {
                    "internalType": "address",
                    "name": "account",
                    "type": "address"
                }
            ],
            "name": "hasRole",
            "outputs": [
                {
                    "internalType": "bool",
                    "name": "",
                    "type": "bool"
                }
            ],
            "stateMutability": "view",
            "type": "function"
        },
        {
            "inputs": [
                {
                    "internalType": "address",
                    "name": "",
                    "type": "address"
                }
            ],
            "name": "isApprovedForMilkVending",
            "outputs": [
                {
                    "internalType": "bool",
                    "name": "",
                    "type": "bool"
                }
            ],
            "stateMutability": "view",
            "type": "function"
        },
        {
            "inputs": [
                {
                    "internalType": "address",
                    "name": "",
                    "type": "address"
                }
            ],
            "name": "isVendorListed",
            "outputs": [
                {
                    "internalType": "bool",
                    "name": "",
                    "type": "bool"
                }
            ],
            "stateMutability": "view",
            "type": "function"
        },
        {
            "inputs": [
                {
                    "internalType": "uint256",
                    "name": "",
                    "type": "uint256"
                }
            ],
            "name": "milkDeliveries",
            "outputs": [
                {
                    "internalType": "address payable",
                    "name": "vendor",
                    "type": "address"
                },
                {
                    "internalType": "uint256",
                    "name": "id",
                    "type": "uint256"
                },
                {
                    "internalType": "uint256",
                    "name": "date",
                    "type": "uint256"
                },
                {
                    "internalType": "uint256",
                    "name": "quantity",
                    "type": "uint256"
                },
                {
                    "internalType": "enum MilkDelivery.MILK_QUALITY_TYPE",
                    "name": "milkQualityType",
                    "type": "uint8"
                }
            ],
            "stateMutability": "view",
            "type": "function"
        },
        {
            "inputs": [],
            "name": "milkQualityType",
            "outputs": [
                {
                    "internalType": "enum MilkDelivery.MILK_QUALITY_TYPE",
                    "name": "",
                    "type": "uint8"
                }
            ],
            "stateMutability": "view",
            "type": "function"
        },
        {
            "inputs": [],
            "name": "owner",
            "outputs": [
                {
                    "internalType": "address",
                    "name": "",
                    "type": "address"
                }
            ],
            "stateMutability": "view",
            "type": "function"
        },
        {
            "inputs": [],
            "name": "renounceOwnership",
            "outputs": [],
            "stateMutability": "nonpayable",
            "type": "function"
        },
        {
            "inputs": [
                {
                    "internalType": "bytes32",
                    "name": "role",
                    "type": "bytes32"
                },
                {
                    "internalType": "address",
                    "name": "account",
                    "type": "address"
                }
            ],
            "name": "renounceRole",
            "outputs": [],
            "stateMutability": "nonpayable",
            "type": "function"
        },
        {
            "inputs": [
                {
                    "internalType": "bytes32",
                    "name": "role",
                    "type": "bytes32"
                },
                {
                    "internalType": "address",
                    "name": "account",
                    "type": "address"
                }
            ],
            "name": "revokeRole",
            "outputs": [],
            "stateMutability": "nonpayable",
            "type": "function"
        },
        {
            "inputs": [
                {
                    "internalType": "bytes4",
                    "name": "interfaceId",
                    "type": "bytes4"
                }
            ],
            "name": "supportsInterface",
            "outputs": [
                {
                    "internalType": "bool",
                    "name": "",
                    "type": "bool"
                }
            ],
            "stateMutability": "view",
            "type": "function"
        },
        {
            "inputs": [],
            "name": "totalApprovedVendors",
            "outputs": [
                {
                    "internalType": "uint256",
                    "name": "",
                    "type": "uint256"
                }
            ],
            "stateMutability": "view",
            "type": "function"
        },
        {
            "inputs": [],
            "name": "totalDeliveries",
            "outputs": [
                {
                    "internalType": "uint256",
                    "name": "",
                    "type": "uint256"
                }
            ],
            "stateMutability": "view",
            "type": "function"
        },
        {
            "inputs": [],
            "name": "totalQuantities",
            "outputs": [
                {
                    "internalType": "uint256",
                    "name": "",
                    "type": "uint256"
                }
            ],
            "stateMutability": "view",
            "type": "function"
        },
        {
            "inputs": [],
            "name": "totalVendors",
            "outputs": [
                {
                    "internalType": "uint256",
                    "name": "",
                    "type": "uint256"
                }
            ],
            "stateMutability": "view",
            "type": "function"
        },
        {
            "inputs": [
                {
                    "internalType": "address",
                    "name": "newOwner",
                    "type": "address"
                }
            ],
            "name": "transferOwnership",
            "outputs": [],
            "stateMutability": "nonpayable",
            "type": "function"
        },
        {
            "inputs": [
                {
                    "internalType": "uint256",
                    "name": "",
                    "type": "uint256"
                }
            ],
            "name": "vendorById",
            "outputs": [
                {
                    "internalType": "uint256",
                    "name": "id",
                    "type": "uint256"
                },
                {
                    "internalType": "string",
                    "name": "milkFactory",
                    "type": "string"
                },
                {
                    "internalType": "string",
                    "name": "name",
                    "type": "string"
                },
                {
                    "internalType": "string",
                    "name": "email",
                    "type": "string"
                },
                {
                    "internalType": "address payable",
                    "name": "vendorAddress",
                    "type": "address"
                },
                {
                    "internalType": "uint256",
                    "name": "createdAt",
                    "type": "uint256"
                },
                {
                    "internalType": "bool",
                    "name": "isApproved",
                    "type": "bool"
                },
                {
                    "internalType": "bool",
                    "name": "isListed",
                    "type": "bool"
                }
            ],
            "stateMutability": "view",
            "type": "function"
        },
        {
            "inputs": [
                {
                    "internalType": "address",
                    "name": "",
                    "type": "address"
                },
                {
                    "internalType": "uint256",
                    "name": "",
                    "type": "uint256"
                }
            ],
            "name": "vendorQuantityByDate",
            "outputs": [
                {
                    "internalType": "uint256",
                    "name": "",
                    "type": "uint256"
                }
            ],
            "stateMutability": "view",
            "type": "function"
        },
        {
            "inputs": [
                {
                    "internalType": "uint256",
                    "name": "",
                    "type": "uint256"
                }
            ],
            "name": "vendors",
            "outputs": [
                {
                    "internalType": "uint256",
                    "name": "id",
                    "type": "uint256"
                },
                {
                    "internalType": "string",
                    "name": "milkFactory",
                    "type": "string"
                },
                {
                    "internalType": "string",
                    "name": "name",
                    "type": "string"
                },
                {
                    "internalType": "string",
                    "name": "email",
                    "type": "string"
                },
                {
                    "internalType": "address payable",
                    "name": "vendorAddress",
                    "type": "address"
                },
                {
                    "internalType": "uint256",
                    "name": "createdAt",
                    "type": "uint256"
                },
                {
                    "internalType": "bool",
                    "name": "isApproved",
                    "type": "bool"
                },
                {
                    "internalType": "bool",
                    "name": "isListed",
                    "type": "bool"
                }
            ],
            "stateMutability": "view",
            "type": "function"
        },
        {
            "inputs": [
                {
                    "internalType": "address",
                    "name": "",
                    "type": "address"
                }
            ],
            "name": "vendorsByUser",
            "outputs": [
                {
                    "internalType": "uint256",
                    "name": "id",
                    "type": "uint256"
                },
                {
                    "internalType": "string",
                    "name": "milkFactory",
                    "type": "string"
                },
                {
                    "internalType": "string",
                    "name": "name",
                    "type": "string"
                },
                {
                    "internalType": "string",
                    "name": "email",
                    "type": "string"
                },
                {
                    "internalType": "address payable",
                    "name": "vendorAddress",
                    "type": "address"
                },
                {
                    "internalType": "uint256",
                    "name": "createdAt",
                    "type": "uint256"
                },
                {
                    "internalType": "bool",
                    "name": "isApproved",
                    "type": "bool"
                },
                {
                    "internalType": "bool",
                    "name": "isListed",
                    "type": "bool"
                }
            ],
            "stateMutability": "view",
            "type": "function"
        },
        {
            "inputs": [
                {
                    "internalType": "address",
                    "name": "_vendor",
                    "type": "address"
                }
            ],
            "name": "approveVendor",
            "outputs": [
                {
                    "internalType": "bool",
                    "name": "",
                    "type": "bool"
                }
            ],
            "stateMutability": "nonpayable",
            "type": "function"
        },
        {
            "inputs": [
                {
                    "internalType": "address",
                    "name": "_newVendor",
                    "type": "address"
                },
                {
                    "internalType": "string",
                    "name": "_milkFactory",
                    "type": "string"
                },
                {
                    "internalType": "string",
                    "name": "_name",
                    "type": "string"
                },
                {
                    "internalType": "string",
                    "name": "_email",
                    "type": "string"
                }
            ],
            "name": "listNewVendor",
            "outputs": [
                {
                    "internalType": "bool",
                    "name": "",
                    "type": "bool"
                }
            ],
            "stateMutability": "nonpayable",
            "type": "function"
        },
        {
            "inputs": [
                {
                    "internalType": "address",
                    "name": "_vendor",
                    "type": "address"
                },
                {
                    "internalType": "uint256",
                    "name": "_date",
                    "type": "uint256"
                }
            ],
            "name": "getVendorQuantityByDate",
            "outputs": [
                {
                    "internalType": "uint256",
                    "name": "",
                    "type": "uint256"
                }
            ],
            "stateMutability": "view",
            "type": "function"
        },
        {
            "inputs": [
                {
                    "internalType": "uint256",
                    "name": "_quantity",
                    "type": "uint256"
                },
                {
                    "internalType": "enum MilkDelivery.MILK_QUALITY_TYPE",
                    "name": "_qualityType",
                    "type": "uint8"
                }
            ],
            "name": "recordNewDelivery",
            "outputs": [
                {
                    "internalType": "bool",
                    "name": "",
                    "type": "bool"
                }
            ],
            "stateMutability": "nonpayable",
            "type": "function"
        },
        {
            "inputs": [
                {
                    "internalType": "address",
                    "name": "_vendor",
                    "type": "address"
                }
            ],
            "name": "delistVendor",
            "outputs": [
                {
                    "internalType": "bool",
                    "name": "",
                    "type": "bool"
                }
            ],
            "stateMutability": "nonpayable",
            "type": "function"
        },
        {
            "inputs": [
                {
                    "internalType": "address",
                    "name": "_vendor",
                    "type": "address"
                }
            ],
            "name": "revokeVendorApproval",
            "outputs": [
                {
                    "internalType": "bool",
                    "name": "",
                    "type": "bool"
                }
            ],
            "stateMutability": "nonpayable",
            "type": "function"
        },
        {
            "inputs": [],
            "name": "totalQuantity",
            "outputs": [
                {
                    "internalType": "uint256",
                    "name": "",
                    "type": "uint256"
                }
            ],
            "stateMutability": "view",
            "type": "function"
        },
        {
            "inputs": [],
            "name": "vendorList",
            "outputs": [
                {
                    "components": [
                        {
                            "internalType": "uint256",
                            "name": "id",
                            "type": "uint256"
                        },
                        {
                            "internalType": "string",
                            "name": "milkFactory",
                            "type": "string"
                        },
                        {
                            "internalType": "string",
                            "name": "name",
                            "type": "string"
                        },
                        {
                            "internalType": "string",
                            "name": "email",
                            "type": "string"
                        },
                        {
                            "internalType": "address payable",
                            "name": "vendorAddress",
                            "type": "address"
                        },
                        {
                            "internalType": "uint256",
                            "name": "createdAt",
                            "type": "uint256"
                        },
                        {
                            "internalType": "bool",
                            "name": "isApproved",
                            "type": "bool"
                        },
                        {
                            "internalType": "bool",
                            "name": "isListed",
                            "type": "bool"
                        }
                    ],
                    "internalType": "struct MilkDelivery.Vendor[]",
                    "name": "",
                    "type": "tuple[]"
                }
            ],
            "stateMutability": "view",
            "type": "function"
        }
    ],
    "bytecode": "0x6080604052600060055560006006556000600755600060085534801561002457600080fd5b5061002e33610033565b610083565b600080546001600160a01b038381166001600160a01b0319831681178455604051919092169283917f8be0079c531659141344cd1fd0a4f28419497f9722a3daafe3b4186f6b6457e09190a35050565b61224a806100926000396000f3fe608060405234801561001057600080fd5b50600436106101fb5760003560e01c806391d148541161011a578063d15d79ae116100ad578063df627c2a1161007c578063df627c2a146104c8578063e128e23414610512578063ef4c79701461051b578063f2fde38b14610524578063f8a529231461053757600080fd5b8063d15d79ae1461047a578063d547741f1461048d578063db0b81bb146104a0578063ddc00f3b146104b357600080fd5b8063a420623b116100e9578063a420623b14610411578063c616f41214610434578063c824e0881461043c578063cea676e41461046757600080fd5b806391d14854146103da57806398faad55146103ed578063a08d986d146103f6578063a217fddf1461040957600080fd5b80636c1c13a811610192578063715018a611610161578063715018a614610373578063868947c91461037b57806386f22dbd146103a65780638da5cb5b146103c957600080fd5b80636c1c13a8146102e95780636ea8b00214610303578063707be4ac146103165780637129bbb71461036057600080fd5b806336568abe116101ce57806336568abe146102785780633df0acc91461028b5780634ca5d142146102b257806354f97a61146102d657600080fd5b806301ffc9a7146102005780630c59d63914610228578063248a9ca31461023f5780632f2ff15d14610263575b600080fd5b61021361020e366004611bec565b61054a565b60405190151581526020015b60405180910390f35b61023160075481565b60405190815260200161021f565b61023161024d366004611c16565b6000908152600160208190526040909120015490565b610276610271366004611c4b565b610581565b005b610276610286366004611c4b565b6105ad565b61029e610299366004611c77565b610630565b60405161021f989796959493929190611cee565b6102c56102c0366004611c16565b61081b565b60405161021f959493929190611d9b565b6102136102e4366004611c77565b610869565b6004546102f69060ff1681565b60405161021f9190611dd7565b610213610311366004611c77565b61099b565b6102c5610324366004611c16565b601260205260009081526040902080546001820154600283015460038401546004909401546001600160a01b0390931693919290919060ff1685565b61023161036e366004611de5565b610aa8565b610276610ae6565b61038e610389366004611c16565b610b1c565b6040516001600160a01b03909116815260200161021f565b6102136103b4366004611c77565b600c6020526000908152604090205460ff1681565b6000546001600160a01b031661038e565b6102136103e8366004611c4b565b610b46565b61023160055481565b61029e610404366004611c16565b610b71565b610231600081565b61021361041f366004611c77565b60106020526000908152604090205460ff1681565b600654610231565b61023161044a366004611de5565b600e60209081526000928352604080842090915290825290205481565b610213610475366004611e0f565b610ba6565b610213610488366004611ee6565b610fb5565b61027661049b366004611c4b565b6113a0565b61029e6104ae366004611c16565b6113c7565b6104bb6113e9565b60405161021f9190611f7f565b6102c56104d6366004611c77565b600d60205260009081526040902080546001820154600283015460038401546004909401546001600160a01b0390931693919290919060ff1685565b61023160065481565b61023160085481565b610276610532366004611c77565b61164b565b610213610545366004611c77565b6116e6565b60006001600160e01b03198216637965db0b60e01b148061057b57506301ffc9a760e01b6001600160e01b03198316145b92915050565b6000828152600160208190526040909120015461059e8133611812565b6105a88383611876565b505050565b6001600160a01b03811633146106225760405162461bcd60e51b815260206004820152602f60248201527f416363657373436f6e74726f6c3a2063616e206f6e6c792072656e6f756e636560448201526e103937b632b9903337b91039b2b63360891b60648201526084015b60405180910390fd5b61062c82826118e1565b5050565b600f602052600090815260409020805460018201805491929161065290612068565b80601f016020809104026020016040519081016040528092919081815260200182805461067e90612068565b80156106cb5780601f106106a0576101008083540402835291602001916106cb565b820191906000526020600020905b8154815290600101906020018083116106ae57829003601f168201915b5050505050908060020180546106e090612068565b80601f016020809104026020016040519081016040528092919081815260200182805461070c90612068565b80156107595780601f1061072e57610100808354040283529160200191610759565b820191906000526020600020905b81548152906001019060200180831161073c57829003601f168201915b50505050509080600301805461076e90612068565b80601f016020809104026020016040519081016040528092919081815260200182805461079a90612068565b80156107e75780601f106107bc576101008083540402835291602001916107e7565b820191906000526020600020905b8154815290600101906020018083116107ca57829003601f168201915b505050506004830154600584015460069094015492936001600160a01b039091169290915060ff8082169161010090041688565b600a818154811061082b57600080fd5b6000918252602090912060059091020180546001820154600283015460038401546004909401546001600160a01b0390931694509092909160ff1685565b600080546001600160a01b031633146108945760405162461bcd60e51b81526004016106199061209d565b816001600160a01b0381166108bb5760405162461bcd60e51b8152600401610619906120d2565b6001600160a01b0381166000908152600c602052604090205460ff16151560011461091e5760405162461bcd60e51b815260206004820152601360248201527215995b991bdc88139bdd08105c1c1c9bdd9959606a1b6044820152606401610619565b6001600160a01b0383166000908152600c60205260409020805460ff1916905560085461094c906001611948565b60085560405142815233906001600160a01b038516907fb5a2fcb0e25435e1bc8c82c0624a166cb5281d2614da6819cb253686224078e9906020015b60405180910390a3600191505b50919050565b600080546001600160a01b031633146109c65760405162461bcd60e51b81526004016106199061209d565b816001600160a01b0381166109ed5760405162461bcd60e51b8152600401610619906120d2565b6001600160a01b03811660009081526010602052604090205460ff161515600114610a535760405162461bcd60e51b8152602060048201526016602482015275135a5b1ac815995b991bdc881b9bdd081b1a5cdd195960521b6044820152606401610619565b6001600160a01b03831660008181526010602052604090819020805460ff19169055513391907fc1519c40dfbaa692a1c12680413675b407827248b9252fa6cd30611669cf8abf906109889042815260200190565b60006001600160a01b038316610abd57600080fd5b506001600160a01b03919091166000908152600e60209081526040808320938352929052205490565b6000546001600160a01b03163314610b105760405162461bcd60e51b81526004016106199061209d565b610b1a600061195b565b565b600b8181548110610b2c57600080fd5b6000918252602090912001546001600160a01b0316905081565b60009182526001602090815260408084206001600160a01b0393909316845291905290205460ff1690565b60098181548110610b8157600080fd5b6000918252602090912060079091020180546001820180549193509061065290612068565b60003380610bc65760405162461bcd60e51b8152600401610619906120d2565b6001600160a01b03811660009081526010602052604090205460ff161515600114610c2c5760405162461bcd60e51b8152602060048201526016602482015275135a5b1ac815995b991bdc881b9bdd081b1a5cdd195960521b6044820152606401610619565b3380610c4a5760405162461bcd60e51b8152600401610619906120d2565b6001600160a01b0381166000908152600c602052604090205460ff161515600114610cad5760405162461bcd60e51b815260206004820152601360248201527215995b991bdc88139bdd08105c1c1c9bdd9959606a1b6044820152606401610619565b84610d185760405162461bcd60e51b815260206004820152603560248201527f4e6577204d696c6b2044656c6976657279204974656d3a203d3e205a65726f20604482015274145d585b9d1a5d1e48139bdd081058d8d95c1d1959605a1b6064820152608401610619565b610d26600280546001019055565b6000610d3160025490565b905060006040518060a00160405280336001600160a01b03168152602001838152602001428152602001888152602001876003811115610d7357610d73611d63565b9052600a80546001808201835560009290925282517fc65a7bb8d6351c1cf70c95a316cc6a92839c986682d98bc35f958f4883f9d2a8600590920291820180546001600160a01b0319166001600160a01b0390921691909117815560208401517fc65a7bb8d6351c1cf70c95a316cc6a92839c986682d98bc35f958f4883f9d2a983015560408401517fc65a7bb8d6351c1cf70c95a316cc6a92839c986682d98bc35f958f4883f9d2aa83015560608401517fc65a7bb8d6351c1cf70c95a316cc6a92839c986682d98bc35f958f4883f9d2ab83015560808401517fc65a7bb8d6351c1cf70c95a316cc6a92839c986682d98bc35f958f4883f9d2ac909201805494955085949193909160ff191690836003811115610e9457610e94611d63565b021790555050336000908152600d6020908152604091829020845181546001600160a01b0319166001600160a01b03909116178155908401516001808301919091559184015160028201556060840151600380830191909155608085015160048301805487965093949193909260ff1990911691908490811115610f1a57610f1a611d63565b021790555050336000908152600e60209081526040808320428452909152902088905550600754610f4c9060016119ab565b600755600654610f5c90886119ab565b600655856003811115610f7157610f71611d63565b604051428152889033907f85f3f3a7f3ef4c556d64244b4b4b8bd8a4d3977d27b6f270cafe93466f8001649060200160405180910390a45060019695505050505050565b600080546001600160a01b03163314610fe05760405162461bcd60e51b81526004016106199061209d565b60008451116110315760405162461bcd60e51b815260206004820152601f60248201527f4e6577204d696c6b2056656e646f72203d3e204e756c6c20466163746f7279006044820152606401610619565b600083511161108e5760405162461bcd60e51b815260206004820152602360248201527f4e6577204d696c6b2056656e646f72203d3e204e756c6c2056656e646f72204e604482015262616d6560e81b6064820152608401610619565b60008251116110eb5760405162461bcd60e51b8152602060048201526024808201527f4e6577204d696c6b2056656e646f72203d3e204e756c6c2056656e646f7220456044820152631b585a5b60e21b6064820152608401610619565b6110f9600380546001019055565b600061110460035490565b60408051610100810182528281526020808201898152928201889052606082018790526001600160a01b038a1660808301524260a0830152600060c08301819052600160e08401819052600980549182018155909152825160079091027f6e1540171b6c0c960b71a7020d9f60077f6af931a8bbf590da0223dacf75c7af8101918255935180519596509294859491936111c4937f6e1540171b6c0c960b71a7020d9f60077f6af931a8bbf590da0223dacf75c7b0909301920190611b53565b50604082015180516111e0916002840191602090910190611b53565b50606082015180516111fc916003840191602090910190611b53565b5060808201516004820180546001600160a01b039092166001600160a01b031990921691909117905560a0820151600582015560c08201516006909101805460e09093015115156101000261ff00199215159290921661ffff1990931692909217179055336000908152600f6020908152604090912082518155818301518051849361128f926001850192910190611b53565b50604082015180516112ab916002840191602090910190611b53565b50606082015180516112c7916003840191602090910190611b53565b5060808201516004820180546001600160a01b0319166001600160a01b0392831617905560a083015160058084019190915560c08401516006909301805460e09095015161ffff1990951693151561ff00191693909317610100941515949094029390931790915588166000908152601060205260409020805460ff191660019081179091559054611358916119ab565b600555604051429033906001600160a01b038a16907ff2ec7d1becaa3243fd29d0fc48bde1dd19c594104b9ce00eb188b9797face12d90600090a45060019695505050505050565b600082815260016020819052604090912001546113bd8133611812565b6105a883836118e1565b6011602052600090815260409020805460018201805491929161065290612068565b60606009805480602002602001604051908101604052809291908181526020016000905b828210156116425783829060005260206000209060070201604051806101000160405290816000820154815260200160018201805461144b90612068565b80601f016020809104026020016040519081016040528092919081815260200182805461147790612068565b80156114c45780601f10611499576101008083540402835291602001916114c4565b820191906000526020600020905b8154815290600101906020018083116114a757829003601f168201915b505050505081526020016002820180546114dd90612068565b80601f016020809104026020016040519081016040528092919081815260200182805461150990612068565b80156115565780601f1061152b57610100808354040283529160200191611556565b820191906000526020600020905b81548152906001019060200180831161153957829003601f168201915b5050505050815260200160038201805461156f90612068565b80601f016020809104026020016040519081016040528092919081815260200182805461159b90612068565b80156115e85780601f106115bd576101008083540402835291602001916115e8565b820191906000526020600020905b8154815290600101906020018083116115cb57829003601f168201915b505050918352505060048201546001600160a01b03166020808301919091526005830154604083015260069092015460ff80821615156060840152610100909104161515608090910152908252600192909201910161140d565b50505050905090565b6000546001600160a01b031633146116755760405162461bcd60e51b81526004016106199061209d565b6001600160a01b0381166116da5760405162461bcd60e51b815260206004820152602660248201527f4f776e61626c653a206e6577206f776e657220697320746865207a65726f206160448201526564647265737360d01b6064820152608401610619565b6116e38161195b565b50565b600080546001600160a01b031633146117115760405162461bcd60e51b81526004016106199061209d565b816001600160a01b0381166117385760405162461bcd60e51b8152600401610619906120d2565b6001600160a01b0381166000908152600c602052604090205460ff16156117935760405162461bcd60e51b815260206004820152600f60248201526e15995b991bdc88105c1c1c9bdd9959608a1b6044820152606401610619565b6001600160a01b0383166000818152600c60205260408120805460ff19166001908117909155600b8054808301825592527f0175b7a638427703f0dbe7bb9bbf987a2551717b34e79f33b5b1008d1fa01db990910180546001600160a01b031916909217909155600854611806916119ab565b60085550600192915050565b61181c8282610b46565b61062c57611834816001600160a01b031660146119b7565b61183f8360206119b7565b6040516020016118509291906120fb565b60408051601f198184030181529082905262461bcd60e51b825261061991600401612170565b6118808282610b46565b61062c5760008281526001602081815260408084206001600160a01b0386168086529252808420805460ff19169093179092559051339285917f2f8788117e7eff1d82e926ec794901d17c78024a50270940304540a733656f0d9190a45050565b6118eb8282610b46565b1561062c5760008281526001602090815260408083206001600160a01b0385168085529252808320805460ff1916905551339285917ff6391f5c32d9c69d2a47ea670b442974b53935d1edc7fd64eb21e047a839171b9190a45050565b60006119548284612199565b9392505050565b600080546001600160a01b038381166001600160a01b0319831681178455604051919092169283917f8be0079c531659141344cd1fd0a4f28419497f9722a3daafe3b4186f6b6457e09190a35050565b600061195482846121b0565b606060006119c68360026121c8565b6119d19060026121b0565b67ffffffffffffffff8111156119e9576119e9611e43565b6040519080825280601f01601f191660200182016040528015611a13576020820181803683370190505b509050600360fc1b81600081518110611a2e57611a2e6121e7565b60200101906001600160f81b031916908160001a905350600f60fb1b81600181518110611a5d57611a5d6121e7565b60200101906001600160f81b031916908160001a9053506000611a818460026121c8565b611a8c9060016121b0565b90505b6001811115611b04576f181899199a1a9b1b9c1cb0b131b232b360811b85600f1660108110611ac057611ac06121e7565b1a60f81b828281518110611ad657611ad66121e7565b60200101906001600160f81b031916908160001a90535060049490941c93611afd816121fd565b9050611a8f565b5083156119545760405162461bcd60e51b815260206004820181905260248201527f537472696e67733a20686578206c656e67746820696e73756666696369656e746044820152606401610619565b828054611b5f90612068565b90600052602060002090601f016020900481019282611b815760008555611bc7565b82601f10611b9a57805160ff1916838001178555611bc7565b82800160010185558215611bc7579182015b82811115611bc7578251825591602001919060010190611bac565b50611bd3929150611bd7565b5090565b5b80821115611bd35760008155600101611bd8565b600060208284031215611bfe57600080fd5b81356001600160e01b03198116811461195457600080fd5b600060208284031215611c2857600080fd5b5035919050565b80356001600160a01b0381168114611c4657600080fd5b919050565b60008060408385031215611c5e57600080fd5b82359150611c6e60208401611c2f565b90509250929050565b600060208284031215611c8957600080fd5b61195482611c2f565b60005b83811015611cad578181015183820152602001611c95565b83811115611cbc576000848401525b50505050565b60008151808452611cda816020860160208601611c92565b601f01601f19169290920160200192915050565b60006101008a8352806020840152611d088184018b611cc2565b90508281036040840152611d1c818a611cc2565b90508281036060840152611d308189611cc2565b6001600160a01b03979097166080840152505060a081019390935290151560c0830152151560e090910152949350505050565b634e487b7160e01b600052602160045260246000fd5b60048110611d9757634e487b7160e01b600052602160045260246000fd5b9052565b6001600160a01b038616815260208101859052604081018490526060810183905260a08101611dcd6080830184611d79565b9695505050505050565b6020810161057b8284611d79565b60008060408385031215611df857600080fd5b611e0183611c2f565b946020939093013593505050565b60008060408385031215611e2257600080fd5b82359150602083013560048110611e3857600080fd5b809150509250929050565b634e487b7160e01b600052604160045260246000fd5b600082601f830112611e6a57600080fd5b813567ffffffffffffffff80821115611e8557611e85611e43565b604051601f8301601f19908116603f01168101908282118183101715611ead57611ead611e43565b81604052838152866020858801011115611ec657600080fd5b836020870160208301376000602085830101528094505050505092915050565b60008060008060808587031215611efc57600080fd5b611f0585611c2f565b9350602085013567ffffffffffffffff80821115611f2257600080fd5b611f2e88838901611e59565b94506040870135915080821115611f4457600080fd5b611f5088838901611e59565b93506060870135915080821115611f6657600080fd5b50611f7387828801611e59565b91505092959194509250565b60006020808301818452808551808352604092508286019150828160051b87010184880160005b8381101561205a57603f1989840301855281516101008151855288820151818a870152611fd582870182611cc2565b9150508782015185820389870152611fed8282611cc2565b915050606080830151868303828801526120078382611cc2565b92505050608080830151612025828801826001600160a01b03169052565b505060a0828101519086015260c08083015115159086015260e091820151151591909401529386019390860190600101611fa6565b509098975050505050505050565b600181811c9082168061207c57607f821691505b6020821081141561099557634e487b7160e01b600052602260045260246000fd5b6020808252818101527f4f776e61626c653a2063616c6c6572206973206e6f7420746865206f776e6572604082015260600190565b6020808252600f908201526e496e76616c6964204164647265737360881b604082015260600190565b7f416363657373436f6e74726f6c3a206163636f756e7420000000000000000000815260008351612133816017850160208801611c92565b7001034b99036b4b9b9b4b733903937b6329607d1b6017918401918201528351612164816028840160208801611c92565b01602801949350505050565b6020815260006119546020830184611cc2565b634e487b7160e01b600052601160045260246000fd5b6000828210156121ab576121ab612183565b500390565b600082198211156121c3576121c3612183565b500190565b60008160001904831182151516156121e2576121e2612183565b500290565b634e487b7160e01b600052603260045260246000fd5b60008161220c5761220c612183565b50600019019056fea2646970667358221220e77cc2a603c906109daefcbfe9710896a09cbb6d9ffa4611a861a7a5f1e0485d64736f6c634300080b0033",
    "immutableReferences": {},
    "source": "// SPDX-License-Identifier: MIT\npragma solidity ^0.8.0;\nimport \"@openzeppelin/contracts/access/Ownable.sol\";\nimport \"@openzeppelin/contracts/access/AccessControl.sol\";\nimport \"@openzeppelin/contracts/utils/math/SafeMath.sol\";\nimport \"@openzeppelin/contracts/utils/Counters.sol\";\nimport \"./interfaces/MilkDeliveryInterface.sol\";\n\n/**\n  * @title Milk Delivery Contract\n  * @dev A smart contract that enables dairy farmers to record their daily produce\n */\ncontract MilkDelivery is Ownable, AccessControl,MilkDeliveryInterface {\n  using SafeMath for uint256;\n  using Counters for Counters.Counter;\n\n  Counters.Counter private milkDeliveryIds; //to help track milk delivery items by ID e.g 1\n  Counters.Counter private vendorIds; //to help track vendors by ID e.g 1\n\n  enum MILK_QUALITY_TYPE { GOOD, STALE, PERFECT, BAD } //quality types\n  MILK_QUALITY_TYPE public milkQualityType; //in order to access the enum via a variable\n\n  //Vendor struct with vendor particulars/details\n  struct Vendor{\n    uint id;\n    string milkFactory;\n    string name;\n    string email;\n    address payable vendorAddress;\n    uint createdAt;\n    bool isApproved;\n    bool isListed;\n  }\n\n  //Delivery struct with delivery item particulars\n  struct MilkDeliveryItem{\n    address payable vendor;\n    uint id;\n    uint date;\n    uint quantity;\n    MILK_QUALITY_TYPE milkQualityType;\n  }\n\n  uint public totalVendors = 0; //total vendors initialised to 0\n  uint public totalQuantities = 0; //keeps track of total milk quantity recorded on-chain\n  uint public totalDeliveries = 0; //to handle incrementing of overral milk quantities\n  uint public totalApprovedVendors = 0; // shall be incremented and decremented accordingly\n\n  Vendor[] public vendors; //an array of the vendors\n  MilkDeliveryItem[] public milkDeliveries; //to help keep track of delivery items as an array\n  address[] public approvedVendors; //the addresses of the approved vendors\n  \n  mapping(address => bool) public isApprovedForMilkVending; //a boolean indicating whether a vendor has been approved\n  mapping(address => MilkDeliveryItem) public deliveryItemByVendor; //get the delivery item by vendor identified by an address\n  mapping(address => mapping(uint => uint)) public vendorQuantityByDate; //keeps track of the total quantity of the vendor by date [address][date][quantity]\n  mapping(address => Vendor) public vendorsByUser; //who added thie vendor item\n  mapping(address => bool) public isVendorListed; //to show whether this address is listed as a vendor or not\n\n  mapping(uint => Vendor) public vendorById; //a mapping of the vebdor id to the struct item\n  mapping(uint => MilkDeliveryItem) public deliveryItemById; // a mapping of the delivery item  by it's id\n\n  event NewMilkDeliveryRecorded(address indexed vendor, uint indexed quantity, MILK_QUALITY_TYPE indexed quality, uint date);\n  event NewMilkVendorAdded(address indexed vendor, address indexed addedBy, uint indexed date);\n  event MilkVendorDisapproved(address indexed vendor, address indexed caller, uint date); //address[] indexed approvedVendors\n  event MilkVendorDelisted(address indexed vendor, address indexed caller, uint date);\n\n  constructor() public {\n  }\n\n  modifier isApprovedForVending(address _vendor){\n    require(_vendor != address(0),\"Invalid Address\");\n    require(isApprovedForMilkVending[_vendor] == true,\"Vendor Not Approved\");\n    _;\n  }\n\n  modifier isNotApprovedForVending(address _vendor){\n    require(_vendor != address(0),\"Invalid Address\");\n    require(isApprovedForMilkVending[_vendor] == false,\"Vendor Approved\");\n    _;\n  }\n\n  modifier isListedAsAvendor(address _vendor){\n    require(_vendor != address(0),\"Invalid Address\");\n    require(isVendorListed[_vendor] == true,\"Milk Vendor not listed\");\n    _;\n  }\n\n  modifier vendorNotListed(address _vendor){\n    require(_vendor != address(0),\"Invalid Address\");\n    require(isVendorListed[_vendor] == false,\"Milk Vendor is listed\");\n    _;\n  }\n\n  /**\n    * @dev approves a vendor for milk delivery, only performed by the contract owner\n    * @param _vendor address\n   */\n   function approveVendor(address _vendor) public onlyOwner isNotApprovedForVending(_vendor) returns(bool){\n      isApprovedForMilkVending[_vendor] = true;\n      approvedVendors.push(_vendor);\n      totalApprovedVendors = totalApprovedVendors.add(1);\n      return true;\n   }\n\n  /**\n    * @dev enables only the contract owner to add a new vendor\n    * @param _newVendor address \n    * @param _milkFactory string\n    * @param _name string\n    * @param _email string \n   */\n  function listNewVendor(address _newVendor, string memory _milkFactory, string memory _name, string memory _email) public \n  onlyOwner \n  returns(bool)\n  {\n      require(bytes(_milkFactory).length > 0, \"New Milk Vendor => Null Factory\");\n      require(bytes(_name).length > 0, \"New Milk Vendor => Null Vendor Name\");\n      require(bytes(_email).length > 0, \"New Milk Vendor => Null Vendor Email\");\n\n      vendorIds.increment();\n      uint currentVendorId = vendorIds.current();\n      Vendor memory newMilkVendor = Vendor(currentVendorId,_milkFactory,_name,_email, payable(_newVendor), block.timestamp, false, true);\n      vendors.push(newMilkVendor);\n      vendorsByUser[msg.sender] = newMilkVendor;\n      isVendorListed[_newVendor] = true;\n      totalVendors = totalVendors.add(1);\n      emit NewMilkVendorAdded(_newVendor, msg.sender, block.timestamp);\n      return true;\n  }\n\n  /**\n   * @dev returns the total quantity of milk recorded by a vendor on a specific date\n   * @param _vendor address\n   * @param _date uint\n   */\n  function getVendorQuantityByDate(address _vendor, uint _date) public view returns(uint){\n    require(_vendor != address(0)); //Not an empty address\n    return vendorQuantityByDate[_vendor][_date];\n  }\n\n  /**\n    * @dev record a new milk delivery\n    * @param _quantity uint\n    * @param _qualityType enum\n   */\n  function recordNewDelivery(uint _quantity, MILK_QUALITY_TYPE _qualityType) public \n  isListedAsAvendor(msg.sender) \n  isApprovedForVending(msg.sender) \n  returns(bool)\n  {\n    require( _quantity != 0,\"New Milk Delivery Item: => Zero Quantity Not Accepted\");\n    milkDeliveryIds.increment();\n    uint currentDeliveryId = milkDeliveryIds.current();\n    MilkDeliveryItem memory newMilkDeliveryItem = MilkDeliveryItem(payable(msg.sender),currentDeliveryId, block.timestamp,_quantity,_qualityType);\n    milkDeliveries.push(newMilkDeliveryItem);\n    deliveryItemByVendor[msg.sender] = newMilkDeliveryItem;\n    vendorQuantityByDate[msg.sender][block.timestamp] = _quantity;\n    totalDeliveries = totalDeliveries.add(1);\n    totalQuantities = totalQuantities.add(_quantity);\n    emit NewMilkDeliveryRecorded(msg.sender,_quantity,_qualityType, block.timestamp);\n    return true;\n  }\n\n  /**\n    * @dev enables contract owner to delist a vendor\n    * @param _vendor address\n   */\n  function delistVendor(address _vendor) public onlyOwner isListedAsAvendor(_vendor) returns(bool){\n    isVendorListed[_vendor] = false;\n    emit MilkVendorDelisted(_vendor, msg.sender, block.timestamp);\n    return true;\n  }\n\n  /**\n    * @dev revoke a milk vendor's approval for milk vending\n    * @param _vendor address\n   */\n  function revokeVendorApproval(address _vendor) public onlyOwner isApprovedForVending(_vendor) returns(bool){\n      isApprovedForMilkVending[_vendor] = false;\n      //remove this vendor from the approved vendors array and maintain the array order\n      /** \n      for(uint i = 0; i < approvedVendors.length - 1; i++){\n        if(approvedVendors[i] == _vendor){\n          approvedVendors[i] = approvedVendors[i + 1];\n        }\n      }\n      \n      approvedVendors.pop();\n      */\n      totalApprovedVendors = totalApprovedVendors.sub(1);\n      emit MilkVendorDisapproved(_vendor, msg.sender, block.timestamp); //approvedVendors\n      return true;\n  }\n\n  /**\n    * @dev gets the total quantity of milk by all vendors recorded on-chain\n   */\n  function totalQuantity() external virtual view returns(uint){\n    return totalQuantities;\n  }\n\n  /**\n    * @dev returns an array of all the vendors\n   */\n  function vendorList() public view returns(Vendor[] memory){\n    return vendors;\n  }\n}\n",
    "sourcePath": "D:/Dickens/Programming/Blockchain/Projects/Research Projects/MMUST/Dairy Farmers Milk Delivery/contracts/MilkDelivery.sol",
    "compiler": {
        "name": "solc",
        "version": "0.8.11+commit.d7f03943.Emscripten.clang"
    },
    "schemaVersion": "3.4.1",
    "updatedAt": "2022-01-05T21:01:10.943Z",
    "devdoc": {
        "details": "A smart contract that enables dairy farmers to record their daily produce",
        "kind": "dev",
        "methods": {
            "approveVendor(address)": {
                "details": "approves a vendor for milk delivery, only performed by the contract owner",
                "params": {
                    "_vendor": "address"
                }
            },
            "delistVendor(address)": {
                "details": "enables contract owner to delist a vendor",
                "params": {
                    "_vendor": "address"
                }
            },
            "getRoleAdmin(bytes32)": {
                "details": "Returns the admin role that controls `role`. See {grantRole} and {revokeRole}. To change a role's admin, use {_setRoleAdmin}."
            },
            "getVendorQuantityByDate(address,uint256)": {
                "details": "returns the total quantity of milk recorded by a vendor on a specific date",
                "params": {
                    "_date": "uint",
                    "_vendor": "address"
                }
            },
            "grantRole(bytes32,address)": {
                "details": "Grants `role` to `account`. If `account` had not been already granted `role`, emits a {RoleGranted} event. Requirements: - the caller must have ``role``'s admin role."
            },
            "hasRole(bytes32,address)": {
                "details": "Returns `true` if `account` has been granted `role`."
            },
            "listNewVendor(address,string,string,string)": {
                "details": "enables only the contract owner to add a new vendor",
                "params": {
                    "_email": "string ",
                    "_milkFactory": "string",
                    "_name": "string",
                    "_newVendor": "address "
                }
            },
            "owner()": {
                "details": "Returns the address of the current owner."
            },
            "recordNewDelivery(uint256,uint8)": {
                "details": "record a new milk delivery",
                "params": {
                    "_qualityType": "enum",
                    "_quantity": "uint"
                }
            },
            "renounceOwnership()": {
                "details": "Leaves the contract without owner. It will not be possible to call `onlyOwner` functions anymore. Can only be called by the current owner. NOTE: Renouncing ownership will leave the contract without an owner, thereby removing any functionality that is only available to the owner."
            },
            "renounceRole(bytes32,address)": {
                "details": "Revokes `role` from the calling account. Roles are often managed via {grantRole} and {revokeRole}: this function's purpose is to provide a mechanism for accounts to lose their privileges if they are compromised (such as when a trusted device is misplaced). If the calling account had been revoked `role`, emits a {RoleRevoked} event. Requirements: - the caller must be `account`."
            },
            "revokeRole(bytes32,address)": {
                "details": "Revokes `role` from `account`. If `account` had been granted `role`, emits a {RoleRevoked} event. Requirements: - the caller must have ``role``'s admin role."
            },
            "revokeVendorApproval(address)": {
                "details": "revoke a milk vendor's approval for milk vending",
                "params": {
                    "_vendor": "address"
                }
            },
            "supportsInterface(bytes4)": {
                "details": "See {IERC165-supportsInterface}."
            },
            "totalQuantity()": {
                "details": "gets the total quantity of milk by all vendors recorded on-chain"
            },
            "transferOwnership(address)": {
                "details": "Transfers ownership of the contract to a new account (`newOwner`). Can only be called by the current owner."
            },
            "vendorList()": {
                "details": "returns an array of all the vendors"
            }
        },
        "title": "Milk Delivery Contract",
        "version": 1
    },
    "userdoc": {
        "kind": "user",
        "methods": {},
        "version": 1
    }
}