{
    "contractName": "MilkDelivery",
    "abi": [
        {
            "inputs": [],
            "stateMutability": "nonpayable",
            "type": "constructor"
        },
        {
            "anonymous": false,
            "inputs": [
                {
                    "indexed": true,
                    "internalType": "address",
                    "name": "vendor",
                    "type": "address"
                },
                {
                    "indexed": true,
                    "internalType": "address",
                    "name": "caller",
                    "type": "address"
                },
                {
                    "indexed": false,
                    "internalType": "uint256",
                    "name": "date",
                    "type": "uint256"
                }
            ],
            "name": "MilkVendorDelisted",
            "type": "event"
        },
        {
            "anonymous": false,
            "inputs": [
                {
                    "indexed": true,
                    "internalType": "address",
                    "name": "vendor",
                    "type": "address"
                },
                {
                    "indexed": true,
                    "internalType": "address",
                    "name": "caller",
                    "type": "address"
                },
                {
                    "indexed": false,
                    "internalType": "uint256",
                    "name": "date",
                    "type": "uint256"
                }
            ],
            "name": "MilkVendorDisapproved",
            "type": "event"
        },
        {
            "anonymous": false,
            "inputs": [
                {
                    "indexed": true,
                    "internalType": "address",
                    "name": "farmerAddress",
                    "type": "address"
                },
                {
                    "indexed": false,
                    "internalType": "uint256",
                    "name": "id",
                    "type": "uint256"
                },
                {
                    "indexed": false,
                    "internalType": "uint256",
                    "name": "dateAdded",
                    "type": "uint256"
                }
            ],
            "name": "NewFarmer",
            "type": "event"
        },
        {
            "anonymous": false,
            "inputs": [
                {
                    "indexed": true,
                    "internalType": "address",
                    "name": "vendor",
                    "type": "address"
                },
                {
                    "indexed": true,
                    "internalType": "uint256",
                    "name": "quantity",
                    "type": "uint256"
                },
                {
                    "indexed": true,
                    "internalType": "enum MilkDelivery.MILK_QUALITY_TYPE",
                    "name": "quality",
                    "type": "uint8"
                },
                {
                    "indexed": false,
                    "internalType": "uint256",
                    "name": "date",
                    "type": "uint256"
                }
            ],
            "name": "NewMilkDeliveryRecorded",
            "type": "event"
        },
        {
            "anonymous": false,
            "inputs": [
                {
                    "indexed": true,
                    "internalType": "address",
                    "name": "vendor",
                    "type": "address"
                },
                {
                    "indexed": true,
                    "internalType": "address",
                    "name": "addedBy",
                    "type": "address"
                },
                {
                    "indexed": true,
                    "internalType": "uint256",
                    "name": "date",
                    "type": "uint256"
                }
            ],
            "name": "NewMilkVendorAdded",
            "type": "event"
        },
        {
            "anonymous": false,
            "inputs": [
                {
                    "indexed": true,
                    "internalType": "address",
                    "name": "previousOwner",
                    "type": "address"
                },
                {
                    "indexed": true,
                    "internalType": "address",
                    "name": "newOwner",
                    "type": "address"
                }
            ],
            "name": "OwnershipTransferred",
            "type": "event"
        },
        {
            "anonymous": false,
            "inputs": [
                {
                    "indexed": true,
                    "internalType": "bytes32",
                    "name": "role",
                    "type": "bytes32"
                },
                {
                    "indexed": true,
                    "internalType": "bytes32",
                    "name": "previousAdminRole",
                    "type": "bytes32"
                },
                {
                    "indexed": true,
                    "internalType": "bytes32",
                    "name": "newAdminRole",
                    "type": "bytes32"
                }
            ],
            "name": "RoleAdminChanged",
            "type": "event"
        },
        {
            "anonymous": false,
            "inputs": [
                {
                    "indexed": true,
                    "internalType": "bytes32",
                    "name": "role",
                    "type": "bytes32"
                },
                {
                    "indexed": true,
                    "internalType": "address",
                    "name": "account",
                    "type": "address"
                },
                {
                    "indexed": true,
                    "internalType": "address",
                    "name": "sender",
                    "type": "address"
                }
            ],
            "name": "RoleGranted",
            "type": "event"
        },
        {
            "anonymous": false,
            "inputs": [
                {
                    "indexed": true,
                    "internalType": "bytes32",
                    "name": "role",
                    "type": "bytes32"
                },
                {
                    "indexed": true,
                    "internalType": "address",
                    "name": "account",
                    "type": "address"
                },
                {
                    "indexed": true,
                    "internalType": "address",
                    "name": "sender",
                    "type": "address"
                }
            ],
            "name": "RoleRevoked",
            "type": "event"
        },
        {
            "inputs": [],
            "name": "DEFAULT_ADMIN_ROLE",
            "outputs": [
                {
                    "internalType": "bytes32",
                    "name": "",
                    "type": "bytes32"
                }
            ],
            "stateMutability": "view",
            "type": "function",
            "constant": true
        },
        {
            "inputs": [
                {
                    "internalType": "uint256",
                    "name": "",
                    "type": "uint256"
                }
            ],
            "name": "approvedVendors",
            "outputs": [
                {
                    "internalType": "address",
                    "name": "",
                    "type": "address"
                }
            ],
            "stateMutability": "view",
            "type": "function",
            "constant": true
        },
        {
            "inputs": [
                {
                    "internalType": "uint256",
                    "name": "",
                    "type": "uint256"
                }
            ],
            "name": "deliveryItemById",
            "outputs": [
                {
                    "internalType": "address payable",
                    "name": "vendor",
                    "type": "address"
                },
                {
                    "internalType": "uint256",
                    "name": "id",
                    "type": "uint256"
                },
                {
                    "internalType": "uint256",
                    "name": "date",
                    "type": "uint256"
                },
                {
                    "internalType": "uint256",
                    "name": "quantity",
                    "type": "uint256"
                },
                {
                    "internalType": "uint256",
                    "name": "farmerId",
                    "type": "uint256"
                },
                {
                    "internalType": "enum MilkDelivery.MILK_QUALITY_TYPE",
                    "name": "milkQualityType",
                    "type": "uint8"
                }
            ],
            "stateMutability": "view",
            "type": "function",
            "constant": true
        },
        {
            "inputs": [
                {
                    "internalType": "address",
                    "name": "",
                    "type": "address"
                }
            ],
            "name": "deliveryItemByVendor",
            "outputs": [
                {
                    "internalType": "address payable",
                    "name": "vendor",
                    "type": "address"
                },
                {
                    "internalType": "uint256",
                    "name": "id",
                    "type": "uint256"
                },
                {
                    "internalType": "uint256",
                    "name": "date",
                    "type": "uint256"
                },
                {
                    "internalType": "uint256",
                    "name": "quantity",
                    "type": "uint256"
                },
                {
                    "internalType": "uint256",
                    "name": "farmerId",
                    "type": "uint256"
                },
                {
                    "internalType": "enum MilkDelivery.MILK_QUALITY_TYPE",
                    "name": "milkQualityType",
                    "type": "uint8"
                }
            ],
            "stateMutability": "view",
            "type": "function",
            "constant": true
        },
        {
            "inputs": [
                {
                    "internalType": "uint256",
                    "name": "",
                    "type": "uint256"
                }
            ],
            "name": "farmerById",
            "outputs": [
                {
                    "internalType": "uint256",
                    "name": "id",
                    "type": "uint256"
                },
                {
                    "internalType": "string",
                    "name": "firstName",
                    "type": "string"
                },
                {
                    "internalType": "string",
                    "name": "lastName",
                    "type": "string"
                },
                {
                    "internalType": "string",
                    "name": "email",
                    "type": "string"
                },
                {
                    "internalType": "string",
                    "name": "phoneNumber",
                    "type": "string"
                },
                {
                    "internalType": "int256",
                    "name": "idNumber",
                    "type": "int256"
                },
                {
                    "internalType": "string",
                    "name": "location",
                    "type": "string"
                },
                {
                    "internalType": "address payable",
                    "name": "farmerAddress",
                    "type": "address"
                },
                {
                    "internalType": "uint256",
                    "name": "createdAt",
                    "type": "uint256"
                }
            ],
            "stateMutability": "view",
            "type": "function",
            "constant": true
        },
        {
            "inputs": [
                {
                    "internalType": "uint256",
                    "name": "",
                    "type": "uint256"
                }
            ],
            "name": "farmers",
            "outputs": [
                {
                    "internalType": "uint256",
                    "name": "id",
                    "type": "uint256"
                },
                {
                    "internalType": "string",
                    "name": "firstName",
                    "type": "string"
                },
                {
                    "internalType": "string",
                    "name": "lastName",
                    "type": "string"
                },
                {
                    "internalType": "string",
                    "name": "email",
                    "type": "string"
                },
                {
                    "internalType": "string",
                    "name": "phoneNumber",
                    "type": "string"
                },
                {
                    "internalType": "int256",
                    "name": "idNumber",
                    "type": "int256"
                },
                {
                    "internalType": "string",
                    "name": "location",
                    "type": "string"
                },
                {
                    "internalType": "address payable",
                    "name": "farmerAddress",
                    "type": "address"
                },
                {
                    "internalType": "uint256",
                    "name": "createdAt",
                    "type": "uint256"
                }
            ],
            "stateMutability": "view",
            "type": "function",
            "constant": true
        },
        {
            "inputs": [
                {
                    "internalType": "bytes32",
                    "name": "role",
                    "type": "bytes32"
                }
            ],
            "name": "getRoleAdmin",
            "outputs": [
                {
                    "internalType": "bytes32",
                    "name": "",
                    "type": "bytes32"
                }
            ],
            "stateMutability": "view",
            "type": "function",
            "constant": true
        },
        {
            "inputs": [
                {
                    "internalType": "bytes32",
                    "name": "role",
                    "type": "bytes32"
                },
                {
                    "internalType": "address",
                    "name": "account",
                    "type": "address"
                }
            ],
            "name": "grantRole",
            "outputs": [],
            "stateMutability": "nonpayable",
            "type": "function"
        },
        {
            "inputs": [
                {
                    "internalType": "bytes32",
                    "name": "role",
                    "type": "bytes32"
                },
                {
                    "internalType": "address",
                    "name": "account",
                    "type": "address"
                }
            ],
            "name": "hasRole",
            "outputs": [
                {
                    "internalType": "bool",
                    "name": "",
                    "type": "bool"
                }
            ],
            "stateMutability": "view",
            "type": "function",
            "constant": true
        },
        {
            "inputs": [
                {
                    "internalType": "uint256",
                    "name": "",
                    "type": "uint256"
                }
            ],
            "name": "isAnExistingFarmer",
            "outputs": [
                {
                    "internalType": "bool",
                    "name": "",
                    "type": "bool"
                }
            ],
            "stateMutability": "view",
            "type": "function",
            "constant": true
        },
        {
            "inputs": [
                {
                    "internalType": "address",
                    "name": "",
                    "type": "address"
                }
            ],
            "name": "isApprovedForMilkVending",
            "outputs": [
                {
                    "internalType": "bool",
                    "name": "",
                    "type": "bool"
                }
            ],
            "stateMutability": "view",
            "type": "function",
            "constant": true
        },
        {
            "inputs": [
                {
                    "internalType": "address",
                    "name": "",
                    "type": "address"
                }
            ],
            "name": "isFarmerListed",
            "outputs": [
                {
                    "internalType": "bool",
                    "name": "",
                    "type": "bool"
                }
            ],
            "stateMutability": "view",
            "type": "function",
            "constant": true
        },
        {
            "inputs": [
                {
                    "internalType": "address",
                    "name": "",
                    "type": "address"
                }
            ],
            "name": "isVendorListed",
            "outputs": [
                {
                    "internalType": "bool",
                    "name": "",
                    "type": "bool"
                }
            ],
            "stateMutability": "view",
            "type": "function",
            "constant": true
        },
        {
            "inputs": [
                {
                    "internalType": "uint256",
                    "name": "",
                    "type": "uint256"
                }
            ],
            "name": "milkDeliveries",
            "outputs": [
                {
                    "internalType": "address payable",
                    "name": "vendor",
                    "type": "address"
                },
                {
                    "internalType": "uint256",
                    "name": "id",
                    "type": "uint256"
                },
                {
                    "internalType": "uint256",
                    "name": "date",
                    "type": "uint256"
                },
                {
                    "internalType": "uint256",
                    "name": "quantity",
                    "type": "uint256"
                },
                {
                    "internalType": "uint256",
                    "name": "farmerId",
                    "type": "uint256"
                },
                {
                    "internalType": "enum MilkDelivery.MILK_QUALITY_TYPE",
                    "name": "milkQualityType",
                    "type": "uint8"
                }
            ],
            "stateMutability": "view",
            "type": "function",
            "constant": true
        },
        {
            "inputs": [],
            "name": "milkQualityType",
            "outputs": [
                {
                    "internalType": "enum MilkDelivery.MILK_QUALITY_TYPE",
                    "name": "",
                    "type": "uint8"
                }
            ],
            "stateMutability": "view",
            "type": "function",
            "constant": true
        },
        {
            "inputs": [],
            "name": "owner",
            "outputs": [
                {
                    "internalType": "address",
                    "name": "",
                    "type": "address"
                }
            ],
            "stateMutability": "view",
            "type": "function",
            "constant": true
        },
        {
            "inputs": [],
            "name": "renounceOwnership",
            "outputs": [],
            "stateMutability": "nonpayable",
            "type": "function"
        },
        {
            "inputs": [
                {
                    "internalType": "bytes32",
                    "name": "role",
                    "type": "bytes32"
                },
                {
                    "internalType": "address",
                    "name": "account",
                    "type": "address"
                }
            ],
            "name": "renounceRole",
            "outputs": [],
            "stateMutability": "nonpayable",
            "type": "function"
        },
        {
            "inputs": [
                {
                    "internalType": "bytes32",
                    "name": "role",
                    "type": "bytes32"
                },
                {
                    "internalType": "address",
                    "name": "account",
                    "type": "address"
                }
            ],
            "name": "revokeRole",
            "outputs": [],
            "stateMutability": "nonpayable",
            "type": "function"
        },
        {
            "inputs": [
                {
                    "internalType": "bytes4",
                    "name": "interfaceId",
                    "type": "bytes4"
                }
            ],
            "name": "supportsInterface",
            "outputs": [
                {
                    "internalType": "bool",
                    "name": "",
                    "type": "bool"
                }
            ],
            "stateMutability": "view",
            "type": "function",
            "constant": true
        },
        {
            "inputs": [],
            "name": "totalApprovedVendors",
            "outputs": [
                {
                    "internalType": "uint256",
                    "name": "",
                    "type": "uint256"
                }
            ],
            "stateMutability": "view",
            "type": "function",
            "constant": true
        },
        {
            "inputs": [],
            "name": "totalDeliveries",
            "outputs": [
                {
                    "internalType": "uint256",
                    "name": "",
                    "type": "uint256"
                }
            ],
            "stateMutability": "view",
            "type": "function",
            "constant": true
        },
        {
            "inputs": [],
            "name": "totalFarmers",
            "outputs": [
                {
                    "internalType": "uint256",
                    "name": "",
                    "type": "uint256"
                }
            ],
            "stateMutability": "view",
            "type": "function",
            "constant": true
        },
        {
            "inputs": [],
            "name": "totalQuantities",
            "outputs": [
                {
                    "internalType": "uint256",
                    "name": "",
                    "type": "uint256"
                }
            ],
            "stateMutability": "view",
            "type": "function",
            "constant": true
        },
        {
            "inputs": [],
            "name": "totalVendors",
            "outputs": [
                {
                    "internalType": "uint256",
                    "name": "",
                    "type": "uint256"
                }
            ],
            "stateMutability": "view",
            "type": "function",
            "constant": true
        },
        {
            "inputs": [
                {
                    "internalType": "address",
                    "name": "newOwner",
                    "type": "address"
                }
            ],
            "name": "transferOwnership",
            "outputs": [],
            "stateMutability": "nonpayable",
            "type": "function"
        },
        {
            "inputs": [
                {
                    "internalType": "uint256",
                    "name": "",
                    "type": "uint256"
                }
            ],
            "name": "vendorById",
            "outputs": [
                {
                    "internalType": "uint256",
                    "name": "id",
                    "type": "uint256"
                },
                {
                    "internalType": "string",
                    "name": "milkFactory",
                    "type": "string"
                },
                {
                    "internalType": "string",
                    "name": "name",
                    "type": "string"
                },
                {
                    "internalType": "string",
                    "name": "email",
                    "type": "string"
                },
                {
                    "internalType": "address payable",
                    "name": "vendorAddress",
                    "type": "address"
                },
                {
                    "internalType": "uint256",
                    "name": "createdAt",
                    "type": "uint256"
                }
            ],
            "stateMutability": "view",
            "type": "function",
            "constant": true
        },
        {
            "inputs": [
                {
                    "internalType": "address",
                    "name": "",
                    "type": "address"
                },
                {
                    "internalType": "uint256",
                    "name": "",
                    "type": "uint256"
                }
            ],
            "name": "vendorQuantityByDate",
            "outputs": [
                {
                    "internalType": "uint256",
                    "name": "",
                    "type": "uint256"
                }
            ],
            "stateMutability": "view",
            "type": "function",
            "constant": true
        },
        {
            "inputs": [
                {
                    "internalType": "uint256",
                    "name": "",
                    "type": "uint256"
                }
            ],
            "name": "vendors",
            "outputs": [
                {
                    "internalType": "uint256",
                    "name": "id",
                    "type": "uint256"
                },
                {
                    "internalType": "string",
                    "name": "milkFactory",
                    "type": "string"
                },
                {
                    "internalType": "string",
                    "name": "name",
                    "type": "string"
                },
                {
                    "internalType": "string",
                    "name": "email",
                    "type": "string"
                },
                {
                    "internalType": "address payable",
                    "name": "vendorAddress",
                    "type": "address"
                },
                {
                    "internalType": "uint256",
                    "name": "createdAt",
                    "type": "uint256"
                }
            ],
            "stateMutability": "view",
            "type": "function",
            "constant": true
        },
        {
            "inputs": [
                {
                    "internalType": "address",
                    "name": "",
                    "type": "address"
                }
            ],
            "name": "vendorsByUser",
            "outputs": [
                {
                    "internalType": "uint256",
                    "name": "id",
                    "type": "uint256"
                },
                {
                    "internalType": "string",
                    "name": "milkFactory",
                    "type": "string"
                },
                {
                    "internalType": "string",
                    "name": "name",
                    "type": "string"
                },
                {
                    "internalType": "string",
                    "name": "email",
                    "type": "string"
                },
                {
                    "internalType": "address payable",
                    "name": "vendorAddress",
                    "type": "address"
                },
                {
                    "internalType": "uint256",
                    "name": "createdAt",
                    "type": "uint256"
                }
            ],
            "stateMutability": "view",
            "type": "function",
            "constant": true
        },
        {
            "inputs": [
                {
                    "internalType": "address",
                    "name": "_vendor",
                    "type": "address"
                }
            ],
            "name": "approveVendor",
            "outputs": [
                {
                    "internalType": "bool",
                    "name": "",
                    "type": "bool"
                }
            ],
            "stateMutability": "nonpayable",
            "type": "function"
        },
        {
            "inputs": [
                {
                    "internalType": "address",
                    "name": "_newVendor",
                    "type": "address"
                },
                {
                    "internalType": "string",
                    "name": "_milkFactory",
                    "type": "string"
                },
                {
                    "internalType": "string",
                    "name": "_name",
                    "type": "string"
                },
                {
                    "internalType": "string",
                    "name": "_email",
                    "type": "string"
                }
            ],
            "name": "listNewVendor",
            "outputs": [
                {
                    "internalType": "bool",
                    "name": "",
                    "type": "bool"
                }
            ],
            "stateMutability": "nonpayable",
            "type": "function"
        },
        {
            "inputs": [
                {
                    "internalType": "address",
                    "name": "_vendor",
                    "type": "address"
                },
                {
                    "internalType": "uint256",
                    "name": "_date",
                    "type": "uint256"
                }
            ],
            "name": "getVendorQuantityByDate",
            "outputs": [
                {
                    "internalType": "uint256",
                    "name": "",
                    "type": "uint256"
                }
            ],
            "stateMutability": "view",
            "type": "function",
            "constant": true
        },
        {
            "inputs": [
                {
                    "internalType": "uint256",
                    "name": "_quantity",
                    "type": "uint256"
                },
                {
                    "internalType": "enum MilkDelivery.MILK_QUALITY_TYPE",
                    "name": "_qualityType",
                    "type": "uint8"
                },
                {
                    "internalType": "uint256",
                    "name": "_farmerId",
                    "type": "uint256"
                }
            ],
            "name": "recordNewDelivery",
            "outputs": [
                {
                    "internalType": "bool",
                    "name": "",
                    "type": "bool"
                }
            ],
            "stateMutability": "nonpayable",
            "type": "function"
        },
        {
            "inputs": [
                {
                    "internalType": "address",
                    "name": "_vendor",
                    "type": "address"
                }
            ],
            "name": "delistVendor",
            "outputs": [
                {
                    "internalType": "bool",
                    "name": "",
                    "type": "bool"
                }
            ],
            "stateMutability": "nonpayable",
            "type": "function"
        },
        {
            "inputs": [
                {
                    "internalType": "address",
                    "name": "_vendor",
                    "type": "address"
                }
            ],
            "name": "revokeVendorApproval",
            "outputs": [
                {
                    "internalType": "bool",
                    "name": "",
                    "type": "bool"
                }
            ],
            "stateMutability": "nonpayable",
            "type": "function"
        },
        {
            "inputs": [],
            "name": "totalQuantity",
            "outputs": [
                {
                    "internalType": "uint256",
                    "name": "",
                    "type": "uint256"
                }
            ],
            "stateMutability": "view",
            "type": "function",
            "constant": true
        },
        {
            "inputs": [],
            "name": "vendorList",
            "outputs": [
                {
                    "components": [
                        {
                            "internalType": "uint256",
                            "name": "id",
                            "type": "uint256"
                        },
                        {
                            "internalType": "string",
                            "name": "milkFactory",
                            "type": "string"
                        },
                        {
                            "internalType": "string",
                            "name": "name",
                            "type": "string"
                        },
                        {
                            "internalType": "string",
                            "name": "email",
                            "type": "string"
                        },
                        {
                            "internalType": "address payable",
                            "name": "vendorAddress",
                            "type": "address"
                        },
                        {
                            "internalType": "uint256",
                            "name": "createdAt",
                            "type": "uint256"
                        }
                    ],
                    "internalType": "struct MilkDelivery.Vendor[]",
                    "name": "",
                    "type": "tuple[]"
                }
            ],
            "stateMutability": "view",
            "type": "function",
            "constant": true
        },
        {
            "inputs": [],
            "name": "listAllDeliveryItems",
            "outputs": [
                {
                    "components": [
                        {
                            "internalType": "address payable",
                            "name": "vendor",
                            "type": "address"
                        },
                        {
                            "internalType": "uint256",
                            "name": "id",
                            "type": "uint256"
                        },
                        {
                            "internalType": "uint256",
                            "name": "date",
                            "type": "uint256"
                        },
                        {
                            "internalType": "uint256",
                            "name": "quantity",
                            "type": "uint256"
                        },
                        {
                            "internalType": "uint256",
                            "name": "farmerId",
                            "type": "uint256"
                        },
                        {
                            "internalType": "enum MilkDelivery.MILK_QUALITY_TYPE",
                            "name": "milkQualityType",
                            "type": "uint8"
                        }
                    ],
                    "internalType": "struct MilkDelivery.MilkDeliveryItem[]",
                    "name": "",
                    "type": "tuple[]"
                }
            ],
            "stateMutability": "view",
            "type": "function",
            "constant": true
        },
        {
            "inputs": [],
            "name": "getTotalDeliveries",
            "outputs": [
                {
                    "internalType": "uint256",
                    "name": "",
                    "type": "uint256"
                }
            ],
            "stateMutability": "view",
            "type": "function",
            "constant": true
        },
        {
            "inputs": [
                {
                    "internalType": "address",
                    "name": "_farmerAddress",
                    "type": "address"
                },
                {
                    "internalType": "string",
                    "name": "_firstName",
                    "type": "string"
                },
                {
                    "internalType": "string",
                    "name": "_lastName",
                    "type": "string"
                },
                {
                    "internalType": "string",
                    "name": "_location",
                    "type": "string"
                },
                {
                    "internalType": "string",
                    "name": "_phoneNumber",
                    "type": "string"
                },
                {
                    "internalType": "string",
                    "name": "_email",
                    "type": "string"
                },
                {
                    "internalType": "int256",
                    "name": "_idNumber",
                    "type": "int256"
                }
            ],
            "name": "addNewFarmer",
            "outputs": [
                {
                    "internalType": "bool",
                    "name": "success",
                    "type": "bool"
                }
            ],
            "stateMutability": "nonpayable",
            "type": "function"
        },
        {
            "inputs": [
                {
                    "internalType": "uint256",
                    "name": "_farmerId",
                    "type": "uint256"
                }
            ],
            "name": "getFarmerById",
            "outputs": [
                {
                    "components": [
                        {
                            "internalType": "uint256",
                            "name": "id",
                            "type": "uint256"
                        },
                        {
                            "internalType": "string",
                            "name": "firstName",
                            "type": "string"
                        },
                        {
                            "internalType": "string",
                            "name": "lastName",
                            "type": "string"
                        },
                        {
                            "internalType": "string",
                            "name": "email",
                            "type": "string"
                        },
                        {
                            "internalType": "string",
                            "name": "phoneNumber",
                            "type": "string"
                        },
                        {
                            "internalType": "int256",
                            "name": "idNumber",
                            "type": "int256"
                        },
                        {
                            "internalType": "string",
                            "name": "location",
                            "type": "string"
                        },
                        {
                            "internalType": "address payable",
                            "name": "farmerAddress",
                            "type": "address"
                        },
                        {
                            "internalType": "uint256",
                            "name": "createdAt",
                            "type": "uint256"
                        }
                    ],
                    "internalType": "struct MilkDelivery.Farmer",
                    "name": "",
                    "type": "tuple"
                }
            ],
            "stateMutability": "view",
            "type": "function",
            "constant": true
        },
        {
            "inputs": [],
            "name": "listAllFarmers",
            "outputs": [
                {
                    "components": [
                        {
                            "internalType": "uint256",
                            "name": "id",
                            "type": "uint256"
                        },
                        {
                            "internalType": "string",
                            "name": "firstName",
                            "type": "string"
                        },
                        {
                            "internalType": "string",
                            "name": "lastName",
                            "type": "string"
                        },
                        {
                            "internalType": "string",
                            "name": "email",
                            "type": "string"
                        },
                        {
                            "internalType": "string",
                            "name": "phoneNumber",
                            "type": "string"
                        },
                        {
                            "internalType": "int256",
                            "name": "idNumber",
                            "type": "int256"
                        },
                        {
                            "internalType": "string",
                            "name": "location",
                            "type": "string"
                        },
                        {
                            "internalType": "address payable",
                            "name": "farmerAddress",
                            "type": "address"
                        },
                        {
                            "internalType": "uint256",
                            "name": "createdAt",
                            "type": "uint256"
                        }
                    ],
                    "internalType": "struct MilkDelivery.Farmer[]",
                    "name": "",
                    "type": "tuple[]"
                }
            ],
            "stateMutability": "view",
            "type": "function",
            "constant": true
        }
    ],
    "bytecode": "0x608060405260006006556000600755600060085560006009556000600a553480156200002a57600080fd5b5062000036336200003c565b6200008c565b600080546001600160a01b038381166001600160a01b0319831681178455604051919092169283917f8be0079c531659141344cd1fd0a4f28419497f9722a3daafe3b4186f6b6457e09190a35050565b613527806200009c6000396000f3fe608060405234801561001057600080fd5b50600436106102695760003560e01c80638da5cb5b11610151578063cdf8ec98116100c3578063df627c2a11610087578063df627c2a14610617578063e128e23414610667578063e1efa47314610670578063ef4c797014610683578063f2fde38b1461068c578063f8a529231461069f57600080fd5b8063cdf8ec98146105b6578063d15d79ae146105c9578063d547741f146105dc578063db0b81bb146105ef578063ddc00f3b1461060257600080fd5b8063a3246c7711610115578063a3246c7714610520578063a420623b14610543578063b489a18e14610566578063c616f4121461057b578063c70b3b4c14610583578063c824e0881461058b57600080fd5b80638da5cb5b146104d857806391d14854146104e957806398faad55146104fc578063a08d986d14610505578063a217fddf1461051857600080fd5b806361aa839e116101ea578063715018a6116101ae578063715018a614610424578063809d35db1461042c57806383377d101461044f578063868947c91461047757806386f22dbd146104a25780638afdd669146104c557600080fd5b806361aa839e146103745780636c1c13a8146103945780636ea8b002146103ae578063707be4ac146103c15780637129bbb71461041157600080fd5b80633c4f0c29116102315780633c4f0c29146102f95780633df0acc91461030e5780634ca5d1421461033357806354f97a61146103585780636017509b1461036b57600080fd5b806301ffc9a71461026e5780630c59d63914610296578063248a9ca3146102ad5780632f2ff15d146102d157806336568abe146102e6575b600080fd5b61028161027c366004612be1565b6106b2565b60405190151581526020015b60405180910390f35b61029f60085481565b60405190815260200161028d565b61029f6102bb366004612c0b565b6000908152600160208190526040909120015490565b6102e46102df366004612c40565b6106e9565b005b6102e46102f4366004612c40565b610715565b610301610798565b60405161028d9190612ca4565b61032161031c366004612d31565b610866565b60405161028d96959493929190612da8565b610346610341366004612c0b565b610a3d565b60405161028d96959493929190612e06565b610281610366366004612d31565b610a90565b61029f600a5481565b610387610382366004612c0b565b610b99565b60405161028d9190612f0e565b6005546103a19060ff1681565b60405161028d9190612f21565b6102816103bc366004612d31565b610f22565b6103466103cf366004612c0b565b6016602052600090815260409020805460018201546002830154600384015460048501546005909501546001600160a01b039094169492939192909160ff1686565b61029f61041f366004612f2f565b611006565b6102e4611044565b61028161043a366004612c0b565b60186020526000908152604090205460ff1681565b61046261045d366004612c0b565b6110aa565b60405161028d99989796959493929190612f59565b61048a610485366004612c0b565b6113a3565b6040516001600160a01b03909116815260200161028d565b6102816104b0366004612d31565b600f6020526000908152604090205460ff1681565b6104626104d3366004612c0b565b6113cd565b6000546001600160a01b031661048a565b6102816104f7366004612c40565b611402565b61029f60065481565b610321610513366004612c0b565b61142d565b61029f600081565b61028161052e366004612d31565b60146020526000908152604090205460ff1681565b610281610551366004612d31565b60136020526000908152604090205460ff1681565b61056e611462565b60405161028d9190612fec565b60075461029f565b60085461029f565b61029f610599366004612f2f565b601160209081526000928352604080842090915290825290205481565b6102816105c43660046130f1565b6117ca565b6102816105d73660046131dd565b611b31565b6102e46105ea366004612c40565b611f05565b6103216105fd366004612c0b565b611f2c565b61060a611f4e565b60405161028d9190613276565b610346610625366004612d31565b6010602052600090815260409020805460018201546002830154600384015460048501546005909501546001600160a01b039094169492939192909160ff1686565b61029f60075481565b61028161067e36600461333f565b612187565b61029f60095481565b6102e461069a366004612d31565b612639565b6102816106ad366004612d31565b612704565b60006001600160e01b03198216637965db0b60e01b14806106e357506301ffc9a760e01b6001600160e01b03198316145b92915050565b600082815260016020819052604090912001546107068133612807565b610710838361286b565b505050565b6001600160a01b038116331461078a5760405162461bcd60e51b815260206004820152602f60248201527f416363657373436f6e74726f6c3a2063616e206f6e6c792072656e6f756e636560448201526e103937b632b9903337b91039b2b63360891b60648201526084015b60405180910390fd5b61079482826128d6565b5050565b6060600c805480602002602001604051908101604052809291908181526020016000905b8282101561085d5760008481526020908190206040805160c0810182526006860290920180546001600160a01b03168352600181015493830193909352600283015490820152600380830154606083015260048301546080830152600583015491929160a084019160ff9091169081111561083957610839612c6c565b600381111561084a5761084a612c6c565b81525050815260200190600101906107bc565b50505050905090565b601260205260009081526040902080546001820180549192916108889061337b565b80601f01602080910402602001604051908101604052809291908181526020018280546108b49061337b565b80156109015780601f106108d657610100808354040283529160200191610901565b820191906000526020600020905b8154815290600101906020018083116108e457829003601f168201915b5050505050908060020180546109169061337b565b80601f01602080910402602001604051908101604052809291908181526020018280546109429061337b565b801561098f5780601f106109645761010080835404028352916020019161098f565b820191906000526020600020905b81548152906001019060200180831161097257829003601f168201915b5050505050908060030180546109a49061337b565b80601f01602080910402602001604051908101604052809291908181526020018280546109d09061337b565b8015610a1d5780601f106109f257610100808354040283529160200191610a1d565b820191906000526020600020905b815481529060010190602001808311610a0057829003601f168201915b50505050600483015460059093015491926001600160a01b031691905086565b600c8181548110610a4d57600080fd5b60009182526020909120600690910201805460018201546002830154600384015460048501546005909501546001600160a01b0390941695509193909260ff1686565b6000816001600160a01b038116610ab95760405162461bcd60e51b8152600401610781906133af565b6001600160a01b0381166000908152600f602052604090205460ff161515600114610b1c5760405162461bcd60e51b815260206004820152601360248201527215995b991bdc88139bdd08105c1c1c9bdd9959606a1b6044820152606401610781565b6001600160a01b0383166000908152600f60205260409020805460ff19169055600954610b4a90600161293d565b60095560405142815233906001600160a01b038516907fb5a2fcb0e25435e1bc8c82c0624a166cb5281d2614da6819cb253686224078e9906020015b60405180910390a3600191505b50919050565b610bf16040518061012001604052806000815260200160608152602001606081526020016060815260200160608152602001600081526020016060815260200160006001600160a01b03168152602001600081525090565b601760008381526020019081526020016000206040518061012001604052908160008201548152602001600182018054610c2a9061337b565b80601f0160208091040260200160405190810160405280929190818152602001828054610c569061337b565b8015610ca35780601f10610c7857610100808354040283529160200191610ca3565b820191906000526020600020905b815481529060010190602001808311610c8657829003601f168201915b50505050508152602001600282018054610cbc9061337b565b80601f0160208091040260200160405190810160405280929190818152602001828054610ce89061337b565b8015610d355780601f10610d0a57610100808354040283529160200191610d35565b820191906000526020600020905b815481529060010190602001808311610d1857829003601f168201915b50505050508152602001600382018054610d4e9061337b565b80601f0160208091040260200160405190810160405280929190818152602001828054610d7a9061337b565b8015610dc75780601f10610d9c57610100808354040283529160200191610dc7565b820191906000526020600020905b815481529060010190602001808311610daa57829003601f168201915b50505050508152602001600482018054610de09061337b565b80601f0160208091040260200160405190810160405280929190818152602001828054610e0c9061337b565b8015610e595780601f10610e2e57610100808354040283529160200191610e59565b820191906000526020600020905b815481529060010190602001808311610e3c57829003601f168201915b5050505050815260200160058201548152602001600682018054610e7c9061337b565b80601f0160208091040260200160405190810160405280929190818152602001828054610ea89061337b565b8015610ef55780601f10610eca57610100808354040283529160200191610ef5565b820191906000526020600020905b815481529060010190602001808311610ed857829003601f168201915b505050918352505060078201546001600160a01b0316602082015260089091015460409091015292915050565b6000816001600160a01b038116610f4b5760405162461bcd60e51b8152600401610781906133af565b6001600160a01b03811660009081526013602052604090205460ff161515600114610fb15760405162461bcd60e51b8152602060048201526016602482015275135a5b1ac815995b991bdc881b9bdd081b1a5cdd195960521b6044820152606401610781565b6001600160a01b03831660008181526013602052604090819020805460ff19169055513391907fc1519c40dfbaa692a1c12680413675b407827248b9252fa6cd30611669cf8abf90610b869042815260200190565b60006001600160a01b03831661101b57600080fd5b506001600160a01b03919091166000908152601160209081526040808320938352929052205490565b6000546001600160a01b0316331461109e5760405162461bcd60e51b815260206004820181905260248201527f4f776e61626c653a2063616c6c6572206973206e6f7420746865206f776e65726044820152606401610781565b6110a86000612950565b565b601760205260009081526040902080546001820180549192916110cc9061337b565b80601f01602080910402602001604051908101604052809291908181526020018280546110f89061337b565b80156111455780601f1061111a57610100808354040283529160200191611145565b820191906000526020600020905b81548152906001019060200180831161112857829003601f168201915b50505050509080600201805461115a9061337b565b80601f01602080910402602001604051908101604052809291908181526020018280546111869061337b565b80156111d35780601f106111a8576101008083540402835291602001916111d3565b820191906000526020600020905b8154815290600101906020018083116111b657829003601f168201915b5050505050908060030180546111e89061337b565b80601f01602080910402602001604051908101604052809291908181526020018280546112149061337b565b80156112615780601f1061123657610100808354040283529160200191611261565b820191906000526020600020905b81548152906001019060200180831161124457829003601f168201915b5050505050908060040180546112769061337b565b80601f01602080910402602001604051908101604052809291908181526020018280546112a29061337b565b80156112ef5780601f106112c4576101008083540402835291602001916112ef565b820191906000526020600020905b8154815290600101906020018083116112d257829003601f168201915b50505050509080600501549080600601805461130a9061337b565b80601f01602080910402602001604051908101604052809291908181526020018280546113369061337b565b80156113835780601f1061135857610100808354040283529160200191611383565b820191906000526020600020905b81548152906001019060200180831161136657829003601f168201915b50505050600783015460089093015491926001600160a01b031691905089565b600d81815481106113b357600080fd5b6000918252602090912001546001600160a01b0316905081565b600e81815481106113dd57600080fd5b600091825260209091206009909102018054600182018054919350906110cc9061337b565b60009182526001602090815260408084206001600160a01b0393909316845291905290205460ff1690565b600b818154811061143d57600080fd5b600091825260209091206006909102018054600182018054919350906108889061337b565b6060600e805480602002602001604051908101604052809291908181526020016000905b8282101561085d578382906000526020600020906009020160405180610120016040529081600082015481526020016001820180546114c49061337b565b80601f01602080910402602001604051908101604052809291908181526020018280546114f09061337b565b801561153d5780601f106115125761010080835404028352916020019161153d565b820191906000526020600020905b81548152906001019060200180831161152057829003601f168201915b505050505081526020016002820180546115569061337b565b80601f01602080910402602001604051908101604052809291908181526020018280546115829061337b565b80156115cf5780601f106115a4576101008083540402835291602001916115cf565b820191906000526020600020905b8154815290600101906020018083116115b257829003601f168201915b505050505081526020016003820180546115e89061337b565b80601f01602080910402602001604051908101604052809291908181526020018280546116149061337b565b80156116615780601f1061163657610100808354040283529160200191611661565b820191906000526020600020905b81548152906001019060200180831161164457829003601f168201915b5050505050815260200160048201805461167a9061337b565b80601f01602080910402602001604051908101604052809291908181526020018280546116a69061337b565b80156116f35780601f106116c8576101008083540402835291602001916116f3565b820191906000526020600020905b8154815290600101906020018083116116d657829003601f168201915b50505050508152602001600582015481526020016006820180546117169061337b565b80601f01602080910402602001604051908101604052809291908181526020018280546117429061337b565b801561178f5780601f106117645761010080835404028352916020019161178f565b820191906000526020600020905b81548152906001019060200180831161177257829003601f168201915b505050918352505060078201546001600160a01b03166020808301919091526008909201546040909101529082526001929092019101611486565b6001600160a01b038716600090815260146020526040812054889060ff161561182d5760405162461bcd60e51b8152602060048201526015602482015274151a1a5cc811985c9b595c881a5cc8131a5cdd1959605a1b6044820152606401610781565b61183b600480546001019055565b600061184660045490565b905060006040518061012001604052808381526020018b81526020018a81526020018781526020018881526020018681526020018981526020018c6001600160a01b031681526020014281525090506118ab6001600a546129a090919063ffffffff16565b600a556001600160a01b038b166000908152601460209081526040808320805460ff1990811660019081179092558685526018845291842080549092168117909155600e80549182018155909252825160099092027fbb7b4a454dc3493923482f07822329ed19e8244eff582cc204f8554c3620c3fd810192835583820151805185949361195d937fbb7b4a454dc3493923482f07822329ed19e8244eff582cc204f8554c3620c3fe01920190612b48565b5060408201518051611979916002840191602090910190612b48565b5060608201518051611995916003840191602090910190612b48565b50608082015180516119b1916004840191602090910190612b48565b5060a0820151600582015560c082015180516119d7916006840191602090910190612b48565b5060e08201516007820180546001600160a01b0319166001600160a01b03909216919091179055610100909101516008909101556000828152601760209081526040909120825181558282015180518493611a39926001850192910190612b48565b5060408201518051611a55916002840191602090910190612b48565b5060608201518051611a71916003840191602090910190612b48565b5060808201518051611a8d916004840191602090910190612b48565b5060a0820151600582015560c08201518051611ab3916006840191602090910190612b48565b5060e08201516007820180546001600160a01b0319166001600160a01b039283161790556101009092015160089091015560408051848152426020820152918d16917fd638dce2a08f79e2e94ab494351b6d24a5103107d73c6a04ac5db25fb3c41a17910160405180910390a25060019a9950505050505050505050565b6000846001600160a01b038116611b5a5760405162461bcd60e51b8152600401610781906133af565b6001600160a01b03811660009081526013602052604090205460ff1615611bbb5760405162461bcd60e51b8152602060048201526015602482015274135a5b1ac815995b991bdc881a5cc81b1a5cdd1959605a1b6044820152606401610781565b6000855111611c0c5760405162461bcd60e51b815260206004820152601f60248201527f4e6577204d696c6b2056656e646f72203d3e204e756c6c20466163746f7279006044820152606401610781565b6000845111611c695760405162461bcd60e51b815260206004820152602360248201527f4e6577204d696c6b2056656e646f72203d3e204e756c6c2056656e646f72204e604482015262616d6560e81b6064820152608401610781565b6000835111611cc65760405162461bcd60e51b8152602060048201526024808201527f4e6577204d696c6b2056656e646f72203d3e204e756c6c2056656e646f7220456044820152631b585a5b60e21b6064820152608401610781565b611cd4600380546001019055565b6000611cdf60035490565b6040805160c08101825282815260208082018a8152928201899052606082018890526001600160a01b038b1660808301524260a0830152600b8054600181018255600091909152825160069091027f0175b7a638427703f0dbe7bb9bbf987a2551717b34e79f33b5b1008d1fa01db9810191825593518051959650929485949193611d90937f0175b7a638427703f0dbe7bb9bbf987a2551717b34e79f33b5b1008d1fa01dba909301920190612b48565b5060408201518051611dac916002840191602090910190612b48565b5060608201518051611dc8916003840191602090910190612b48565b5060808201516004820180546001600160a01b0319166001600160a01b0390921691909117905560a090910151600590910155336000908152601260209081526040909120825181558282015180518493611e2a926001850192910190612b48565b5060408201518051611e46916002840191602090910190612b48565b5060608201518051611e62916003840191602090910190612b48565b5060808201516004820180546001600160a01b0319166001600160a01b0392831617905560a09092015160059091015588166000908152601360205260409020805460ff19166001908117909155600654611ebc916129a0565b600655604051429033906001600160a01b038b16907ff2ec7d1becaa3243fd29d0fc48bde1dd19c594104b9ce00eb188b9797face12d90600090a4506001979650505050505050565b60008281526001602081905260409091200154611f228133612807565b61071083836128d6565b601560205260009081526040902080546001820180549192916108889061337b565b6060600b805480602002602001604051908101604052809291908181526020016000905b8282101561085d57838290600052602060002090600602016040518060c001604052908160008201548152602001600182018054611faf9061337b565b80601f0160208091040260200160405190810160405280929190818152602001828054611fdb9061337b565b80156120285780601f10611ffd57610100808354040283529160200191612028565b820191906000526020600020905b81548152906001019060200180831161200b57829003601f168201915b505050505081526020016002820180546120419061337b565b80601f016020809104026020016040519081016040528092919081815260200182805461206d9061337b565b80156120ba5780601f1061208f576101008083540402835291602001916120ba565b820191906000526020600020905b81548152906001019060200180831161209d57829003601f168201915b505050505081526020016003820180546120d39061337b565b80601f01602080910402602001604051908101604052809291908181526020018280546120ff9061337b565b801561214c5780601f106121215761010080835404028352916020019161214c565b820191906000526020600020905b81548152906001019060200180831161212f57829003601f168201915b505050918352505060048201546001600160a01b03166020808301919091526005909201546040909101529082526001929092019101611f72565b600033806121a75760405162461bcd60e51b8152600401610781906133af565b6001600160a01b03811660009081526013602052604090205460ff16151560011461220d5760405162461bcd60e51b8152602060048201526016602482015275135a5b1ac815995b991bdc881b9bdd081b1a5cdd195960521b6044820152606401610781565b338061222b5760405162461bcd60e51b8152600401610781906133af565b6001600160a01b0381166000908152600f602052604090205460ff16151560011461228e5760405162461bcd60e51b815260206004820152601360248201527215995b991bdc88139bdd08105c1c1c9bdd9959606a1b6044820152606401610781565b600084815260186020526040902054849060ff1615156001146122f35760405162461bcd60e51b815260206004820152601860248201527f4661726d657220494420646f6573206e6f7420657869737400000000000000006044820152606401610781565b866000036123615760405162461bcd60e51b815260206004820152603560248201527f4e6577204d696c6b2044656c6976657279204974656d3a203d3e205a65726f20604482015274145d585b9d1a5d1e48139bdd081058d8d95c1d1959605a1b6064820152608401610781565b61236f600280546001019055565b600061237a60025490565b905060006040518060c00160405280336001600160a01b031681526020018381526020014281526020018a81526020018881526020018960038111156123c2576123c2612c6c565b9052600c80546001808201835560009290925282517fdf6966c971051c3d54ec59162606531493a51404a002842f56009d7e5cf4a8c7600690920291820180546001600160a01b0319166001600160a01b0390921691909117815560208401517fdf6966c971051c3d54ec59162606531493a51404a002842f56009d7e5cf4a8c883015560408401517fdf6966c971051c3d54ec59162606531493a51404a002842f56009d7e5cf4a8c983015560608401517fdf6966c971051c3d54ec59162606531493a51404a002842f56009d7e5cf4a8ca83015560808401517fdf6966c971051c3d54ec59162606531493a51404a002842f56009d7e5cf4a8cb83015560a08401517fdf6966c971051c3d54ec59162606531493a51404a002842f56009d7e5cf4a8cc909201805494955085949193909160ff19169083600381111561250c5761250c612c6c565b02179055505033600090815260106020908152604091829020845181546001600160a01b0319166001600160a01b039091161781559084015160018083019190915591840151600282015560608401516003808301919091556080850151600483015560a085015160058301805487965093949193909260ff199091169190849081111561259c5761259c612c6c565b02179055505033600090815260116020908152604080832042845290915290208a9055506008546125ce9060016129a0565b6008556007546125de908a6129a0565b6007558760038111156125f3576125f3612c6c565b6040514281528a9033907f85f3f3a7f3ef4c556d64244b4b4b8bd8a4d3977d27b6f270cafe93466f8001649060200160405180910390a450600198975050505050505050565b6000546001600160a01b031633146126935760405162461bcd60e51b815260206004820181905260248201527f4f776e61626c653a2063616c6c6572206973206e6f7420746865206f776e65726044820152606401610781565b6001600160a01b0381166126f85760405162461bcd60e51b815260206004820152602660248201527f4f776e61626c653a206e6577206f776e657220697320746865207a65726f206160448201526564647265737360d01b6064820152608401610781565b61270181612950565b50565b6000816001600160a01b03811661272d5760405162461bcd60e51b8152600401610781906133af565b6001600160a01b0381166000908152600f602052604090205460ff16156127885760405162461bcd60e51b815260206004820152600f60248201526e15995b991bdc88105c1c1c9bdd9959608a1b6044820152606401610781565b6001600160a01b0383166000818152600f60205260408120805460ff19166001908117909155600d8054808301825592527fd7b6990105719101dabeb77144f2a3385c8033acd3af97e9423a695e81ad1eb590910180546001600160a01b0319169092179091556009546127fb916129a0565b60095550600192915050565b6128118282611402565b61079457612829816001600160a01b031660146129ac565b6128348360206129ac565b6040516020016128459291906133d8565b60408051601f198184030181529082905262461bcd60e51b82526107819160040161344d565b6128758282611402565b6107945760008281526001602081815260408084206001600160a01b0386168086529252808420805460ff19169093179092559051339285917f2f8788117e7eff1d82e926ec794901d17c78024a50270940304540a733656f0d9190a45050565b6128e08282611402565b156107945760008281526001602090815260408083206001600160a01b0385168085529252808320805460ff1916905551339285917ff6391f5c32d9c69d2a47ea670b442974b53935d1edc7fd64eb21e047a839171b9190a45050565b60006129498284613476565b9392505050565b600080546001600160a01b038381166001600160a01b0319831681178455604051919092169283917f8be0079c531659141344cd1fd0a4f28419497f9722a3daafe3b4186f6b6457e09190a35050565b6000612949828461348d565b606060006129bb8360026134a5565b6129c690600261348d565b67ffffffffffffffff8111156129de576129de61304e565b6040519080825280601f01601f191660200182016040528015612a08576020820181803683370190505b509050600360fc1b81600081518110612a2357612a236134c4565b60200101906001600160f81b031916908160001a905350600f60fb1b81600181518110612a5257612a526134c4565b60200101906001600160f81b031916908160001a9053506000612a768460026134a5565b612a8190600161348d565b90505b6001811115612af9576f181899199a1a9b1b9c1cb0b131b232b360811b85600f1660108110612ab557612ab56134c4565b1a60f81b828281518110612acb57612acb6134c4565b60200101906001600160f81b031916908160001a90535060049490941c93612af2816134da565b9050612a84565b5083156129495760405162461bcd60e51b815260206004820181905260248201527f537472696e67733a20686578206c656e67746820696e73756666696369656e746044820152606401610781565b828054612b549061337b565b90600052602060002090601f016020900481019282612b765760008555612bbc565b82601f10612b8f57805160ff1916838001178555612bbc565b82800160010185558215612bbc579182015b82811115612bbc578251825591602001919060010190612ba1565b50612bc8929150612bcc565b5090565b5b80821115612bc85760008155600101612bcd565b600060208284031215612bf357600080fd5b81356001600160e01b03198116811461294957600080fd5b600060208284031215612c1d57600080fd5b5035919050565b80356001600160a01b0381168114612c3b57600080fd5b919050565b60008060408385031215612c5357600080fd5b82359150612c6360208401612c24565b90509250929050565b634e487b7160e01b600052602160045260246000fd5b60048110612ca057634e487b7160e01b600052602160045260246000fd5b9052565b602080825282518282018190526000919060409081850190868401855b82811015612d2457815180516001600160a01b0316855286810151878601528581015186860152606080820151908601526080808201519086015260a09081015190612d0f86820183612c82565b505060c0939093019290850190600101612cc1565b5091979650505050505050565b600060208284031215612d4357600080fd5b61294982612c24565b60005b83811015612d67578181015183820152602001612d4f565b83811115612d76576000848401525b50505050565b60008151808452612d94816020860160208601612d4c565b601f01601f19169290920160200192915050565b86815260c060208201526000612dc160c0830188612d7c565b8281036040840152612dd38188612d7c565b90508281036060840152612de78187612d7c565b6001600160a01b03959095166080840152505060a00152949350505050565b6001600160a01b03871681526020810186905260408101859052606081018490526080810183905260c08101612e3f60a0830184612c82565b979650505050505050565b6000610120825184526020830151816020860152612e6a82860182612d7c565b91505060408301518482036040860152612e848282612d7c565b91505060608301518482036060860152612e9e8282612d7c565b91505060808301518482036080860152612eb88282612d7c565b91505060a083015160a085015260c083015184820360c0860152612edc8282612d7c565b91505060e0830151612ef960e08601826001600160a01b03169052565b50610100928301519390920192909252919050565b6020815260006129496020830184612e4a565b602081016106e38284612c82565b60008060408385031215612f4257600080fd5b612f4b83612c24565b946020939093013593505050565b60006101208b8352806020840152612f738184018c612d7c565b90508281036040840152612f87818b612d7c565b90508281036060840152612f9b818a612d7c565b90508281036080840152612faf8189612d7c565b90508660a084015282810360c0840152612fc98187612d7c565b6001600160a01b039590951660e084015250506101000152979650505050505050565b6000602080830181845280855180835260408601915060408160051b870101925083870160005b8281101561304157603f1988860301845261302f858351612e4a565b94509285019290850190600101613013565b5092979650505050505050565b634e487b7160e01b600052604160045260246000fd5b600082601f83011261307557600080fd5b813567ffffffffffffffff808211156130905761309061304e565b604051601f8301601f19908116603f011681019082821181831017156130b8576130b861304e565b816040528381528660208588010111156130d157600080fd5b836020870160208301376000602085830101528094505050505092915050565b600080600080600080600060e0888a03121561310c57600080fd5b61311588612c24565b9650602088013567ffffffffffffffff8082111561313257600080fd5b61313e8b838c01613064565b975060408a013591508082111561315457600080fd5b6131608b838c01613064565b965060608a013591508082111561317657600080fd5b6131828b838c01613064565b955060808a013591508082111561319857600080fd5b6131a48b838c01613064565b945060a08a01359150808211156131ba57600080fd5b506131c78a828b01613064565b92505060c0880135905092959891949750929550565b600080600080608085870312156131f357600080fd5b6131fc85612c24565b9350602085013567ffffffffffffffff8082111561321957600080fd5b61322588838901613064565b9450604087013591508082111561323b57600080fd5b61324788838901613064565b9350606087013591508082111561325d57600080fd5b5061326a87828801613064565b91505092959194509250565b60006020808301818452808551808352604092508286019150828160051b87010184880160005b8381101561333157603f19898403018552815160c08151855288820151818a8701526132cb82870182612d7c565b91505087820151858203898701526132e38282612d7c565b915050606080830151868303828801526132fd8382612d7c565b6080858101516001600160a01b03169089015260a0948501519490970193909352505050938601939086019060010161329d565b509098975050505050505050565b60008060006060848603121561335457600080fd5b8335925060208401356004811061336a57600080fd5b929592945050506040919091013590565b600181811c9082168061338f57607f821691505b602082108103610b9357634e487b7160e01b600052602260045260246000fd5b6020808252600f908201526e496e76616c6964204164647265737360881b604082015260600190565b7f416363657373436f6e74726f6c3a206163636f756e7420000000000000000000815260008351613410816017850160208801612d4c565b7001034b99036b4b9b9b4b733903937b6329607d1b6017918401918201528351613441816028840160208801612d4c565b01602801949350505050565b6020815260006129496020830184612d7c565b634e487b7160e01b600052601160045260246000fd5b60008282101561348857613488613460565b500390565b600082198211156134a0576134a0613460565b500190565b60008160001904831182151516156134bf576134bf613460565b500290565b634e487b7160e01b600052603260045260246000fd5b6000816134e9576134e9613460565b50600019019056fea2646970667358221220f58f63245044090660e3baafe235d1d9a1da931063bd1edef9d1f66748641b9564736f6c634300080d0033",
    "immutableReferences": {},
    "source": "// SPDX-License-Identifier: MIT\r\npragma solidity ^0.8.0;\r\nimport \"@openzeppelin/contracts/access/Ownable.sol\";\r\nimport \"@openzeppelin/contracts/access/AccessControl.sol\";\r\nimport \"@openzeppelin/contracts/utils/math/SafeMath.sol\";\r\nimport \"@openzeppelin/contracts/utils/Counters.sol\";\r\nimport \"./interfaces/MilkDeliveryInterface.sol\";\r\n\r\n/**\r\n  * @title Milk Delivery Contract\r\n  * @dev A smart contract that enables dairy farmers to record their daily produce\r\n */\r\ncontract MilkDelivery is Ownable, AccessControl,MilkDeliveryInterface {\r\n  using SafeMath for uint256;\r\n  using Counters for Counters.Counter;\r\n\r\n  Counters.Counter private milkDeliveryIds; //to help track milk delivery items by ID e.g 1\r\n  Counters.Counter private vendorIds; //to help track vendors by ID e.g 1\r\n  Counters.Counter private farmerIds;\r\n\r\n  enum MILK_QUALITY_TYPE { GOOD, STALE, PERFECT, BAD } //quality types\r\n  MILK_QUALITY_TYPE public milkQualityType; //in order to access the enum via a variable\r\n\r\n  //Vendor struct with vendor particulars/details\r\n  struct Vendor{\r\n    uint id;\r\n    string milkFactory;\r\n    string name;\r\n    string email;\r\n    address payable vendorAddress;\r\n    uint createdAt;\r\n    //bool isApproved;\r\n    //bool isListed;\r\n  }\r\n\r\n  //Delivery struct with delivery item particulars\r\n  struct MilkDeliveryItem{\r\n    address payable vendor;\r\n    uint id;\r\n    uint date;\r\n    uint quantity;\r\n    uint farmerId;\r\n    MILK_QUALITY_TYPE milkQualityType;\r\n  }\r\n\r\n  struct Farmer{\r\n    uint id;\r\n    string firstName;\r\n    string lastName;\r\n    string email;\r\n    string phoneNumber;\r\n    int idNumber;\r\n    string location;\r\n    address payable farmerAddress;\r\n    uint createdAt;\r\n  }\r\n\r\n  uint public totalVendors = 0; //total vendors initialised to 0\r\n  uint public totalQuantities = 0; //keeps track of total milk quantity recorded on-chain\r\n  uint public totalDeliveries = 0; //to handle incrementing of overral milk quantities\r\n  uint public totalApprovedVendors = 0; // shall be incremented and decremented accordingly\r\n\r\n  uint public totalFarmers = 0;\r\n\r\n  Vendor[] public vendors; //an array of the vendors\r\n  MilkDeliveryItem[] public milkDeliveries; //to help keep track of delivery items as an array\r\n  address[] public approvedVendors; //the addresses of the approved vendors\r\n  \r\n  Farmer[] public farmers;\r\n\r\n  mapping(address => bool) public isApprovedForMilkVending; //a boolean indicating whether a vendor has been approved\r\n  mapping(address => MilkDeliveryItem) public deliveryItemByVendor; //get the delivery item by vendor identified by an address\r\n  mapping(address => mapping(uint => uint)) public vendorQuantityByDate; //keeps track of the total quantity of the vendor by date [address][date][quantity]\r\n  mapping(address => Vendor) public vendorsByUser; //who added thie vendor item\r\n  mapping(address => bool) public isVendorListed; //to show whether this address is listed as a vendor or not\r\n  mapping(address => bool) public isFarmerListed;\r\n\r\n  mapping(uint => Vendor) public vendorById; //a mapping of the vebdor id to the struct item\r\n  mapping(uint => MilkDeliveryItem) public deliveryItemById; // a mapping of the delivery item  by it's id\r\n  mapping(uint => Farmer) public farmerById;\r\n  mapping(uint => bool) public isAnExistingFarmer;\r\n\r\n  event NewMilkDeliveryRecorded(address indexed vendor, uint indexed quantity, MILK_QUALITY_TYPE indexed quality, uint date);\r\n  event NewMilkVendorAdded(address indexed vendor, address indexed addedBy, uint indexed date);\r\n  event MilkVendorDisapproved(address indexed vendor, address indexed caller, uint date); //address[] indexed approvedVendors\r\n  event MilkVendorDelisted(address indexed vendor, address indexed caller, uint date);\r\n  event NewFarmer(address indexed farmerAddress, uint id, uint dateAdded );\r\n\r\n  constructor() public {\r\n  }\r\n\r\n  modifier isApprovedForVending(address _vendor){\r\n    require(_vendor != address(0),\"Invalid Address\");\r\n    require(isApprovedForMilkVending[_vendor] == true,\"Vendor Not Approved\");\r\n    _;\r\n  }\r\n\r\n  modifier isNotApprovedForVending(address _vendor){\r\n    require(_vendor != address(0),\"Invalid Address\");\r\n    require(isApprovedForMilkVending[_vendor] == false,\"Vendor Approved\");\r\n    _;\r\n  }\r\n\r\n  modifier isListedAsAvendor(address _vendor){\r\n    require(_vendor != address(0),\"Invalid Address\");\r\n    require(isVendorListed[_vendor] == true,\"Milk Vendor not listed\");\r\n    _;\r\n  }\r\n\r\n  modifier vendorNotListed(address _vendor){\r\n    require(_vendor != address(0),\"Invalid Address\");\r\n    require(isVendorListed[_vendor] == false,\"Milk Vendor is listed\");\r\n    _;\r\n  }\r\n\r\n  modifier farmerNotListed(address _farmerAddress){\r\n    require(isFarmerListed[_farmerAddress] == false,\"This Farmer is Listed\");\r\n    _;\r\n  }\r\n   \r\n   modifier farmerExists(uint _farmerId){\r\n     require(isAnExistingFarmer[_farmerId] == true,\"Farmer ID does not exist\");\r\n     _;\r\n   }\r\n  /**\r\n    * @notice later on add onlyOwner modifier here\r\n    * @dev approves a vendor for milk delivery, only performed by the contract owner\r\n    * @param _vendor address\r\n   */\r\n   function approveVendor(address _vendor) public isNotApprovedForVending(_vendor) returns(bool){\r\n      isApprovedForMilkVending[_vendor] = true;\r\n      approvedVendors.push(_vendor);\r\n      totalApprovedVendors = totalApprovedVendors.add(1);\r\n      return true;\r\n   }\r\n\r\n  /**\r\n    * @notice please add only owner modifier (onlyOwner) later\r\n    * @dev enables only the contract owner to add a new vendor\r\n    * @param _newVendor address \r\n    * @param _milkFactory string\r\n    * @param _name string\r\n    * @param _email string \r\n   */\r\n  function listNewVendor(address _newVendor, string memory _milkFactory, string memory _name, string memory _email) public   \r\n  vendorNotListed(_newVendor)\r\n  returns(bool) \r\n  {\r\n    //onlyOwner\r\n      require(bytes(_milkFactory).length > 0, \"New Milk Vendor => Null Factory\");\r\n      require(bytes(_name).length > 0, \"New Milk Vendor => Null Vendor Name\");\r\n      require(bytes(_email).length > 0, \"New Milk Vendor => Null Vendor Email\");\r\n\r\n      vendorIds.increment();\r\n      uint currentVendorId = vendorIds.current();\r\n      Vendor memory newMilkVendor = Vendor(currentVendorId,_milkFactory,_name,_email, payable(_newVendor), block.timestamp);\r\n      vendors.push(newMilkVendor);\r\n      vendorsByUser[msg.sender] = newMilkVendor;\r\n      isVendorListed[_newVendor] = true;\r\n      totalVendors = totalVendors.add(1);\r\n      emit NewMilkVendorAdded(_newVendor, msg.sender, block.timestamp);\r\n      return true;\r\n  }\r\n\r\n  /**\r\n   * @dev returns the total quantity of milk recorded by a vendor on a specific date\r\n   * @param _vendor address\r\n   * @param _date uint\r\n   */\r\n  function getVendorQuantityByDate(address _vendor, uint _date) public view returns(uint){\r\n    require(_vendor != address(0)); //Not an empty address\r\n    return vendorQuantityByDate[_vendor][_date];\r\n  }\r\n\r\n  /**\r\n    * @dev record a new milk delivery\r\n    * @param _quantity uint\r\n    * @param _qualityType enum\r\n   */\r\n  function recordNewDelivery(uint _quantity, MILK_QUALITY_TYPE _qualityType, uint _farmerId) public \r\n  isListedAsAvendor(msg.sender) \r\n  isApprovedForVending(msg.sender) \r\n  farmerExists(_farmerId)\r\n  returns(bool)\r\n  {\r\n    require( _quantity != 0,\"New Milk Delivery Item: => Zero Quantity Not Accepted\");\r\n    milkDeliveryIds.increment();\r\n    uint currentDeliveryId = milkDeliveryIds.current();\r\n    MilkDeliveryItem memory newMilkDeliveryItem = MilkDeliveryItem(payable(msg.sender),currentDeliveryId, block.timestamp,_quantity,_farmerId,_qualityType);\r\n    milkDeliveries.push(newMilkDeliveryItem);\r\n    deliveryItemByVendor[msg.sender] = newMilkDeliveryItem;\r\n    vendorQuantityByDate[msg.sender][block.timestamp] = _quantity;\r\n    totalDeliveries = totalDeliveries.add(1);\r\n    totalQuantities = totalQuantities.add(_quantity);\r\n    emit NewMilkDeliveryRecorded(msg.sender,_quantity,_qualityType, block.timestamp);\r\n    return true;\r\n  }\r\n\r\n  /**\r\n    * @notice later on add onlyOwner modifier here\r\n    * @dev enables contract owner to delist a vendor\r\n    * @param _vendor address\r\n   */\r\n  function delistVendor(address _vendor) public isListedAsAvendor(_vendor) returns(bool){\r\n    isVendorListed[_vendor] = false;\r\n    emit MilkVendorDelisted(_vendor, msg.sender, block.timestamp);\r\n    return true;\r\n  }\r\n\r\n  /**\r\n    * @notice later on add onlyOwner modifier here\r\n    * @dev revoke a milk vendor's approval for milk vending\r\n    * @param _vendor address\r\n   */\r\n  function revokeVendorApproval(address _vendor) public isApprovedForVending(_vendor) returns(bool){\r\n      isApprovedForMilkVending[_vendor] = false;\r\n      //remove this vendor from the approved vendors array and maintain the array order\r\n      /** \r\n      for(uint i = 0; i < approvedVendors.length - 1; i++){\r\n        if(approvedVendors[i] == _vendor){\r\n          approvedVendors[i] = approvedVendors[i + 1];\r\n        }\r\n      }\r\n      \r\n      approvedVendors.pop();\r\n      */\r\n      totalApprovedVendors = totalApprovedVendors.sub(1);\r\n      emit MilkVendorDisapproved(_vendor, msg.sender, block.timestamp); //approvedVendors\r\n      return true;\r\n  }\r\n\r\n  /**\r\n    * @dev gets the total quantity of milk by all vendors recorded on-chain\r\n   */\r\n  function totalQuantity() external virtual view returns(uint){\r\n    return totalQuantities;\r\n  }\r\n\r\n  /**\r\n    * @dev returns an array of all the vendors\r\n   */\r\n  function vendorList() public view returns(Vendor[] memory){\r\n    return vendors;\r\n  }\r\n\r\n  function listAllDeliveryItems() public view returns(MilkDeliveryItem[] memory){\r\n    return milkDeliveries;\r\n  }\r\n\r\n  function getTotalDeliveries() public view returns(uint){\r\n    return totalDeliveries;\r\n  }\r\n\r\n  function addNewFarmer(\r\n    address _farmerAddress,\r\n    string memory _firstName, \r\n    string memory _lastName, \r\n    string memory _location,\r\n    string memory _phoneNumber,\r\n    string memory _email,\r\n    int _idNumber\r\n    ) public farmerNotListed(_farmerAddress) returns(bool success){\r\n      farmerIds.increment();\r\n      uint currentFarmerId = farmerIds.current();\r\n      Farmer memory newFarmer = Farmer(currentFarmerId,_firstName,_lastName,_email,_phoneNumber,_idNumber,_location,payable(_farmerAddress), block.timestamp);\r\n      totalFarmers = totalFarmers.add(1);\r\n      isFarmerListed[_farmerAddress] = true;\r\n      isAnExistingFarmer[currentFarmerId] = true;\r\n      farmers.push(newFarmer);\r\n      farmerById[currentFarmerId] = newFarmer;\r\n      emit NewFarmer(_farmerAddress,currentFarmerId, block.timestamp);\r\n      return true;\r\n  }\r\n\r\n  function getFarmerById(uint _farmerId) public view returns(Farmer memory){\r\n    return farmerById[_farmerId];\r\n  }\r\n\r\n  function listAllFarmers() public view returns(Farmer[] memory){\r\n    return farmers;\r\n  }\r\n}\r\n",
    "sourcePath": "D:/Dickens/Programming/Blockchain/Projects/Research Projects/MMUST/Dairy Farmers Milk Delivery/contracts/MilkDelivery.sol",
    "compiler": {
        "name": "solc",
        "version": "0.8.13+commit.abaa5c0e.Emscripten.clang"
    },
    "schemaVersion": "3.4.1",
    "updatedAt": "2022-04-11T23:28:18.908Z",
    "networkType": "ethereum",
    "devdoc": {
        "details": "A smart contract that enables dairy farmers to record their daily produce",
        "kind": "dev",
        "methods": {
            "approveVendor(address)": {
                "details": "approves a vendor for milk delivery, only performed by the contract owner",
                "params": {
                    "_vendor": "address"
                }
            },
            "delistVendor(address)": {
                "details": "enables contract owner to delist a vendor",
                "params": {
                    "_vendor": "address"
                }
            },
            "getRoleAdmin(bytes32)": {
                "details": "Returns the admin role that controls `role`. See {grantRole} and {revokeRole}. To change a role's admin, use {_setRoleAdmin}."
            },
            "getVendorQuantityByDate(address,uint256)": {
                "details": "returns the total quantity of milk recorded by a vendor on a specific date",
                "params": {
                    "_date": "uint",
                    "_vendor": "address"
                }
            },
            "grantRole(bytes32,address)": {
                "details": "Grants `role` to `account`. If `account` had not been already granted `role`, emits a {RoleGranted} event. Requirements: - the caller must have ``role``'s admin role."
            },
            "hasRole(bytes32,address)": {
                "details": "Returns `true` if `account` has been granted `role`."
            },
            "listNewVendor(address,string,string,string)": {
                "details": "enables only the contract owner to add a new vendor",
                "params": {
                    "_email": "string ",
                    "_milkFactory": "string",
                    "_name": "string",
                    "_newVendor": "address "
                }
            },
            "owner()": {
                "details": "Returns the address of the current owner."
            },
            "recordNewDelivery(uint256,uint8,uint256)": {
                "details": "record a new milk delivery",
                "params": {
                    "_qualityType": "enum",
                    "_quantity": "uint"
                }
            },
            "renounceOwnership()": {
                "details": "Leaves the contract without owner. It will not be possible to call `onlyOwner` functions anymore. Can only be called by the current owner. NOTE: Renouncing ownership will leave the contract without an owner, thereby removing any functionality that is only available to the owner."
            },
            "renounceRole(bytes32,address)": {
                "details": "Revokes `role` from the calling account. Roles are often managed via {grantRole} and {revokeRole}: this function's purpose is to provide a mechanism for accounts to lose their privileges if they are compromised (such as when a trusted device is misplaced). If the calling account had been revoked `role`, emits a {RoleRevoked} event. Requirements: - the caller must be `account`."
            },
            "revokeRole(bytes32,address)": {
                "details": "Revokes `role` from `account`. If `account` had been granted `role`, emits a {RoleRevoked} event. Requirements: - the caller must have ``role``'s admin role."
            },
            "revokeVendorApproval(address)": {
                "details": "revoke a milk vendor's approval for milk vending",
                "params": {
                    "_vendor": "address"
                }
            },
            "supportsInterface(bytes4)": {
                "details": "See {IERC165-supportsInterface}."
            },
            "totalQuantity()": {
                "details": "gets the total quantity of milk by all vendors recorded on-chain"
            },
            "transferOwnership(address)": {
                "details": "Transfers ownership of the contract to a new account (`newOwner`). Can only be called by the current owner."
            },
            "vendorList()": {
                "details": "returns an array of all the vendors"
            }
        },
        "title": "Milk Delivery Contract",
        "version": 1
    },
    "userdoc": {
        "kind": "user",
        "methods": {
            "approveVendor(address)": {
                "notice": "later on add onlyOwner modifier here"
            },
            "delistVendor(address)": {
                "notice": "later on add onlyOwner modifier here"
            },
            "listNewVendor(address,string,string,string)": {
                "notice": "please add only owner modifier (onlyOwner) later"
            },
            "revokeVendorApproval(address)": {
                "notice": "later on add onlyOwner modifier here"
            }
        },
        "version": 1
    }
}