{
  "contractName": "MilkDelivery",
  "abi": [
    {
      "inputs": [],
      "stateMutability": "nonpayable",
      "type": "constructor"
    },
    {
      "inputs": [],
      "name": "BadRecord",
      "type": "error"
    },
    {
      "anonymous": false,
      "inputs": [
        {
          "indexed": true,
          "internalType": "address",
          "name": "vendor",
          "type": "address"
        },
        {
          "indexed": true,
          "internalType": "uint256",
          "name": "quantity",
          "type": "uint256"
        },
        {
          "indexed": true,
          "internalType": "enum MilkDelivery.MILK_QUALITY_TYPE",
          "name": "quality",
          "type": "uint8"
        },
        {
          "indexed": false,
          "internalType": "uint256",
          "name": "date",
          "type": "uint256"
        }
      ],
      "name": "NewMilkDeliveryRecorded",
      "type": "event"
    },
    {
      "anonymous": false,
      "inputs": [
        {
          "indexed": true,
          "internalType": "address",
          "name": "previousOwner",
          "type": "address"
        },
        {
          "indexed": true,
          "internalType": "address",
          "name": "newOwner",
          "type": "address"
        }
      ],
      "name": "OwnershipTransferred",
      "type": "event"
    },
    {
      "inputs": [
        {
          "internalType": "uint256",
          "name": "",
          "type": "uint256"
        }
      ],
      "name": "approvedVendors",
      "outputs": [
        {
          "internalType": "address",
          "name": "",
          "type": "address"
        }
      ],
      "stateMutability": "view",
      "type": "function"
    },
    {
      "inputs": [
        {
          "internalType": "address",
          "name": "",
          "type": "address"
        }
      ],
      "name": "deliveryItemByVendor",
      "outputs": [
        {
          "internalType": "address payable",
          "name": "vendor",
          "type": "address"
        },
        {
          "internalType": "uint256",
          "name": "id",
          "type": "uint256"
        },
        {
          "internalType": "uint256",
          "name": "date",
          "type": "uint256"
        },
        {
          "internalType": "uint256",
          "name": "quantity",
          "type": "uint256"
        },
        {
          "internalType": "enum MilkDelivery.MILK_QUALITY_TYPE",
          "name": "milkQualityType",
          "type": "uint8"
        }
      ],
      "stateMutability": "view",
      "type": "function"
    },
    {
      "inputs": [
        {
          "internalType": "address",
          "name": "",
          "type": "address"
        }
      ],
      "name": "isApprovedForMilkVending",
      "outputs": [
        {
          "internalType": "bool",
          "name": "",
          "type": "bool"
        }
      ],
      "stateMutability": "view",
      "type": "function"
    },
    {
      "inputs": [
        {
          "internalType": "uint256",
          "name": "",
          "type": "uint256"
        }
      ],
      "name": "milkDeliveries",
      "outputs": [
        {
          "internalType": "address payable",
          "name": "vendor",
          "type": "address"
        },
        {
          "internalType": "uint256",
          "name": "id",
          "type": "uint256"
        },
        {
          "internalType": "uint256",
          "name": "date",
          "type": "uint256"
        },
        {
          "internalType": "uint256",
          "name": "quantity",
          "type": "uint256"
        },
        {
          "internalType": "enum MilkDelivery.MILK_QUALITY_TYPE",
          "name": "milkQualityType",
          "type": "uint8"
        }
      ],
      "stateMutability": "view",
      "type": "function"
    },
    {
      "inputs": [],
      "name": "milkQualityType",
      "outputs": [
        {
          "internalType": "enum MilkDelivery.MILK_QUALITY_TYPE",
          "name": "",
          "type": "uint8"
        }
      ],
      "stateMutability": "view",
      "type": "function"
    },
    {
      "inputs": [],
      "name": "owner",
      "outputs": [
        {
          "internalType": "address",
          "name": "",
          "type": "address"
        }
      ],
      "stateMutability": "view",
      "type": "function"
    },
    {
      "inputs": [],
      "name": "renounceOwnership",
      "outputs": [],
      "stateMutability": "nonpayable",
      "type": "function"
    },
    {
      "inputs": [],
      "name": "totalDeliveries",
      "outputs": [
        {
          "internalType": "uint256",
          "name": "",
          "type": "uint256"
        }
      ],
      "stateMutability": "view",
      "type": "function"
    },
    {
      "inputs": [],
      "name": "totalQuantities",
      "outputs": [
        {
          "internalType": "uint256",
          "name": "",
          "type": "uint256"
        }
      ],
      "stateMutability": "view",
      "type": "function"
    },
    {
      "inputs": [
        {
          "internalType": "address",
          "name": "newOwner",
          "type": "address"
        }
      ],
      "name": "transferOwnership",
      "outputs": [],
      "stateMutability": "nonpayable",
      "type": "function"
    },
    {
      "inputs": [
        {
          "internalType": "uint256",
          "name": "",
          "type": "uint256"
        }
      ],
      "name": "vendors",
      "outputs": [
        {
          "internalType": "uint256",
          "name": "id",
          "type": "uint256"
        },
        {
          "internalType": "string",
          "name": "milkFactory",
          "type": "string"
        },
        {
          "internalType": "string",
          "name": "name",
          "type": "string"
        },
        {
          "internalType": "string",
          "name": "email",
          "type": "string"
        },
        {
          "internalType": "address",
          "name": "vendorAddress",
          "type": "address"
        }
      ],
      "stateMutability": "view",
      "type": "function"
    },
    {
      "inputs": [
        {
          "internalType": "address",
          "name": "_vendor",
          "type": "address"
        }
      ],
      "name": "approveVendor",
      "outputs": [
        {
          "internalType": "bool",
          "name": "",
          "type": "bool"
        }
      ],
      "stateMutability": "nonpayable",
      "type": "function"
    },
    {
      "inputs": [
        {
          "internalType": "address",
          "name": "_vendor",
          "type": "address"
        },
        {
          "internalType": "uint256",
          "name": "_date",
          "type": "uint256"
        }
      ],
      "name": "getVendorQuantityByDate",
      "outputs": [
        {
          "internalType": "uint256",
          "name": "",
          "type": "uint256"
        }
      ],
      "stateMutability": "view",
      "type": "function"
    },
    {
      "inputs": [
        {
          "internalType": "uint256",
          "name": "_quantity",
          "type": "uint256"
        },
        {
          "internalType": "enum MilkDelivery.MILK_QUALITY_TYPE",
          "name": "_qualityType",
          "type": "uint8"
        }
      ],
      "name": "recordNewDelivery",
      "outputs": [
        {
          "internalType": "bool",
          "name": "",
          "type": "bool"
        }
      ],
      "stateMutability": "nonpayable",
      "type": "function"
    },
    {
      "inputs": [],
      "name": "totalQuantity",
      "outputs": [
        {
          "internalType": "uint256",
          "name": "",
          "type": "uint256"
        }
      ],
      "stateMutability": "view",
      "type": "function"
    },
    {
      "inputs": [],
      "name": "vendorList",
      "outputs": [
        {
          "components": [
            {
              "internalType": "uint256",
              "name": "id",
              "type": "uint256"
            },
            {
              "internalType": "string",
              "name": "milkFactory",
              "type": "string"
            },
            {
              "internalType": "string",
              "name": "name",
              "type": "string"
            },
            {
              "internalType": "string",
              "name": "email",
              "type": "string"
            },
            {
              "internalType": "address",
              "name": "vendorAddress",
              "type": "address"
            }
          ],
          "internalType": "struct MilkDelivery.Vendor[]",
          "name": "",
          "type": "tuple[]"
        }
      ],
      "stateMutability": "view",
      "type": "function"
    }
  ],
  "bytecode": "0x608060405260006004556000600555600060065534801561001f57600080fd5b506100293361002e565b61007e565b600080546001600160a01b038381166001600160a01b0319831681178455604051919092169283917f8be0079c531659141344cd1fd0a4f28419497f9722a3daafe3b4186f6b6457e09190a35050565b6110c78061008d6000396000f3fe608060405234801561001057600080fd5b50600436106101005760003560e01c8063a08d986d11610097578063df627c2a11610066578063df627c2a1461023f578063e128e23414610289578063f2fde38b14610292578063f8a52923146102a557600080fd5b8063a08d986d146101eb578063c616f4121461020f578063cea676e414610217578063ddc00f3b1461022a57600080fd5b8063715018a6116100d3578063715018a614610172578063868947c91461017c57806386f22dbd146101a75780638da5cb5b146101da57600080fd5b80630c59d639146101055780634ca5d142146101215780636c1c13a8146101455780637129bbb71461015f575b600080fd5b61010e60065481565b6040519081526020015b60405180910390f35b61013461012f366004610d6a565b6102b8565b604051610118959493929190610dbb565b6003546101529060ff1681565b6040516101189190610df7565b61010e61016d366004610e21565b610306565b61017a610347565b005b61018f61018a366004610d6a565b610386565b6040516001600160a01b039091168152602001610118565b6101ca6101b5366004610e4b565b600a6020526000908152604090205460ff1681565b6040519015158152602001610118565b6000546001600160a01b031661018f565b6101fe6101f9366004610d6a565b6103b0565b604051610118959493929190610eb3565b60055461010e565b6101ca610225366004610f0d565b610593565b6102326108f7565b6040516101189190610f41565b61013461024d366004610e4b565b600b60205260009081526040902080546001820154600283015460038401546004909401546001600160a01b0390931693919290919060ff1685565b61010e60055481565b61017a6102a0366004610e4b565b610b2c565b6101ca6102b3366004610e4b565b610bc7565b600881815481106102c857600080fd5b6000918252602090912060059091020180546001820154600283015460038401546004909401546001600160a01b0390931694509092909160ff1685565b60006001600160a01b03831661031b57600080fd5b506001600160a01b0382166000908152600c602090815260408083208484529091529020545b92915050565b6000546001600160a01b0316331461037a5760405162461bcd60e51b815260040161037190611001565b60405180910390fd5b6103846000610d07565b565b6009818154811061039657600080fd5b6000918252602090912001546001600160a01b0316905081565b600781815481106103c057600080fd5b600091825260209091206005909102018054600182018054919350906103e590611036565b80601f016020809104026020016040519081016040528092919081815260200182805461041190611036565b801561045e5780601f106104335761010080835404028352916020019161045e565b820191906000526020600020905b81548152906001019060200180831161044157829003601f168201915b50505050509080600201805461047390611036565b80601f016020809104026020016040519081016040528092919081815260200182805461049f90611036565b80156104ec5780601f106104c1576101008083540402835291602001916104ec565b820191906000526020600020905b8154815290600101906020018083116104cf57829003601f168201915b50505050509080600301805461050190611036565b80601f016020809104026020016040519081016040528092919081815260200182805461052d90611036565b801561057a5780601f1061054f5761010080835404028352916020019161057a565b820191906000526020600020905b81548152906001019060200180831161055d57829003601f168201915b505050600490930154919250506001600160a01b031685565b336000818152600a602052604081205490919060ff1615156001146105f05760405162461bcd60e51b815260206004820152601360248201527215995b991bdc88139bdd08105c1c1c9bdd9959606a1b6044820152606401610371565b8361065b5760405162461bcd60e51b815260206004820152603560248201527f4e6577204d696c6b2044656c6976657279204974656d3a203d3e205a65726f20604482015274145d585b9d1a5d1e48139bdd081058d8d95c1d1959605a1b6064820152608401610371565b610669600180546001019055565b600061067460015490565b905060006040518060a00160405280336001600160a01b031681526020018381526020014281526020018781526020018660038111156106b6576106b6610d83565b9052600880546001808201835560009290925282517ff3f7a9fe364faab93b216da50a3214154f22a0a2b415b23a84c8169e8b636ee3600590920291820180546001600160a01b0319166001600160a01b0390921691909117815560208401517ff3f7a9fe364faab93b216da50a3214154f22a0a2b415b23a84c8169e8b636ee483015560408401517ff3f7a9fe364faab93b216da50a3214154f22a0a2b415b23a84c8169e8b636ee583015560608401517ff3f7a9fe364faab93b216da50a3214154f22a0a2b415b23a84c8169e8b636ee683015560808401517ff3f7a9fe364faab93b216da50a3214154f22a0a2b415b23a84c8169e8b636ee7909201805494955085949193909160ff1916908360038111156107d7576107d7610d83565b021790555050336000908152600b6020908152604091829020845181546001600160a01b0319166001600160a01b03909116178155908401516001808301919091559184015160028201556060840151600380830191909155608085015160048301805487965093949193909260ff199091169190849081111561085d5761085d610d83565b021790555050336000908152600c6020908152604080832042845290915290208790555060065461088f906001610d57565b60065560055461089f9087610d57565b6005558460038111156108b4576108b4610d83565b604051428152879033907f85f3f3a7f3ef4c556d64244b4b4b8bd8a4d3977d27b6f270cafe93466f8001649060200160405180910390a450600195945050505050565b60606007805480602002602001604051908101604052809291908181526020016000905b82821015610b2357838290600052602060002090600502016040518060a00160405290816000820154815260200160018201805461095890611036565b80601f016020809104026020016040519081016040528092919081815260200182805461098490611036565b80156109d15780601f106109a6576101008083540402835291602001916109d1565b820191906000526020600020905b8154815290600101906020018083116109b457829003601f168201915b505050505081526020016002820180546109ea90611036565b80601f0160208091040260200160405190810160405280929190818152602001828054610a1690611036565b8015610a635780601f10610a3857610100808354040283529160200191610a63565b820191906000526020600020905b815481529060010190602001808311610a4657829003601f168201915b50505050508152602001600382018054610a7c90611036565b80601f0160208091040260200160405190810160405280929190818152602001828054610aa890611036565b8015610af55780601f10610aca57610100808354040283529160200191610af5565b820191906000526020600020905b815481529060010190602001808311610ad857829003601f168201915b5050509183525050600491909101546001600160a01b0316602091820152908252600192909201910161091b565b50505050905090565b6000546001600160a01b03163314610b565760405162461bcd60e51b815260040161037190611001565b6001600160a01b038116610bbb5760405162461bcd60e51b815260206004820152602660248201527f4f776e61626c653a206e6577206f776e657220697320746865207a65726f206160448201526564647265737360d01b6064820152608401610371565b610bc481610d07565b50565b600080546001600160a01b03163314610bf25760405162461bcd60e51b815260040161037190611001565b6001600160a01b0382166000908152600a6020526040902054829060ff1615610c4f5760405162461bcd60e51b815260206004820152600f60248201526e15995b991bdc88105c1c1c9bdd9959608a1b6044820152606401610371565b6001600160a01b038316610c975760405162461bcd60e51b815260206004820152600f60248201526e496e76616c6964204164647265737360881b6044820152606401610371565b6001600160a01b0383166000818152600a60205260408120805460ff1916600190811790915560098054808301825592527f6e1540171b6c0c960b71a7020d9f60077f6af931a8bbf590da0223dacf75c7af90910180546001600160a01b03191690921790915591505b50919050565b600080546001600160a01b038381166001600160a01b0319831681178455604051919092169283917f8be0079c531659141344cd1fd0a4f28419497f9722a3daafe3b4186f6b6457e09190a35050565b6000610d63828461106b565b9392505050565b600060208284031215610d7c57600080fd5b5035919050565b634e487b7160e01b600052602160045260246000fd5b60048110610db757634e487b7160e01b600052602160045260246000fd5b9052565b6001600160a01b038616815260208101859052604081018490526060810183905260a08101610ded6080830184610d99565b9695505050505050565b602081016103418284610d99565b80356001600160a01b0381168114610e1c57600080fd5b919050565b60008060408385031215610e3457600080fd5b610e3d83610e05565b946020939093013593505050565b600060208284031215610e5d57600080fd5b610d6382610e05565b6000815180845260005b81811015610e8c57602081850181015186830182015201610e70565b81811115610e9e576000602083870101525b50601f01601f19169290920160200192915050565b85815260a060208201526000610ecc60a0830187610e66565b8281036040840152610ede8187610e66565b90508281036060840152610ef28186610e66565b91505060018060a01b03831660808301529695505050505050565b60008060408385031215610f2057600080fd5b82359150602083013560048110610f3657600080fd5b809150509250929050565b60006020808301818452808551808352604092508286019150828160051b87010184880160005b83811015610ff357603f19898403018552815160a08151855288820151818a870152610f9682870182610e66565b9150508782015185820389870152610fae8282610e66565b91505060608083015186830382880152610fc88382610e66565b6080948501516001600160a01b03169790940196909652505094870194925090860190600101610f68565b509098975050505050505050565b6020808252818101527f4f776e61626c653a2063616c6c6572206973206e6f7420746865206f776e6572604082015260600190565b600181811c9082168061104a57607f821691505b60208210811415610d0157634e487b7160e01b600052602260045260246000fd5b6000821982111561108c57634e487b7160e01b600052601160045260246000fd5b50019056fea2646970667358221220bf24b85c7e2be6b6cc39c92a88243194e08e5b106305ab6e637b624bd179c5f464736f6c634300080b0033",
  "immutableReferences": {},
  "source": "// SPDX-License-Identifier: MIT\npragma solidity ^0.8.0;\nimport \"@openzeppelin/contracts/access/Ownable.sol\";\nimport \"@openzeppelin/contracts/utils/math/SafeMath.sol\";\nimport \"@openzeppelin/contracts/utils/Counters.sol\";\nimport \"./MilkDeliveryInterface.sol\";\n\n/**\n  * @title Milk Delivery Contract\n  * @dev A smart contract that enables dairy farmers to record their daily produce\n */\ncontract MilkDelivery is Ownable, MilkDeliveryInterface {\n  using SafeMath for uint256;\n  using Counters for Counters.Counter;\n\n  Counters.Counter private milkDeliveryIds; //to help track milk delivery items by ID e.g 1\n  Counters.Counter private vendorIds; //to help track vendors by ID e.g 1\n\n  enum MILK_QUALITY_TYPE { GOOD, STALE, PERFECT, BAD } //quality types\n  MILK_QUALITY_TYPE public milkQualityType; //in order to access the enum via a variable\n\n  //Vendor struct with vendor particulars/details\n  struct Vendor{\n    uint id;\n    string milkFactory;\n    string name;\n    string email;\n    address vendorAddress;\n  }\n\n  //Delivery struct with delivery item particulars\n  struct MilkDeliveryItem{\n    address payable vendor;\n    uint id;\n    uint date;\n    uint quantity;\n    MILK_QUALITY_TYPE milkQualityType;\n  }\n\n  uint totalVendors = 0; //total vendors initialised to 0\n  uint public totalQuantities = 0; //keeps track of total milk quantity recorded on-chain\n  uint public totalDeliveries = 0; //to handle incrementing of overral milk quantities\n\n  Vendor[] public vendors; //an array of the vendors\n  MilkDeliveryItem[] public milkDeliveries; //to help keep track of delivery items as an array\n  address[] public approvedVendors; //the addresses of the approved vendors\n  \n  mapping(address => bool) public isApprovedForMilkVending; //a boolean indicating whether a vendor has been approved\n  mapping(address => MilkDeliveryItem) public deliveryItemByVendor; //get the delivery item by vendor identified by an address\n  mapping(address => mapping(uint => uint)) vendorQuantityByDate; //keeps track of the total quantity of the vendor by date [address][date][quantity]\n\n  event NewMilkDeliveryRecorded(address indexed vendor, uint indexed quantity, MILK_QUALITY_TYPE indexed quality, uint date);\n  error BadRecord();\n\n  constructor() public {\n  }\n\n  modifier isApprovedForVending(address _vendor){\n    require(isApprovedForMilkVending[_vendor] == true,\"Vendor Not Approved\");\n    _;\n  }\n\n  modifier isNotApprovedForVending(address _vendor){\n    require(isApprovedForMilkVending[_vendor] == false,\"Vendor Approved\");\n    _;\n  }\n\n  /**\n    * @dev approves a vendor for milk delivery, only performed by the contract owner\n    * @param _vendor address\n   */\n\n   function approveVendor(address _vendor) public onlyOwner isNotApprovedForVending(_vendor) returns(bool){\n      require(_vendor != address(0),\"Invalid Address\");\n      isApprovedForMilkVending[_vendor] = true;\n      approvedVendors.push(_vendor);\n      return true;\n   }\n\n  /**\n   * @dev returns the total quantity of milk recorded by a vendor on a specific date\n   * @param _vendor address\n   * @param _date uint\n   */\n  function getVendorQuantityByDate(address _vendor, uint _date) public view returns(uint){\n    require(_vendor != address(0)); //Not an empty address\n    return vendorQuantityByDate[_vendor][_date];\n  }\n\n  /**\n    * @dev record a new milk delivery\n    * @param _quantity uint\n    * @param _qualityType enum\n   */\n  function recordNewDelivery(uint _quantity, MILK_QUALITY_TYPE _qualityType) public isApprovedForVending(msg.sender) returns(bool){\n    require( _quantity != 0,\"New Milk Delivery Item: => Zero Quantity Not Accepted\");\n    milkDeliveryIds.increment();\n    uint currentDeliveryId = milkDeliveryIds.current();\n    MilkDeliveryItem memory newMilkDeliveryItem = MilkDeliveryItem(payable(msg.sender),currentDeliveryId, block.timestamp,_quantity,_qualityType);\n    milkDeliveries.push(newMilkDeliveryItem);\n    deliveryItemByVendor[msg.sender] = newMilkDeliveryItem;\n    vendorQuantityByDate[msg.sender][block.timestamp] = _quantity;\n    totalDeliveries = totalDeliveries.add(1);\n    totalQuantities = totalQuantities.add(_quantity);\n    emit NewMilkDeliveryRecorded(msg.sender,_quantity,_qualityType, block.timestamp);\n    return true;\n  }\n\n  /**\n    * @dev gets the total quantity of milk by all vendors recorded on-chain\n   */\n  function totalQuantity() external virtual view returns(uint){\n    return totalQuantities;\n  }\n\n  /**\n    * @dev returns an array of all the vendors\n   */\n  function vendorList() public view returns(Vendor[] memory){\n    return vendors;\n  }\n}\n",
  "sourcePath": "D:/Dickens/Programming/Blockchain/Projects/Research Projects/MMUST/Dairy Farmers Milk Delivery/contracts/MilkDelivery.sol",
  "compiler": {
    "name": "solc",
    "version": "0.8.11+commit.d7f03943.Emscripten.clang"
  },
  "schemaVersion": "3.4.1",
  "updatedAt": "2021-12-30T18:30:52.535Z",
  "devdoc": {
    "details": "A smart contract that enables dairy farmers to record their daily produce",
    "kind": "dev",
    "methods": {
      "approveVendor(address)": {
        "details": "approves a vendor for milk delivery, only performed by the contract owner",
        "params": {
          "_vendor": "address"
        }
      },
      "getVendorQuantityByDate(address,uint256)": {
        "details": "returns the total quantity of milk recorded by a vendor on a specific date",
        "params": {
          "_date": "uint",
          "_vendor": "address"
        }
      },
      "owner()": {
        "details": "Returns the address of the current owner."
      },
      "recordNewDelivery(uint256,uint8)": {
        "details": "record a new milk delivery",
        "params": {
          "_qualityType": "enum",
          "_quantity": "uint"
        }
      },
      "renounceOwnership()": {
        "details": "Leaves the contract without owner. It will not be possible to call `onlyOwner` functions anymore. Can only be called by the current owner. NOTE: Renouncing ownership will leave the contract without an owner, thereby removing any functionality that is only available to the owner."
      },
      "totalQuantity()": {
        "details": "gets the total quantity of milk by all vendors recorded on-chain"
      },
      "transferOwnership(address)": {
        "details": "Transfers ownership of the contract to a new account (`newOwner`). Can only be called by the current owner."
      },
      "vendorList()": {
        "details": "returns an array of all the vendors"
      }
    },
    "title": "Milk Delivery Contract",
    "version": 1
  },
  "userdoc": {
    "kind": "user",
    "methods": {},
    "version": 1
  }
}