{
  "contractName": "MilkDelivery",
  "abi": [
    {
      "inputs": [],
      "stateMutability": "nonpayable",
      "type": "constructor"
    },
    {
      "anonymous": false,
      "inputs": [
        {
          "indexed": true,
          "internalType": "address",
          "name": "vendor",
          "type": "address"
        },
        {
          "indexed": true,
          "internalType": "address",
          "name": "caller",
          "type": "address"
        },
        {
          "indexed": false,
          "internalType": "uint256",
          "name": "date",
          "type": "uint256"
        }
      ],
      "name": "MilkVendorDelisted",
      "type": "event"
    },
    {
      "anonymous": false,
      "inputs": [
        {
          "indexed": true,
          "internalType": "address",
          "name": "vendor",
          "type": "address"
        },
        {
          "indexed": true,
          "internalType": "address",
          "name": "caller",
          "type": "address"
        },
        {
          "indexed": false,
          "internalType": "uint256",
          "name": "date",
          "type": "uint256"
        }
      ],
      "name": "MilkVendorDisapproved",
      "type": "event"
    },
    {
      "anonymous": false,
      "inputs": [
        {
          "indexed": true,
          "internalType": "address",
          "name": "farmerAddress",
          "type": "address"
        },
        {
          "indexed": false,
          "internalType": "uint256",
          "name": "id",
          "type": "uint256"
        },
        {
          "indexed": false,
          "internalType": "uint256",
          "name": "dateAdded",
          "type": "uint256"
        }
      ],
      "name": "NewFarmer",
      "type": "event"
    },
    {
      "anonymous": false,
      "inputs": [
        {
          "indexed": true,
          "internalType": "address",
          "name": "vendor",
          "type": "address"
        },
        {
          "indexed": true,
          "internalType": "uint256",
          "name": "quantity",
          "type": "uint256"
        },
        {
          "indexed": true,
          "internalType": "enum MilkDelivery.MILK_QUALITY_TYPE",
          "name": "quality",
          "type": "uint8"
        },
        {
          "indexed": false,
          "internalType": "uint256",
          "name": "date",
          "type": "uint256"
        }
      ],
      "name": "NewMilkDeliveryRecorded",
      "type": "event"
    },
    {
      "anonymous": false,
      "inputs": [
        {
          "indexed": true,
          "internalType": "address",
          "name": "vendor",
          "type": "address"
        },
        {
          "indexed": true,
          "internalType": "address",
          "name": "addedBy",
          "type": "address"
        },
        {
          "indexed": true,
          "internalType": "uint256",
          "name": "date",
          "type": "uint256"
        }
      ],
      "name": "NewMilkVendorAdded",
      "type": "event"
    },
    {
      "anonymous": false,
      "inputs": [
        {
          "indexed": true,
          "internalType": "address",
          "name": "previousOwner",
          "type": "address"
        },
        {
          "indexed": true,
          "internalType": "address",
          "name": "newOwner",
          "type": "address"
        }
      ],
      "name": "OwnershipTransferred",
      "type": "event"
    },
    {
      "anonymous": false,
      "inputs": [
        {
          "indexed": true,
          "internalType": "bytes32",
          "name": "role",
          "type": "bytes32"
        },
        {
          "indexed": true,
          "internalType": "bytes32",
          "name": "previousAdminRole",
          "type": "bytes32"
        },
        {
          "indexed": true,
          "internalType": "bytes32",
          "name": "newAdminRole",
          "type": "bytes32"
        }
      ],
      "name": "RoleAdminChanged",
      "type": "event"
    },
    {
      "anonymous": false,
      "inputs": [
        {
          "indexed": true,
          "internalType": "bytes32",
          "name": "role",
          "type": "bytes32"
        },
        {
          "indexed": true,
          "internalType": "address",
          "name": "account",
          "type": "address"
        },
        {
          "indexed": true,
          "internalType": "address",
          "name": "sender",
          "type": "address"
        }
      ],
      "name": "RoleGranted",
      "type": "event"
    },
    {
      "anonymous": false,
      "inputs": [
        {
          "indexed": true,
          "internalType": "bytes32",
          "name": "role",
          "type": "bytes32"
        },
        {
          "indexed": true,
          "internalType": "address",
          "name": "account",
          "type": "address"
        },
        {
          "indexed": true,
          "internalType": "address",
          "name": "sender",
          "type": "address"
        }
      ],
      "name": "RoleRevoked",
      "type": "event"
    },
    {
      "inputs": [],
      "name": "DEFAULT_ADMIN_ROLE",
      "outputs": [
        {
          "internalType": "bytes32",
          "name": "",
          "type": "bytes32"
        }
      ],
      "stateMutability": "view",
      "type": "function",
      "constant": true
    },
    {
      "inputs": [
        {
          "internalType": "uint256",
          "name": "",
          "type": "uint256"
        }
      ],
      "name": "approvedVendors",
      "outputs": [
        {
          "internalType": "address",
          "name": "",
          "type": "address"
        }
      ],
      "stateMutability": "view",
      "type": "function",
      "constant": true
    },
    {
      "inputs": [
        {
          "internalType": "uint256",
          "name": "",
          "type": "uint256"
        }
      ],
      "name": "deliveryItemById",
      "outputs": [
        {
          "internalType": "address payable",
          "name": "vendor",
          "type": "address"
        },
        {
          "internalType": "uint256",
          "name": "id",
          "type": "uint256"
        },
        {
          "internalType": "uint256",
          "name": "date",
          "type": "uint256"
        },
        {
          "internalType": "uint256",
          "name": "quantity",
          "type": "uint256"
        },
        {
          "internalType": "uint256",
          "name": "farmerId",
          "type": "uint256"
        },
        {
          "internalType": "enum MilkDelivery.MILK_QUALITY_TYPE",
          "name": "milkQualityType",
          "type": "uint8"
        }
      ],
      "stateMutability": "view",
      "type": "function",
      "constant": true
    },
    {
      "inputs": [
        {
          "internalType": "address",
          "name": "",
          "type": "address"
        }
      ],
      "name": "deliveryItemByVendor",
      "outputs": [
        {
          "internalType": "address payable",
          "name": "vendor",
          "type": "address"
        },
        {
          "internalType": "uint256",
          "name": "id",
          "type": "uint256"
        },
        {
          "internalType": "uint256",
          "name": "date",
          "type": "uint256"
        },
        {
          "internalType": "uint256",
          "name": "quantity",
          "type": "uint256"
        },
        {
          "internalType": "uint256",
          "name": "farmerId",
          "type": "uint256"
        },
        {
          "internalType": "enum MilkDelivery.MILK_QUALITY_TYPE",
          "name": "milkQualityType",
          "type": "uint8"
        }
      ],
      "stateMutability": "view",
      "type": "function",
      "constant": true
    },
    {
      "inputs": [
        {
          "internalType": "uint256",
          "name": "",
          "type": "uint256"
        }
      ],
      "name": "farmerById",
      "outputs": [
        {
          "internalType": "uint256",
          "name": "id",
          "type": "uint256"
        },
        {
          "internalType": "string",
          "name": "firstName",
          "type": "string"
        },
        {
          "internalType": "string",
          "name": "lastName",
          "type": "string"
        },
        {
          "internalType": "bytes",
          "name": "email",
          "type": "bytes"
        },
        {
          "internalType": "bytes",
          "name": "phoneNumber",
          "type": "bytes"
        },
        {
          "internalType": "int256",
          "name": "idNumber",
          "type": "int256"
        },
        {
          "internalType": "bytes",
          "name": "location",
          "type": "bytes"
        },
        {
          "internalType": "address payable",
          "name": "farmerAddress",
          "type": "address"
        },
        {
          "internalType": "uint256",
          "name": "createdAt",
          "type": "uint256"
        }
      ],
      "stateMutability": "view",
      "type": "function",
      "constant": true
    },
    {
      "inputs": [
        {
          "internalType": "uint256",
          "name": "",
          "type": "uint256"
        }
      ],
      "name": "farmers",
      "outputs": [
        {
          "internalType": "uint256",
          "name": "id",
          "type": "uint256"
        },
        {
          "internalType": "string",
          "name": "firstName",
          "type": "string"
        },
        {
          "internalType": "string",
          "name": "lastName",
          "type": "string"
        },
        {
          "internalType": "bytes",
          "name": "email",
          "type": "bytes"
        },
        {
          "internalType": "bytes",
          "name": "phoneNumber",
          "type": "bytes"
        },
        {
          "internalType": "int256",
          "name": "idNumber",
          "type": "int256"
        },
        {
          "internalType": "bytes",
          "name": "location",
          "type": "bytes"
        },
        {
          "internalType": "address payable",
          "name": "farmerAddress",
          "type": "address"
        },
        {
          "internalType": "uint256",
          "name": "createdAt",
          "type": "uint256"
        }
      ],
      "stateMutability": "view",
      "type": "function",
      "constant": true
    },
    {
      "inputs": [
        {
          "internalType": "bytes32",
          "name": "role",
          "type": "bytes32"
        }
      ],
      "name": "getRoleAdmin",
      "outputs": [
        {
          "internalType": "bytes32",
          "name": "",
          "type": "bytes32"
        }
      ],
      "stateMutability": "view",
      "type": "function",
      "constant": true
    },
    {
      "inputs": [
        {
          "internalType": "bytes32",
          "name": "role",
          "type": "bytes32"
        },
        {
          "internalType": "address",
          "name": "account",
          "type": "address"
        }
      ],
      "name": "grantRole",
      "outputs": [],
      "stateMutability": "nonpayable",
      "type": "function"
    },
    {
      "inputs": [
        {
          "internalType": "bytes32",
          "name": "role",
          "type": "bytes32"
        },
        {
          "internalType": "address",
          "name": "account",
          "type": "address"
        }
      ],
      "name": "hasRole",
      "outputs": [
        {
          "internalType": "bool",
          "name": "",
          "type": "bool"
        }
      ],
      "stateMutability": "view",
      "type": "function",
      "constant": true
    },
    {
      "inputs": [
        {
          "internalType": "uint256",
          "name": "",
          "type": "uint256"
        }
      ],
      "name": "isAnExistingFarmer",
      "outputs": [
        {
          "internalType": "bool",
          "name": "",
          "type": "bool"
        }
      ],
      "stateMutability": "view",
      "type": "function",
      "constant": true
    },
    {
      "inputs": [
        {
          "internalType": "address",
          "name": "",
          "type": "address"
        }
      ],
      "name": "isApprovedForMilkVending",
      "outputs": [
        {
          "internalType": "bool",
          "name": "",
          "type": "bool"
        }
      ],
      "stateMutability": "view",
      "type": "function",
      "constant": true
    },
    {
      "inputs": [
        {
          "internalType": "address",
          "name": "",
          "type": "address"
        }
      ],
      "name": "isFarmerListed",
      "outputs": [
        {
          "internalType": "bool",
          "name": "",
          "type": "bool"
        }
      ],
      "stateMutability": "view",
      "type": "function",
      "constant": true
    },
    {
      "inputs": [
        {
          "internalType": "address",
          "name": "",
          "type": "address"
        }
      ],
      "name": "isVendorListed",
      "outputs": [
        {
          "internalType": "bool",
          "name": "",
          "type": "bool"
        }
      ],
      "stateMutability": "view",
      "type": "function",
      "constant": true
    },
    {
      "inputs": [
        {
          "internalType": "uint256",
          "name": "",
          "type": "uint256"
        }
      ],
      "name": "milkDeliveries",
      "outputs": [
        {
          "internalType": "address payable",
          "name": "vendor",
          "type": "address"
        },
        {
          "internalType": "uint256",
          "name": "id",
          "type": "uint256"
        },
        {
          "internalType": "uint256",
          "name": "date",
          "type": "uint256"
        },
        {
          "internalType": "uint256",
          "name": "quantity",
          "type": "uint256"
        },
        {
          "internalType": "uint256",
          "name": "farmerId",
          "type": "uint256"
        },
        {
          "internalType": "enum MilkDelivery.MILK_QUALITY_TYPE",
          "name": "milkQualityType",
          "type": "uint8"
        }
      ],
      "stateMutability": "view",
      "type": "function",
      "constant": true
    },
    {
      "inputs": [],
      "name": "milkQualityType",
      "outputs": [
        {
          "internalType": "enum MilkDelivery.MILK_QUALITY_TYPE",
          "name": "",
          "type": "uint8"
        }
      ],
      "stateMutability": "view",
      "type": "function",
      "constant": true
    },
    {
      "inputs": [],
      "name": "owner",
      "outputs": [
        {
          "internalType": "address",
          "name": "",
          "type": "address"
        }
      ],
      "stateMutability": "view",
      "type": "function",
      "constant": true
    },
    {
      "inputs": [],
      "name": "renounceOwnership",
      "outputs": [],
      "stateMutability": "nonpayable",
      "type": "function"
    },
    {
      "inputs": [
        {
          "internalType": "bytes32",
          "name": "role",
          "type": "bytes32"
        },
        {
          "internalType": "address",
          "name": "account",
          "type": "address"
        }
      ],
      "name": "renounceRole",
      "outputs": [],
      "stateMutability": "nonpayable",
      "type": "function"
    },
    {
      "inputs": [
        {
          "internalType": "bytes32",
          "name": "role",
          "type": "bytes32"
        },
        {
          "internalType": "address",
          "name": "account",
          "type": "address"
        }
      ],
      "name": "revokeRole",
      "outputs": [],
      "stateMutability": "nonpayable",
      "type": "function"
    },
    {
      "inputs": [
        {
          "internalType": "bytes4",
          "name": "interfaceId",
          "type": "bytes4"
        }
      ],
      "name": "supportsInterface",
      "outputs": [
        {
          "internalType": "bool",
          "name": "",
          "type": "bool"
        }
      ],
      "stateMutability": "view",
      "type": "function",
      "constant": true
    },
    {
      "inputs": [],
      "name": "totalApprovedVendors",
      "outputs": [
        {
          "internalType": "uint256",
          "name": "",
          "type": "uint256"
        }
      ],
      "stateMutability": "view",
      "type": "function",
      "constant": true
    },
    {
      "inputs": [],
      "name": "totalDeliveries",
      "outputs": [
        {
          "internalType": "uint256",
          "name": "",
          "type": "uint256"
        }
      ],
      "stateMutability": "view",
      "type": "function",
      "constant": true
    },
    {
      "inputs": [],
      "name": "totalFarmers",
      "outputs": [
        {
          "internalType": "uint256",
          "name": "",
          "type": "uint256"
        }
      ],
      "stateMutability": "view",
      "type": "function",
      "constant": true
    },
    {
      "inputs": [],
      "name": "totalQuantities",
      "outputs": [
        {
          "internalType": "uint256",
          "name": "",
          "type": "uint256"
        }
      ],
      "stateMutability": "view",
      "type": "function",
      "constant": true
    },
    {
      "inputs": [],
      "name": "totalVendors",
      "outputs": [
        {
          "internalType": "uint256",
          "name": "",
          "type": "uint256"
        }
      ],
      "stateMutability": "view",
      "type": "function",
      "constant": true
    },
    {
      "inputs": [
        {
          "internalType": "address",
          "name": "newOwner",
          "type": "address"
        }
      ],
      "name": "transferOwnership",
      "outputs": [],
      "stateMutability": "nonpayable",
      "type": "function"
    },
    {
      "inputs": [
        {
          "internalType": "uint256",
          "name": "",
          "type": "uint256"
        }
      ],
      "name": "vendorById",
      "outputs": [
        {
          "internalType": "uint256",
          "name": "id",
          "type": "uint256"
        },
        {
          "internalType": "string",
          "name": "milkFactory",
          "type": "string"
        },
        {
          "internalType": "string",
          "name": "name",
          "type": "string"
        },
        {
          "internalType": "string",
          "name": "email",
          "type": "string"
        },
        {
          "internalType": "address payable",
          "name": "vendorAddress",
          "type": "address"
        },
        {
          "internalType": "uint256",
          "name": "createdAt",
          "type": "uint256"
        }
      ],
      "stateMutability": "view",
      "type": "function",
      "constant": true
    },
    {
      "inputs": [
        {
          "internalType": "address",
          "name": "",
          "type": "address"
        },
        {
          "internalType": "uint256",
          "name": "",
          "type": "uint256"
        }
      ],
      "name": "vendorQuantityByDate",
      "outputs": [
        {
          "internalType": "uint256",
          "name": "",
          "type": "uint256"
        }
      ],
      "stateMutability": "view",
      "type": "function",
      "constant": true
    },
    {
      "inputs": [
        {
          "internalType": "uint256",
          "name": "",
          "type": "uint256"
        }
      ],
      "name": "vendors",
      "outputs": [
        {
          "internalType": "uint256",
          "name": "id",
          "type": "uint256"
        },
        {
          "internalType": "string",
          "name": "milkFactory",
          "type": "string"
        },
        {
          "internalType": "string",
          "name": "name",
          "type": "string"
        },
        {
          "internalType": "string",
          "name": "email",
          "type": "string"
        },
        {
          "internalType": "address payable",
          "name": "vendorAddress",
          "type": "address"
        },
        {
          "internalType": "uint256",
          "name": "createdAt",
          "type": "uint256"
        }
      ],
      "stateMutability": "view",
      "type": "function",
      "constant": true
    },
    {
      "inputs": [
        {
          "internalType": "address",
          "name": "",
          "type": "address"
        }
      ],
      "name": "vendorsByUser",
      "outputs": [
        {
          "internalType": "uint256",
          "name": "id",
          "type": "uint256"
        },
        {
          "internalType": "string",
          "name": "milkFactory",
          "type": "string"
        },
        {
          "internalType": "string",
          "name": "name",
          "type": "string"
        },
        {
          "internalType": "string",
          "name": "email",
          "type": "string"
        },
        {
          "internalType": "address payable",
          "name": "vendorAddress",
          "type": "address"
        },
        {
          "internalType": "uint256",
          "name": "createdAt",
          "type": "uint256"
        }
      ],
      "stateMutability": "view",
      "type": "function",
      "constant": true
    },
    {
      "inputs": [
        {
          "internalType": "address",
          "name": "_vendor",
          "type": "address"
        }
      ],
      "name": "approveVendor",
      "outputs": [
        {
          "internalType": "bool",
          "name": "",
          "type": "bool"
        }
      ],
      "stateMutability": "nonpayable",
      "type": "function"
    },
    {
      "inputs": [
        {
          "internalType": "address",
          "name": "_newVendor",
          "type": "address"
        },
        {
          "internalType": "string",
          "name": "_milkFactory",
          "type": "string"
        },
        {
          "internalType": "string",
          "name": "_name",
          "type": "string"
        },
        {
          "internalType": "string",
          "name": "_email",
          "type": "string"
        }
      ],
      "name": "listNewVendor",
      "outputs": [
        {
          "internalType": "bool",
          "name": "",
          "type": "bool"
        }
      ],
      "stateMutability": "nonpayable",
      "type": "function"
    },
    {
      "inputs": [
        {
          "internalType": "address",
          "name": "_vendor",
          "type": "address"
        },
        {
          "internalType": "uint256",
          "name": "_date",
          "type": "uint256"
        }
      ],
      "name": "getVendorQuantityByDate",
      "outputs": [
        {
          "internalType": "uint256",
          "name": "",
          "type": "uint256"
        }
      ],
      "stateMutability": "view",
      "type": "function",
      "constant": true
    },
    {
      "inputs": [
        {
          "internalType": "uint256",
          "name": "_quantity",
          "type": "uint256"
        },
        {
          "internalType": "enum MilkDelivery.MILK_QUALITY_TYPE",
          "name": "_qualityType",
          "type": "uint8"
        },
        {
          "internalType": "uint256",
          "name": "_farmerId",
          "type": "uint256"
        }
      ],
      "name": "recordNewDelivery",
      "outputs": [
        {
          "internalType": "bool",
          "name": "",
          "type": "bool"
        }
      ],
      "stateMutability": "nonpayable",
      "type": "function"
    },
    {
      "inputs": [
        {
          "internalType": "address",
          "name": "_vendor",
          "type": "address"
        }
      ],
      "name": "delistVendor",
      "outputs": [
        {
          "internalType": "bool",
          "name": "",
          "type": "bool"
        }
      ],
      "stateMutability": "nonpayable",
      "type": "function"
    },
    {
      "inputs": [
        {
          "internalType": "address",
          "name": "_vendor",
          "type": "address"
        }
      ],
      "name": "revokeVendorApproval",
      "outputs": [
        {
          "internalType": "bool",
          "name": "",
          "type": "bool"
        }
      ],
      "stateMutability": "nonpayable",
      "type": "function"
    },
    {
      "inputs": [],
      "name": "totalQuantity",
      "outputs": [
        {
          "internalType": "uint256",
          "name": "",
          "type": "uint256"
        }
      ],
      "stateMutability": "view",
      "type": "function",
      "constant": true
    },
    {
      "inputs": [],
      "name": "vendorList",
      "outputs": [
        {
          "components": [
            {
              "internalType": "uint256",
              "name": "id",
              "type": "uint256"
            },
            {
              "internalType": "string",
              "name": "milkFactory",
              "type": "string"
            },
            {
              "internalType": "string",
              "name": "name",
              "type": "string"
            },
            {
              "internalType": "string",
              "name": "email",
              "type": "string"
            },
            {
              "internalType": "address payable",
              "name": "vendorAddress",
              "type": "address"
            },
            {
              "internalType": "uint256",
              "name": "createdAt",
              "type": "uint256"
            }
          ],
          "internalType": "struct MilkDelivery.Vendor[]",
          "name": "",
          "type": "tuple[]"
        }
      ],
      "stateMutability": "view",
      "type": "function",
      "constant": true
    },
    {
      "inputs": [],
      "name": "listAllDeliveryItems",
      "outputs": [
        {
          "components": [
            {
              "internalType": "address payable",
              "name": "vendor",
              "type": "address"
            },
            {
              "internalType": "uint256",
              "name": "id",
              "type": "uint256"
            },
            {
              "internalType": "uint256",
              "name": "date",
              "type": "uint256"
            },
            {
              "internalType": "uint256",
              "name": "quantity",
              "type": "uint256"
            },
            {
              "internalType": "uint256",
              "name": "farmerId",
              "type": "uint256"
            },
            {
              "internalType": "enum MilkDelivery.MILK_QUALITY_TYPE",
              "name": "milkQualityType",
              "type": "uint8"
            }
          ],
          "internalType": "struct MilkDelivery.MilkDeliveryItem[]",
          "name": "",
          "type": "tuple[]"
        }
      ],
      "stateMutability": "view",
      "type": "function",
      "constant": true
    },
    {
      "inputs": [],
      "name": "getTotalDeliveries",
      "outputs": [
        {
          "internalType": "uint256",
          "name": "",
          "type": "uint256"
        }
      ],
      "stateMutability": "view",
      "type": "function",
      "constant": true
    },
    {
      "inputs": [
        {
          "internalType": "address",
          "name": "_farmerAddress",
          "type": "address"
        },
        {
          "internalType": "string",
          "name": "_firstName",
          "type": "string"
        },
        {
          "internalType": "string",
          "name": "_lastName",
          "type": "string"
        },
        {
          "internalType": "bytes",
          "name": "_location",
          "type": "bytes"
        },
        {
          "internalType": "bytes",
          "name": "_phoneNumber",
          "type": "bytes"
        },
        {
          "internalType": "bytes",
          "name": "_email",
          "type": "bytes"
        },
        {
          "internalType": "int256",
          "name": "_idNumber",
          "type": "int256"
        }
      ],
      "name": "addNewFarmer",
      "outputs": [
        {
          "internalType": "bool",
          "name": "success",
          "type": "bool"
        }
      ],
      "stateMutability": "nonpayable",
      "type": "function"
    },
    {
      "inputs": [
        {
          "internalType": "uint256",
          "name": "_farmerId",
          "type": "uint256"
        }
      ],
      "name": "getFarmerById",
      "outputs": [
        {
          "components": [
            {
              "internalType": "uint256",
              "name": "id",
              "type": "uint256"
            },
            {
              "internalType": "string",
              "name": "firstName",
              "type": "string"
            },
            {
              "internalType": "string",
              "name": "lastName",
              "type": "string"
            },
            {
              "internalType": "bytes",
              "name": "email",
              "type": "bytes"
            },
            {
              "internalType": "bytes",
              "name": "phoneNumber",
              "type": "bytes"
            },
            {
              "internalType": "int256",
              "name": "idNumber",
              "type": "int256"
            },
            {
              "internalType": "bytes",
              "name": "location",
              "type": "bytes"
            },
            {
              "internalType": "address payable",
              "name": "farmerAddress",
              "type": "address"
            },
            {
              "internalType": "uint256",
              "name": "createdAt",
              "type": "uint256"
            }
          ],
          "internalType": "struct MilkDelivery.Farmer",
          "name": "",
          "type": "tuple"
        }
      ],
      "stateMutability": "view",
      "type": "function",
      "constant": true
    }
  ],
  "bytecode": "0x608060405260006006556000600755600060085560006009556000600a5534801561002957600080fd5b5061003333610038565b610088565b600080546001600160a01b038381166001600160a01b0319831681178455604051919092169283917f8be0079c531659141344cd1fd0a4f28419497f9722a3daafe3b4186f6b6457e09190a35050565b6131a180620000986000396000f3fe608060405234801561001057600080fd5b506004361061025e5760003560e01c80638afdd66911610146578063c824e088116100c3578063df627c2a11610087578063df627c2a146105f7578063e128e23414610647578063e1efa47314610650578063ef4c797014610663578063f2fde38b1461066c578063f8a529231461067f57600080fd5b8063c824e0881461057e578063d15d79ae146105a9578063d547741f146105bc578063db0b81bb146105cf578063ddc00f3b146105e257600080fd5b8063a217fddf1161010a578063a217fddf14610520578063a3246c7714610528578063a420623b1461054b578063c616f4121461056e578063c70b3b4c1461057657600080fd5b80638afdd669146104cd5780638da5cb5b146104e057806391d14854146104f157806398faad5514610504578063a08d986d1461050d57600080fd5b806361aa839e116101df578063715018a6116101a3578063715018a6146104195780637fd8fc3d14610421578063809d35db1461043457806383377d1014610457578063868947c91461047f57806386f22dbd146104aa57600080fd5b806361aa839e146103695780636c1c13a8146103895780636ea8b002146103a3578063707be4ac146103b65780637129bbb71461040657600080fd5b80633c4f0c29116102265780633c4f0c29146102ee5780633df0acc9146103035780634ca5d1421461032857806354f97a611461034d5780636017509b1461036057600080fd5b806301ffc9a7146102635780630c59d6391461028b578063248a9ca3146102a25780632f2ff15d146102c657806336568abe146102db575b600080fd5b610276610271366004612886565b610692565b60405190151581526020015b60405180910390f35b61029460085481565b604051908152602001610282565b6102946102b03660046128b0565b6000908152600160208190526040909120015490565b6102d96102d43660046128e5565b6106c9565b005b6102d96102e93660046128e5565b6106f5565b6102f6610778565b6040516102829190612949565b6103166103113660046129d6565b610846565b60405161028296959493929190612a4d565b61033b6103363660046128b0565b610a1d565b60405161028296959493929190612aab565b61027661035b3660046129d6565b610a70565b610294600a5481565b61037c6103773660046128b0565b610ba2565b6040516102829190612aef565b6005546103969060ff1681565b6040516102829190612bc8565b6102766103b13660046129d6565b610f2b565b61033b6103c43660046128b0565b6016602052600090815260409020805460018201546002830154600384015460048501546005909501546001600160a01b039094169492939192909160ff1686565b610294610414366004612bd6565b611038565b6102d9611076565b61027661042f366004612ca3565b6110ac565b6102766104423660046128b0565b60186020526000908152604090205460ff1681565b61046a6104653660046128b0565b6113fc565b60405161028299989796959493929190612d8f565b61049261048d3660046128b0565b6116f5565b6040516001600160a01b039091168152602001610282565b6102766104b83660046129d6565b600f6020526000908152604090205460ff1681565b61046a6104db3660046128b0565b61171f565b6000546001600160a01b0316610492565b6102766104ff3660046128e5565b611754565b61029460065481565b61031661051b3660046128b0565b61177f565b610294600081565b6102766105363660046129d6565b60146020526000908152604090205460ff1681565b6102766105593660046129d6565b60136020526000908152604090205460ff1681565b600754610294565b600854610294565b61029461058c366004612bd6565b601160209081526000928352604080842090915290825290205481565b6102766105b7366004612e22565b6117b4565b6102d96105ca3660046128e5565b611bb1565b6103166105dd3660046128b0565b611bd8565b6105ea611bfa565b6040516102829190612ebb565b61033b6106053660046129d6565b6010602052600090815260409020805460018201546002830154600384015460048501546005909501546001600160a01b039094169492939192909160ff1686565b61029460075481565b61027661065e366004612f84565b611e33565b61029460095481565b6102d961067a3660046129d6565b6122e5565b61027661068d3660046129d6565b612380565b60006001600160e01b03198216637965db0b60e01b14806106c357506301ffc9a760e01b6001600160e01b03198316145b92915050565b600082815260016020819052604090912001546106e681336124ac565b6106f08383612510565b505050565b6001600160a01b038116331461076a5760405162461bcd60e51b815260206004820152602f60248201527f416363657373436f6e74726f6c3a2063616e206f6e6c792072656e6f756e636560448201526e103937b632b9903337b91039b2b63360891b60648201526084015b60405180910390fd5b610774828261257b565b5050565b6060600c805480602002602001604051908101604052809291908181526020016000905b8282101561083d5760008481526020908190206040805160c0810182526006860290920180546001600160a01b03168352600181015493830193909352600283015490820152600380830154606083015260048301546080830152600583015491929160a084019160ff9091169081111561081957610819612911565b600381111561082a5761082a612911565b815250508152602001906001019061079c565b50505050905090565b6012602052600090815260409020805460018201805491929161086890612fc0565b80601f016020809104026020016040519081016040528092919081815260200182805461089490612fc0565b80156108e15780601f106108b6576101008083540402835291602001916108e1565b820191906000526020600020905b8154815290600101906020018083116108c457829003601f168201915b5050505050908060020180546108f690612fc0565b80601f016020809104026020016040519081016040528092919081815260200182805461092290612fc0565b801561096f5780601f106109445761010080835404028352916020019161096f565b820191906000526020600020905b81548152906001019060200180831161095257829003601f168201915b50505050509080600301805461098490612fc0565b80601f01602080910402602001604051908101604052809291908181526020018280546109b090612fc0565b80156109fd5780601f106109d2576101008083540402835291602001916109fd565b820191906000526020600020905b8154815290600101906020018083116109e057829003601f168201915b50505050600483015460059093015491926001600160a01b031691905086565b600c8181548110610a2d57600080fd5b60009182526020909120600690910201805460018201546002830154600384015460048501546005909501546001600160a01b0390941695509193909260ff1686565b600080546001600160a01b03163314610a9b5760405162461bcd60e51b815260040161076190612ff4565b816001600160a01b038116610ac25760405162461bcd60e51b815260040161076190613029565b6001600160a01b0381166000908152600f602052604090205460ff161515600114610b255760405162461bcd60e51b815260206004820152601360248201527215995b991bdc88139bdd08105c1c1c9bdd9959606a1b6044820152606401610761565b6001600160a01b0383166000908152600f60205260409020805460ff19169055600954610b539060016125e2565b60095560405142815233906001600160a01b038516907fb5a2fcb0e25435e1bc8c82c0624a166cb5281d2614da6819cb253686224078e9906020015b60405180910390a3600191505b50919050565b610bfa6040518061012001604052806000815260200160608152602001606081526020016060815260200160608152602001600081526020016060815260200160006001600160a01b03168152602001600081525090565b601760008381526020019081526020016000206040518061012001604052908160008201548152602001600182018054610c3390612fc0565b80601f0160208091040260200160405190810160405280929190818152602001828054610c5f90612fc0565b8015610cac5780601f10610c8157610100808354040283529160200191610cac565b820191906000526020600020905b815481529060010190602001808311610c8f57829003601f168201915b50505050508152602001600282018054610cc590612fc0565b80601f0160208091040260200160405190810160405280929190818152602001828054610cf190612fc0565b8015610d3e5780601f10610d1357610100808354040283529160200191610d3e565b820191906000526020600020905b815481529060010190602001808311610d2157829003601f168201915b50505050508152602001600382018054610d5790612fc0565b80601f0160208091040260200160405190810160405280929190818152602001828054610d8390612fc0565b8015610dd05780601f10610da557610100808354040283529160200191610dd0565b820191906000526020600020905b815481529060010190602001808311610db357829003601f168201915b50505050508152602001600482018054610de990612fc0565b80601f0160208091040260200160405190810160405280929190818152602001828054610e1590612fc0565b8015610e625780601f10610e3757610100808354040283529160200191610e62565b820191906000526020600020905b815481529060010190602001808311610e4557829003601f168201915b5050505050815260200160058201548152602001600682018054610e8590612fc0565b80601f0160208091040260200160405190810160405280929190818152602001828054610eb190612fc0565b8015610efe5780601f10610ed357610100808354040283529160200191610efe565b820191906000526020600020905b815481529060010190602001808311610ee157829003601f168201915b505050918352505060078201546001600160a01b0316602082015260089091015460409091015292915050565b600080546001600160a01b03163314610f565760405162461bcd60e51b815260040161076190612ff4565b816001600160a01b038116610f7d5760405162461bcd60e51b815260040161076190613029565b6001600160a01b03811660009081526013602052604090205460ff161515600114610fe35760405162461bcd60e51b8152602060048201526016602482015275135a5b1ac815995b991bdc881b9bdd081b1a5cdd195960521b6044820152606401610761565b6001600160a01b03831660008181526013602052604090819020805460ff19169055513391907fc1519c40dfbaa692a1c12680413675b407827248b9252fa6cd30611669cf8abf90610b8f9042815260200190565b60006001600160a01b03831661104d57600080fd5b506001600160a01b03919091166000908152601160209081526040808320938352929052205490565b6000546001600160a01b031633146110a05760405162461bcd60e51b815260040161076190612ff4565b6110aa60006125f5565b565b6001600160a01b038716600090815260146020526040812054889060ff161561110f5760405162461bcd60e51b8152602060048201526015602482015274151a1a5cc811985c9b595c881a5cc8131a5cdd1959605a1b6044820152606401610761565b61111d600480546001019055565b600061112860045490565b905060006040518061012001604052808381526020018b81526020018a81526020018781526020018881526020018681526020018981526020018c6001600160a01b0316815260200142815250905061118d6001600a5461264590919063ffffffff16565b600a556001600160a01b038b1660009081526014602090815260408220805460ff19166001908117909155600e80549182018155909252825160099092027fbb7b4a454dc3493923482f07822329ed19e8244eff582cc204f8554c3620c3fd8101928355838201518051859493611228937fbb7b4a454dc3493923482f07822329ed19e8244eff582cc204f8554c3620c3fe019201906127ed565b50604082015180516112449160028401916020909101906127ed565b50606082015180516112609160038401916020909101906127ed565b506080820151805161127c9160048401916020909101906127ed565b5060a0820151600582015560c082015180516112a29160068401916020909101906127ed565b5060e08201516007820180546001600160a01b0319166001600160a01b039092169190911790556101009091015160089091015560008281526017602090815260409091208251815582820151805184936113049260018501929101906127ed565b50604082015180516113209160028401916020909101906127ed565b506060820151805161133c9160038401916020909101906127ed565b50608082015180516113589160048401916020909101906127ed565b5060a0820151600582015560c0820151805161137e9160068401916020909101906127ed565b5060e08201516007820180546001600160a01b0319166001600160a01b039283161790556101009092015160089091015560408051848152426020820152918d16917fd638dce2a08f79e2e94ab494351b6d24a5103107d73c6a04ac5db25fb3c41a17910160405180910390a25060019a9950505050505050505050565b6017602052600090815260409020805460018201805491929161141e90612fc0565b80601f016020809104026020016040519081016040528092919081815260200182805461144a90612fc0565b80156114975780601f1061146c57610100808354040283529160200191611497565b820191906000526020600020905b81548152906001019060200180831161147a57829003601f168201915b5050505050908060020180546114ac90612fc0565b80601f01602080910402602001604051908101604052809291908181526020018280546114d890612fc0565b80156115255780601f106114fa57610100808354040283529160200191611525565b820191906000526020600020905b81548152906001019060200180831161150857829003601f168201915b50505050509080600301805461153a90612fc0565b80601f016020809104026020016040519081016040528092919081815260200182805461156690612fc0565b80156115b35780601f10611588576101008083540402835291602001916115b3565b820191906000526020600020905b81548152906001019060200180831161159657829003601f168201915b5050505050908060040180546115c890612fc0565b80601f01602080910402602001604051908101604052809291908181526020018280546115f490612fc0565b80156116415780601f1061161657610100808354040283529160200191611641565b820191906000526020600020905b81548152906001019060200180831161162457829003601f168201915b50505050509080600501549080600601805461165c90612fc0565b80601f016020809104026020016040519081016040528092919081815260200182805461168890612fc0565b80156116d55780601f106116aa576101008083540402835291602001916116d5565b820191906000526020600020905b8154815290600101906020018083116116b857829003601f168201915b50505050600783015460089093015491926001600160a01b031691905089565b600d818154811061170557600080fd5b6000918252602090912001546001600160a01b0316905081565b600e818154811061172f57600080fd5b6000918252602090912060099091020180546001820180549193509061141e90612fc0565b60009182526001602090815260408084206001600160a01b0393909316845291905290205460ff1690565b600b818154811061178f57600080fd5b6000918252602090912060069091020180546001820180549193509061086890612fc0565b600080546001600160a01b031633146117df5760405162461bcd60e51b815260040161076190612ff4565b846001600160a01b0381166118065760405162461bcd60e51b815260040161076190613029565b6001600160a01b03811660009081526013602052604090205460ff16156118675760405162461bcd60e51b8152602060048201526015602482015274135a5b1ac815995b991bdc881a5cc81b1a5cdd1959605a1b6044820152606401610761565b60008551116118b85760405162461bcd60e51b815260206004820152601f60248201527f4e6577204d696c6b2056656e646f72203d3e204e756c6c20466163746f7279006044820152606401610761565b60008451116119155760405162461bcd60e51b815260206004820152602360248201527f4e6577204d696c6b2056656e646f72203d3e204e756c6c2056656e646f72204e604482015262616d6560e81b6064820152608401610761565b60008351116119725760405162461bcd60e51b8152602060048201526024808201527f4e6577204d696c6b2056656e646f72203d3e204e756c6c2056656e646f7220456044820152631b585a5b60e21b6064820152608401610761565b611980600380546001019055565b600061198b60035490565b6040805160c08101825282815260208082018a8152928201899052606082018890526001600160a01b038b1660808301524260a0830152600b8054600181018255600091909152825160069091027f0175b7a638427703f0dbe7bb9bbf987a2551717b34e79f33b5b1008d1fa01db9810191825593518051959650929485949193611a3c937f0175b7a638427703f0dbe7bb9bbf987a2551717b34e79f33b5b1008d1fa01dba9093019201906127ed565b5060408201518051611a589160028401916020909101906127ed565b5060608201518051611a749160038401916020909101906127ed565b5060808201516004820180546001600160a01b0319166001600160a01b0390921691909117905560a090910151600590910155336000908152601260209081526040909120825181558282015180518493611ad69260018501929101906127ed565b5060408201518051611af29160028401916020909101906127ed565b5060608201518051611b0e9160038401916020909101906127ed565b5060808201516004820180546001600160a01b0319166001600160a01b0392831617905560a09092015160059091015588166000908152601360205260409020805460ff19166001908117909155600654611b6891612645565b600655604051429033906001600160a01b038b16907ff2ec7d1becaa3243fd29d0fc48bde1dd19c594104b9ce00eb188b9797face12d90600090a4506001979650505050505050565b60008281526001602081905260409091200154611bce81336124ac565b6106f0838361257b565b6015602052600090815260409020805460018201805491929161086890612fc0565b6060600b805480602002602001604051908101604052809291908181526020016000905b8282101561083d57838290600052602060002090600602016040518060c001604052908160008201548152602001600182018054611c5b90612fc0565b80601f0160208091040260200160405190810160405280929190818152602001828054611c8790612fc0565b8015611cd45780601f10611ca957610100808354040283529160200191611cd4565b820191906000526020600020905b815481529060010190602001808311611cb757829003601f168201915b50505050508152602001600282018054611ced90612fc0565b80601f0160208091040260200160405190810160405280929190818152602001828054611d1990612fc0565b8015611d665780601f10611d3b57610100808354040283529160200191611d66565b820191906000526020600020905b815481529060010190602001808311611d4957829003601f168201915b50505050508152602001600382018054611d7f90612fc0565b80601f0160208091040260200160405190810160405280929190818152602001828054611dab90612fc0565b8015611df85780601f10611dcd57610100808354040283529160200191611df8565b820191906000526020600020905b815481529060010190602001808311611ddb57829003601f168201915b505050918352505060048201546001600160a01b03166020808301919091526005909201546040909101529082526001929092019101611c1e565b60003380611e535760405162461bcd60e51b815260040161076190613029565b6001600160a01b03811660009081526013602052604090205460ff161515600114611eb95760405162461bcd60e51b8152602060048201526016602482015275135a5b1ac815995b991bdc881b9bdd081b1a5cdd195960521b6044820152606401610761565b3380611ed75760405162461bcd60e51b815260040161076190613029565b6001600160a01b0381166000908152600f602052604090205460ff161515600114611f3a5760405162461bcd60e51b815260206004820152601360248201527215995b991bdc88139bdd08105c1c1c9bdd9959606a1b6044820152606401610761565b600084815260186020526040902054849060ff161515600114611f9f5760405162461bcd60e51b815260206004820152601860248201527f4661726d657220494420646f6573206e6f7420657869737400000000000000006044820152606401610761565b8660000361200d5760405162461bcd60e51b815260206004820152603560248201527f4e6577204d696c6b2044656c6976657279204974656d3a203d3e205a65726f20604482015274145d585b9d1a5d1e48139bdd081058d8d95c1d1959605a1b6064820152608401610761565b61201b600280546001019055565b600061202660025490565b905060006040518060c00160405280336001600160a01b031681526020018381526020014281526020018a815260200188815260200189600381111561206e5761206e612911565b9052600c80546001808201835560009290925282517fdf6966c971051c3d54ec59162606531493a51404a002842f56009d7e5cf4a8c7600690920291820180546001600160a01b0319166001600160a01b0390921691909117815560208401517fdf6966c971051c3d54ec59162606531493a51404a002842f56009d7e5cf4a8c883015560408401517fdf6966c971051c3d54ec59162606531493a51404a002842f56009d7e5cf4a8c983015560608401517fdf6966c971051c3d54ec59162606531493a51404a002842f56009d7e5cf4a8ca83015560808401517fdf6966c971051c3d54ec59162606531493a51404a002842f56009d7e5cf4a8cb83015560a08401517fdf6966c971051c3d54ec59162606531493a51404a002842f56009d7e5cf4a8cc909201805494955085949193909160ff1916908360038111156121b8576121b8612911565b02179055505033600090815260106020908152604091829020845181546001600160a01b0319166001600160a01b039091161781559084015160018083019190915591840151600282015560608401516003808301919091556080850151600483015560a085015160058301805487965093949193909260ff199091169190849081111561224857612248612911565b02179055505033600090815260116020908152604080832042845290915290208a90555060085461227a906001612645565b60085560075461228a908a612645565b60075587600381111561229f5761229f612911565b6040514281528a9033907f85f3f3a7f3ef4c556d64244b4b4b8bd8a4d3977d27b6f270cafe93466f8001649060200160405180910390a450600198975050505050505050565b6000546001600160a01b0316331461230f5760405162461bcd60e51b815260040161076190612ff4565b6001600160a01b0381166123745760405162461bcd60e51b815260206004820152602660248201527f4f776e61626c653a206e6577206f776e657220697320746865207a65726f206160448201526564647265737360d01b6064820152608401610761565b61237d816125f5565b50565b600080546001600160a01b031633146123ab5760405162461bcd60e51b815260040161076190612ff4565b816001600160a01b0381166123d25760405162461bcd60e51b815260040161076190613029565b6001600160a01b0381166000908152600f602052604090205460ff161561242d5760405162461bcd60e51b815260206004820152600f60248201526e15995b991bdc88105c1c1c9bdd9959608a1b6044820152606401610761565b6001600160a01b0383166000818152600f60205260408120805460ff19166001908117909155600d8054808301825592527fd7b6990105719101dabeb77144f2a3385c8033acd3af97e9423a695e81ad1eb590910180546001600160a01b0319169092179091556009546124a091612645565b60095550600192915050565b6124b68282611754565b610774576124ce816001600160a01b03166014612651565b6124d9836020612651565b6040516020016124ea929190613052565b60408051601f198184030181529082905262461bcd60e51b8252610761916004016130c7565b61251a8282611754565b6107745760008281526001602081815260408084206001600160a01b0386168086529252808420805460ff19169093179092559051339285917f2f8788117e7eff1d82e926ec794901d17c78024a50270940304540a733656f0d9190a45050565b6125858282611754565b156107745760008281526001602090815260408083206001600160a01b0385168085529252808320805460ff1916905551339285917ff6391f5c32d9c69d2a47ea670b442974b53935d1edc7fd64eb21e047a839171b9190a45050565b60006125ee82846130f0565b9392505050565b600080546001600160a01b038381166001600160a01b0319831681178455604051919092169283917f8be0079c531659141344cd1fd0a4f28419497f9722a3daafe3b4186f6b6457e09190a35050565b60006125ee8284613107565b6060600061266083600261311f565b61266b906002613107565b67ffffffffffffffff81111561268357612683612c00565b6040519080825280601f01601f1916602001820160405280156126ad576020820181803683370190505b509050600360fc1b816000815181106126c8576126c861313e565b60200101906001600160f81b031916908160001a905350600f60fb1b816001815181106126f7576126f761313e565b60200101906001600160f81b031916908160001a905350600061271b84600261311f565b612726906001613107565b90505b600181111561279e576f181899199a1a9b1b9c1cb0b131b232b360811b85600f166010811061275a5761275a61313e565b1a60f81b8282815181106127705761277061313e565b60200101906001600160f81b031916908160001a90535060049490941c9361279781613154565b9050612729565b5083156125ee5760405162461bcd60e51b815260206004820181905260248201527f537472696e67733a20686578206c656e67746820696e73756666696369656e746044820152606401610761565b8280546127f990612fc0565b90600052602060002090601f01602090048101928261281b5760008555612861565b82601f1061283457805160ff1916838001178555612861565b82800160010185558215612861579182015b82811115612861578251825591602001919060010190612846565b5061286d929150612871565b5090565b5b8082111561286d5760008155600101612872565b60006020828403121561289857600080fd5b81356001600160e01b0319811681146125ee57600080fd5b6000602082840312156128c257600080fd5b5035919050565b80356001600160a01b03811681146128e057600080fd5b919050565b600080604083850312156128f857600080fd5b82359150612908602084016128c9565b90509250929050565b634e487b7160e01b600052602160045260246000fd5b6004811061294557634e487b7160e01b600052602160045260246000fd5b9052565b602080825282518282018190526000919060409081850190868401855b828110156129c957815180516001600160a01b0316855286810151878601528581015186860152606080820151908601526080808201519086015260a090810151906129b486820183612927565b505060c0939093019290850190600101612966565b5091979650505050505050565b6000602082840312156129e857600080fd5b6125ee826128c9565b60005b83811015612a0c5781810151838201526020016129f4565b83811115612a1b576000848401525b50505050565b60008151808452612a398160208601602086016129f1565b601f01601f19169290920160200192915050565b86815260c060208201526000612a6660c0830188612a21565b8281036040840152612a788188612a21565b90508281036060840152612a8c8187612a21565b6001600160a01b03959095166080840152505060a00152949350505050565b6001600160a01b03871681526020810186905260408101859052606081018490526080810183905260c08101612ae460a0830184612927565b979650505050505050565b602081528151602082015260006020830151610120806040850152612b18610140850183612a21565b91506040850151601f1980868503016060870152612b368483612a21565b93506060870151915080868503016080870152612b538483612a21565b935060808701519150808685030160a0870152612b708483612a21565b935060a087015160c087015260c08701519150808685030160e087015250612b988382612a21565b92505060e0850151610100612bb7818701836001600160a01b03169052565b959095015193019290925250919050565b602081016106c38284612927565b60008060408385031215612be957600080fd5b612bf2836128c9565b946020939093013593505050565b634e487b7160e01b600052604160045260246000fd5b600082601f830112612c2757600080fd5b813567ffffffffffffffff80821115612c4257612c42612c00565b604051601f8301601f19908116603f01168101908282118183101715612c6a57612c6a612c00565b81604052838152866020858801011115612c8357600080fd5b836020870160208301376000602085830101528094505050505092915050565b600080600080600080600060e0888a031215612cbe57600080fd5b612cc7886128c9565b9650602088013567ffffffffffffffff80821115612ce457600080fd5b612cf08b838c01612c16565b975060408a0135915080821115612d0657600080fd5b612d128b838c01612c16565b965060608a0135915080821115612d2857600080fd5b612d348b838c01612c16565b955060808a0135915080821115612d4a57600080fd5b612d568b838c01612c16565b945060a08a0135915080821115612d6c57600080fd5b50612d798a828b01612c16565b92505060c0880135905092959891949750929550565b60006101208b8352806020840152612da98184018c612a21565b90508281036040840152612dbd818b612a21565b90508281036060840152612dd1818a612a21565b90508281036080840152612de58189612a21565b90508660a084015282810360c0840152612dff8187612a21565b6001600160a01b039590951660e084015250506101000152979650505050505050565b60008060008060808587031215612e3857600080fd5b612e41856128c9565b9350602085013567ffffffffffffffff80821115612e5e57600080fd5b612e6a88838901612c16565b94506040870135915080821115612e8057600080fd5b612e8c88838901612c16565b93506060870135915080821115612ea257600080fd5b50612eaf87828801612c16565b91505092959194509250565b60006020808301818452808551808352604092508286019150828160051b87010184880160005b83811015612f7657603f19898403018552815160c08151855288820151818a870152612f1082870182612a21565b9150508782015185820389870152612f288282612a21565b91505060608083015186830382880152612f428382612a21565b6080858101516001600160a01b03169089015260a09485015194909701939093525050509386019390860190600101612ee2565b509098975050505050505050565b600080600060608486031215612f9957600080fd5b83359250602084013560048110612faf57600080fd5b929592945050506040919091013590565b600181811c90821680612fd457607f821691505b602082108103610b9c57634e487b7160e01b600052602260045260246000fd5b6020808252818101527f4f776e61626c653a2063616c6c6572206973206e6f7420746865206f776e6572604082015260600190565b6020808252600f908201526e496e76616c6964204164647265737360881b604082015260600190565b7f416363657373436f6e74726f6c3a206163636f756e742000000000000000000081526000835161308a8160178501602088016129f1565b7001034b99036b4b9b9b4b733903937b6329607d1b60179184019182015283516130bb8160288401602088016129f1565b01602801949350505050565b6020815260006125ee6020830184612a21565b634e487b7160e01b600052601160045260246000fd5b600082821015613102576131026130da565b500390565b6000821982111561311a5761311a6130da565b500190565b6000816000190483118215151615613139576131396130da565b500290565b634e487b7160e01b600052603260045260246000fd5b600081613163576131636130da565b50600019019056fea264697066735822122018bf41b65b5aa85f090cb7739a71ca3763bcfbb2f4f96e70ef923a43c8f6ed6f64736f6c634300080d0033",
  "immutableReferences": {},
  "source": "// SPDX-License-Identifier: MIT\r\npragma solidity ^0.8.0;\r\nimport \"@openzeppelin/contracts/access/Ownable.sol\";\r\nimport \"@openzeppelin/contracts/access/AccessControl.sol\";\r\nimport \"@openzeppelin/contracts/utils/math/SafeMath.sol\";\r\nimport \"@openzeppelin/contracts/utils/Counters.sol\";\r\nimport \"./interfaces/MilkDeliveryInterface.sol\";\r\n\r\n/**\r\n  * @title Milk Delivery Contract\r\n  * @dev A smart contract that enables dairy farmers to record their daily produce\r\n */\r\ncontract MilkDelivery is Ownable, AccessControl,MilkDeliveryInterface {\r\n  using SafeMath for uint256;\r\n  using Counters for Counters.Counter;\r\n\r\n  Counters.Counter private milkDeliveryIds; //to help track milk delivery items by ID e.g 1\r\n  Counters.Counter private vendorIds; //to help track vendors by ID e.g 1\r\n  Counters.Counter private farmerIds;\r\n\r\n  enum MILK_QUALITY_TYPE { GOOD, STALE, PERFECT, BAD } //quality types\r\n  MILK_QUALITY_TYPE public milkQualityType; //in order to access the enum via a variable\r\n\r\n  //Vendor struct with vendor particulars/details\r\n  struct Vendor{\r\n    uint id;\r\n    string milkFactory;\r\n    string name;\r\n    string email;\r\n    address payable vendorAddress;\r\n    uint createdAt;\r\n    //bool isApproved;\r\n    //bool isListed;\r\n  }\r\n\r\n  //Delivery struct with delivery item particulars\r\n  struct MilkDeliveryItem{\r\n    address payable vendor;\r\n    uint id;\r\n    uint date;\r\n    uint quantity;\r\n    uint farmerId;\r\n    MILK_QUALITY_TYPE milkQualityType;\r\n  }\r\n\r\n  struct Farmer{\r\n    uint id;\r\n    string firstName;\r\n    string lastName;\r\n    bytes email;\r\n    bytes phoneNumber;\r\n    int idNumber;\r\n    bytes location;\r\n    address payable farmerAddress;\r\n    uint createdAt;\r\n  }\r\n\r\n  uint public totalVendors = 0; //total vendors initialised to 0\r\n  uint public totalQuantities = 0; //keeps track of total milk quantity recorded on-chain\r\n  uint public totalDeliveries = 0; //to handle incrementing of overral milk quantities\r\n  uint public totalApprovedVendors = 0; // shall be incremented and decremented accordingly\r\n\r\n  uint public totalFarmers = 0;\r\n\r\n  Vendor[] public vendors; //an array of the vendors\r\n  MilkDeliveryItem[] public milkDeliveries; //to help keep track of delivery items as an array\r\n  address[] public approvedVendors; //the addresses of the approved vendors\r\n  \r\n  Farmer[] public farmers;\r\n\r\n  mapping(address => bool) public isApprovedForMilkVending; //a boolean indicating whether a vendor has been approved\r\n  mapping(address => MilkDeliveryItem) public deliveryItemByVendor; //get the delivery item by vendor identified by an address\r\n  mapping(address => mapping(uint => uint)) public vendorQuantityByDate; //keeps track of the total quantity of the vendor by date [address][date][quantity]\r\n  mapping(address => Vendor) public vendorsByUser; //who added thie vendor item\r\n  mapping(address => bool) public isVendorListed; //to show whether this address is listed as a vendor or not\r\n  mapping(address => bool) public isFarmerListed;\r\n\r\n  mapping(uint => Vendor) public vendorById; //a mapping of the vebdor id to the struct item\r\n  mapping(uint => MilkDeliveryItem) public deliveryItemById; // a mapping of the delivery item  by it's id\r\n  mapping(uint => Farmer) public farmerById;\r\n  mapping(uint => bool) public isAnExistingFarmer;\r\n\r\n  event NewMilkDeliveryRecorded(address indexed vendor, uint indexed quantity, MILK_QUALITY_TYPE indexed quality, uint date);\r\n  event NewMilkVendorAdded(address indexed vendor, address indexed addedBy, uint indexed date);\r\n  event MilkVendorDisapproved(address indexed vendor, address indexed caller, uint date); //address[] indexed approvedVendors\r\n  event MilkVendorDelisted(address indexed vendor, address indexed caller, uint date);\r\n  event NewFarmer(address indexed farmerAddress, uint id, uint dateAdded );\r\n\r\n  constructor() public {\r\n  }\r\n\r\n  modifier isApprovedForVending(address _vendor){\r\n    require(_vendor != address(0),\"Invalid Address\");\r\n    require(isApprovedForMilkVending[_vendor] == true,\"Vendor Not Approved\");\r\n    _;\r\n  }\r\n\r\n  modifier isNotApprovedForVending(address _vendor){\r\n    require(_vendor != address(0),\"Invalid Address\");\r\n    require(isApprovedForMilkVending[_vendor] == false,\"Vendor Approved\");\r\n    _;\r\n  }\r\n\r\n  modifier isListedAsAvendor(address _vendor){\r\n    require(_vendor != address(0),\"Invalid Address\");\r\n    require(isVendorListed[_vendor] == true,\"Milk Vendor not listed\");\r\n    _;\r\n  }\r\n\r\n  modifier vendorNotListed(address _vendor){\r\n    require(_vendor != address(0),\"Invalid Address\");\r\n    require(isVendorListed[_vendor] == false,\"Milk Vendor is listed\");\r\n    _;\r\n  }\r\n\r\n  modifier farmerNotListed(address _farmerAddress){\r\n    require(isFarmerListed[_farmerAddress] == false,\"This Farmer is Listed\");\r\n    _;\r\n  }\r\n   \r\n   modifier farmerExists(uint _farmerId){\r\n     require(isAnExistingFarmer[_farmerId] == true,\"Farmer ID does not exist\");\r\n     _;\r\n   }\r\n  /**\r\n    * @dev approves a vendor for milk delivery, only performed by the contract owner\r\n    * @param _vendor address\r\n   */\r\n   function approveVendor(address _vendor) public onlyOwner isNotApprovedForVending(_vendor) returns(bool){\r\n      isApprovedForMilkVending[_vendor] = true;\r\n      approvedVendors.push(_vendor);\r\n      totalApprovedVendors = totalApprovedVendors.add(1);\r\n      return true;\r\n   }\r\n\r\n  /**\r\n    * @dev enables only the contract owner to add a new vendor\r\n    * @param _newVendor address \r\n    * @param _milkFactory string\r\n    * @param _name string\r\n    * @param _email string \r\n   */\r\n  function listNewVendor(address _newVendor, string memory _milkFactory, string memory _name, string memory _email) public   \r\n  onlyOwner\r\n  vendorNotListed(_newVendor)\r\n  returns(bool) \r\n  {\r\n    //onlyOwner\r\n      require(bytes(_milkFactory).length > 0, \"New Milk Vendor => Null Factory\");\r\n      require(bytes(_name).length > 0, \"New Milk Vendor => Null Vendor Name\");\r\n      require(bytes(_email).length > 0, \"New Milk Vendor => Null Vendor Email\");\r\n\r\n      vendorIds.increment();\r\n      uint currentVendorId = vendorIds.current();\r\n      Vendor memory newMilkVendor = Vendor(currentVendorId,_milkFactory,_name,_email, payable(_newVendor), block.timestamp);\r\n      vendors.push(newMilkVendor);\r\n      vendorsByUser[msg.sender] = newMilkVendor;\r\n      isVendorListed[_newVendor] = true;\r\n      totalVendors = totalVendors.add(1);\r\n      emit NewMilkVendorAdded(_newVendor, msg.sender, block.timestamp);\r\n      return true;\r\n  }\r\n\r\n  /**\r\n   * @dev returns the total quantity of milk recorded by a vendor on a specific date\r\n   * @param _vendor address\r\n   * @param _date uint\r\n   */\r\n  function getVendorQuantityByDate(address _vendor, uint _date) public view returns(uint){\r\n    require(_vendor != address(0)); //Not an empty address\r\n    return vendorQuantityByDate[_vendor][_date];\r\n  }\r\n\r\n  /**\r\n    * @dev record a new milk delivery\r\n    * @param _quantity uint\r\n    * @param _qualityType enum\r\n   */\r\n  function recordNewDelivery(uint _quantity, MILK_QUALITY_TYPE _qualityType, uint _farmerId) public \r\n  isListedAsAvendor(msg.sender) \r\n  isApprovedForVending(msg.sender) \r\n  farmerExists(_farmerId)\r\n  returns(bool)\r\n  {\r\n    require( _quantity != 0,\"New Milk Delivery Item: => Zero Quantity Not Accepted\");\r\n    milkDeliveryIds.increment();\r\n    uint currentDeliveryId = milkDeliveryIds.current();\r\n    MilkDeliveryItem memory newMilkDeliveryItem = MilkDeliveryItem(payable(msg.sender),currentDeliveryId, block.timestamp,_quantity,_farmerId,_qualityType);\r\n    milkDeliveries.push(newMilkDeliveryItem);\r\n    deliveryItemByVendor[msg.sender] = newMilkDeliveryItem;\r\n    vendorQuantityByDate[msg.sender][block.timestamp] = _quantity;\r\n    totalDeliveries = totalDeliveries.add(1);\r\n    totalQuantities = totalQuantities.add(_quantity);\r\n    emit NewMilkDeliveryRecorded(msg.sender,_quantity,_qualityType, block.timestamp);\r\n    return true;\r\n  }\r\n\r\n  /**\r\n    * @dev enables contract owner to delist a vendor\r\n    * @param _vendor address\r\n   */\r\n  function delistVendor(address _vendor) public onlyOwner isListedAsAvendor(_vendor) returns(bool){\r\n    isVendorListed[_vendor] = false;\r\n    emit MilkVendorDelisted(_vendor, msg.sender, block.timestamp);\r\n    return true;\r\n  }\r\n\r\n  /**\r\n    * @dev revoke a milk vendor's approval for milk vending\r\n    * @param _vendor address\r\n   */\r\n  function revokeVendorApproval(address _vendor) public onlyOwner isApprovedForVending(_vendor) returns(bool){\r\n      isApprovedForMilkVending[_vendor] = false;\r\n      //remove this vendor from the approved vendors array and maintain the array order\r\n      /** \r\n      for(uint i = 0; i < approvedVendors.length - 1; i++){\r\n        if(approvedVendors[i] == _vendor){\r\n          approvedVendors[i] = approvedVendors[i + 1];\r\n        }\r\n      }\r\n      \r\n      approvedVendors.pop();\r\n      */\r\n      totalApprovedVendors = totalApprovedVendors.sub(1);\r\n      emit MilkVendorDisapproved(_vendor, msg.sender, block.timestamp); //approvedVendors\r\n      return true;\r\n  }\r\n\r\n  /**\r\n    * @dev gets the total quantity of milk by all vendors recorded on-chain\r\n   */\r\n  function totalQuantity() external virtual view returns(uint){\r\n    return totalQuantities;\r\n  }\r\n\r\n  /**\r\n    * @dev returns an array of all the vendors\r\n   */\r\n  function vendorList() public view returns(Vendor[] memory){\r\n    return vendors;\r\n  }\r\n\r\n  function listAllDeliveryItems() public view returns(MilkDeliveryItem[] memory){\r\n    return milkDeliveries;\r\n  }\r\n\r\n  function getTotalDeliveries() public view returns(uint){\r\n    return totalDeliveries;\r\n  }\r\n\r\n  function addNewFarmer(\r\n    address _farmerAddress,\r\n    string memory _firstName, \r\n    string memory _lastName, \r\n    bytes memory _location,\r\n    bytes memory _phoneNumber,\r\n    bytes memory _email,\r\n    int _idNumber\r\n    ) public farmerNotListed(_farmerAddress) returns(bool success){\r\n      farmerIds.increment();\r\n      uint currentFarmerId = farmerIds.current();\r\n      Farmer memory newFarmer = Farmer(currentFarmerId,_firstName,_lastName,_email,_phoneNumber,_idNumber,_location,payable(_farmerAddress), block.timestamp);\r\n      totalFarmers = totalFarmers.add(1);\r\n      isFarmerListed[_farmerAddress] = true;\r\n      farmers.push(newFarmer);\r\n      farmerById[currentFarmerId] = newFarmer;\r\n      emit NewFarmer(_farmerAddress,currentFarmerId, block.timestamp);\r\n      return true;\r\n  }\r\n\r\n  function getFarmerById(uint _farmerId) public view returns(Farmer memory){\r\n    return farmerById[_farmerId];\r\n  }\r\n}\r\n",
  "sourcePath": "D:/Dickens/Programming/Blockchain/Projects/Research Projects/MMUST/Dairy Farmers Milk Delivery/contracts/MilkDelivery.sol",
  "compiler": {
    "name": "solc",
    "version": "0.8.13+commit.abaa5c0e.Emscripten.clang"
  },
  "schemaVersion": "3.4.1",
  "updatedAt": "2022-04-10T20:31:12.994Z",
  "networkType": "ethereum",
  "devdoc": {
    "details": "A smart contract that enables dairy farmers to record their daily produce",
    "kind": "dev",
    "methods": {
      "approveVendor(address)": {
        "details": "approves a vendor for milk delivery, only performed by the contract owner",
        "params": {
          "_vendor": "address"
        }
      },
      "delistVendor(address)": {
        "details": "enables contract owner to delist a vendor",
        "params": {
          "_vendor": "address"
        }
      },
      "getRoleAdmin(bytes32)": {
        "details": "Returns the admin role that controls `role`. See {grantRole} and {revokeRole}. To change a role's admin, use {_setRoleAdmin}."
      },
      "getVendorQuantityByDate(address,uint256)": {
        "details": "returns the total quantity of milk recorded by a vendor on a specific date",
        "params": {
          "_date": "uint",
          "_vendor": "address"
        }
      },
      "grantRole(bytes32,address)": {
        "details": "Grants `role` to `account`. If `account` had not been already granted `role`, emits a {RoleGranted} event. Requirements: - the caller must have ``role``'s admin role."
      },
      "hasRole(bytes32,address)": {
        "details": "Returns `true` if `account` has been granted `role`."
      },
      "listNewVendor(address,string,string,string)": {
        "details": "enables only the contract owner to add a new vendor",
        "params": {
          "_email": "string ",
          "_milkFactory": "string",
          "_name": "string",
          "_newVendor": "address "
        }
      },
      "owner()": {
        "details": "Returns the address of the current owner."
      },
      "recordNewDelivery(uint256,uint8,uint256)": {
        "details": "record a new milk delivery",
        "params": {
          "_qualityType": "enum",
          "_quantity": "uint"
        }
      },
      "renounceOwnership()": {
        "details": "Leaves the contract without owner. It will not be possible to call `onlyOwner` functions anymore. Can only be called by the current owner. NOTE: Renouncing ownership will leave the contract without an owner, thereby removing any functionality that is only available to the owner."
      },
      "renounceRole(bytes32,address)": {
        "details": "Revokes `role` from the calling account. Roles are often managed via {grantRole} and {revokeRole}: this function's purpose is to provide a mechanism for accounts to lose their privileges if they are compromised (such as when a trusted device is misplaced). If the calling account had been revoked `role`, emits a {RoleRevoked} event. Requirements: - the caller must be `account`."
      },
      "revokeRole(bytes32,address)": {
        "details": "Revokes `role` from `account`. If `account` had been granted `role`, emits a {RoleRevoked} event. Requirements: - the caller must have ``role``'s admin role."
      },
      "revokeVendorApproval(address)": {
        "details": "revoke a milk vendor's approval for milk vending",
        "params": {
          "_vendor": "address"
        }
      },
      "supportsInterface(bytes4)": {
        "details": "See {IERC165-supportsInterface}."
      },
      "totalQuantity()": {
        "details": "gets the total quantity of milk by all vendors recorded on-chain"
      },
      "transferOwnership(address)": {
        "details": "Transfers ownership of the contract to a new account (`newOwner`). Can only be called by the current owner."
      },
      "vendorList()": {
        "details": "returns an array of all the vendors"
      }
    },
    "title": "Milk Delivery Contract",
    "version": 1
  },
  "userdoc": {
    "kind": "user",
    "methods": {},
    "version": 1
  }
}