{
  "contractName": "MilkDelivery",
  "abi": [
    {
      "inputs": [],
      "stateMutability": "nonpayable",
      "type": "constructor"
    },
    {
      "inputs": [],
      "name": "BadRecord",
      "type": "error"
    },
    {
      "anonymous": false,
      "inputs": [
        {
          "indexed": true,
          "internalType": "address",
          "name": "vendor",
          "type": "address"
        },
        {
          "indexed": true,
          "internalType": "address",
          "name": "caller",
          "type": "address"
        },
        {
          "indexed": false,
          "internalType": "uint256",
          "name": "date",
          "type": "uint256"
        }
      ],
      "name": "MilkVendorDelisted",
      "type": "event"
    },
    {
      "anonymous": false,
      "inputs": [
        {
          "indexed": true,
          "internalType": "address",
          "name": "vendor",
          "type": "address"
        },
        {
          "indexed": true,
          "internalType": "address",
          "name": "caller",
          "type": "address"
        },
        {
          "indexed": false,
          "internalType": "uint256",
          "name": "date",
          "type": "uint256"
        }
      ],
      "name": "MilkVendorDisapproved",
      "type": "event"
    },
    {
      "anonymous": false,
      "inputs": [
        {
          "indexed": true,
          "internalType": "address",
          "name": "vendor",
          "type": "address"
        },
        {
          "indexed": true,
          "internalType": "uint256",
          "name": "quantity",
          "type": "uint256"
        },
        {
          "indexed": true,
          "internalType": "enum MilkDelivery.MILK_QUALITY_TYPE",
          "name": "quality",
          "type": "uint8"
        },
        {
          "indexed": false,
          "internalType": "uint256",
          "name": "date",
          "type": "uint256"
        }
      ],
      "name": "NewMilkDeliveryRecorded",
      "type": "event"
    },
    {
      "anonymous": false,
      "inputs": [
        {
          "indexed": true,
          "internalType": "address",
          "name": "vendor",
          "type": "address"
        },
        {
          "indexed": true,
          "internalType": "address",
          "name": "addedBy",
          "type": "address"
        },
        {
          "indexed": true,
          "internalType": "uint256",
          "name": "date",
          "type": "uint256"
        }
      ],
      "name": "NewMilkVendorAdded",
      "type": "event"
    },
    {
      "anonymous": false,
      "inputs": [
        {
          "indexed": true,
          "internalType": "address",
          "name": "previousOwner",
          "type": "address"
        },
        {
          "indexed": true,
          "internalType": "address",
          "name": "newOwner",
          "type": "address"
        }
      ],
      "name": "OwnershipTransferred",
      "type": "event"
    },
    {
      "anonymous": false,
      "inputs": [
        {
          "indexed": true,
          "internalType": "bytes32",
          "name": "role",
          "type": "bytes32"
        },
        {
          "indexed": true,
          "internalType": "bytes32",
          "name": "previousAdminRole",
          "type": "bytes32"
        },
        {
          "indexed": true,
          "internalType": "bytes32",
          "name": "newAdminRole",
          "type": "bytes32"
        }
      ],
      "name": "RoleAdminChanged",
      "type": "event"
    },
    {
      "anonymous": false,
      "inputs": [
        {
          "indexed": true,
          "internalType": "bytes32",
          "name": "role",
          "type": "bytes32"
        },
        {
          "indexed": true,
          "internalType": "address",
          "name": "account",
          "type": "address"
        },
        {
          "indexed": true,
          "internalType": "address",
          "name": "sender",
          "type": "address"
        }
      ],
      "name": "RoleGranted",
      "type": "event"
    },
    {
      "anonymous": false,
      "inputs": [
        {
          "indexed": true,
          "internalType": "bytes32",
          "name": "role",
          "type": "bytes32"
        },
        {
          "indexed": true,
          "internalType": "address",
          "name": "account",
          "type": "address"
        },
        {
          "indexed": true,
          "internalType": "address",
          "name": "sender",
          "type": "address"
        }
      ],
      "name": "RoleRevoked",
      "type": "event"
    },
    {
      "inputs": [],
      "name": "DEFAULT_ADMIN_ROLE",
      "outputs": [
        {
          "internalType": "bytes32",
          "name": "",
          "type": "bytes32"
        }
      ],
      "stateMutability": "view",
      "type": "function",
      "constant": true
    },
    {
      "inputs": [
        {
          "internalType": "uint256",
          "name": "",
          "type": "uint256"
        }
      ],
      "name": "approvedVendors",
      "outputs": [
        {
          "internalType": "address",
          "name": "",
          "type": "address"
        }
      ],
      "stateMutability": "view",
      "type": "function",
      "constant": true
    },
    {
      "inputs": [
        {
          "internalType": "address",
          "name": "",
          "type": "address"
        }
      ],
      "name": "deliveryItemByVendor",
      "outputs": [
        {
          "internalType": "address payable",
          "name": "vendor",
          "type": "address"
        },
        {
          "internalType": "uint256",
          "name": "id",
          "type": "uint256"
        },
        {
          "internalType": "uint256",
          "name": "date",
          "type": "uint256"
        },
        {
          "internalType": "uint256",
          "name": "quantity",
          "type": "uint256"
        },
        {
          "internalType": "enum MilkDelivery.MILK_QUALITY_TYPE",
          "name": "milkQualityType",
          "type": "uint8"
        }
      ],
      "stateMutability": "view",
      "type": "function",
      "constant": true
    },
    {
      "inputs": [
        {
          "internalType": "bytes32",
          "name": "role",
          "type": "bytes32"
        }
      ],
      "name": "getRoleAdmin",
      "outputs": [
        {
          "internalType": "bytes32",
          "name": "",
          "type": "bytes32"
        }
      ],
      "stateMutability": "view",
      "type": "function",
      "constant": true
    },
    {
      "inputs": [
        {
          "internalType": "bytes32",
          "name": "role",
          "type": "bytes32"
        },
        {
          "internalType": "address",
          "name": "account",
          "type": "address"
        }
      ],
      "name": "grantRole",
      "outputs": [],
      "stateMutability": "nonpayable",
      "type": "function"
    },
    {
      "inputs": [
        {
          "internalType": "bytes32",
          "name": "role",
          "type": "bytes32"
        },
        {
          "internalType": "address",
          "name": "account",
          "type": "address"
        }
      ],
      "name": "hasRole",
      "outputs": [
        {
          "internalType": "bool",
          "name": "",
          "type": "bool"
        }
      ],
      "stateMutability": "view",
      "type": "function",
      "constant": true
    },
    {
      "inputs": [
        {
          "internalType": "address",
          "name": "",
          "type": "address"
        }
      ],
      "name": "isApprovedForMilkVending",
      "outputs": [
        {
          "internalType": "bool",
          "name": "",
          "type": "bool"
        }
      ],
      "stateMutability": "view",
      "type": "function",
      "constant": true
    },
    {
      "inputs": [
        {
          "internalType": "address",
          "name": "",
          "type": "address"
        }
      ],
      "name": "isVendorListed",
      "outputs": [
        {
          "internalType": "bool",
          "name": "",
          "type": "bool"
        }
      ],
      "stateMutability": "view",
      "type": "function",
      "constant": true
    },
    {
      "inputs": [
        {
          "internalType": "uint256",
          "name": "",
          "type": "uint256"
        }
      ],
      "name": "milkDeliveries",
      "outputs": [
        {
          "internalType": "address payable",
          "name": "vendor",
          "type": "address"
        },
        {
          "internalType": "uint256",
          "name": "id",
          "type": "uint256"
        },
        {
          "internalType": "uint256",
          "name": "date",
          "type": "uint256"
        },
        {
          "internalType": "uint256",
          "name": "quantity",
          "type": "uint256"
        },
        {
          "internalType": "enum MilkDelivery.MILK_QUALITY_TYPE",
          "name": "milkQualityType",
          "type": "uint8"
        }
      ],
      "stateMutability": "view",
      "type": "function",
      "constant": true
    },
    {
      "inputs": [],
      "name": "milkQualityType",
      "outputs": [
        {
          "internalType": "enum MilkDelivery.MILK_QUALITY_TYPE",
          "name": "",
          "type": "uint8"
        }
      ],
      "stateMutability": "view",
      "type": "function",
      "constant": true
    },
    {
      "inputs": [],
      "name": "owner",
      "outputs": [
        {
          "internalType": "address",
          "name": "",
          "type": "address"
        }
      ],
      "stateMutability": "view",
      "type": "function",
      "constant": true
    },
    {
      "inputs": [],
      "name": "renounceOwnership",
      "outputs": [],
      "stateMutability": "nonpayable",
      "type": "function"
    },
    {
      "inputs": [
        {
          "internalType": "bytes32",
          "name": "role",
          "type": "bytes32"
        },
        {
          "internalType": "address",
          "name": "account",
          "type": "address"
        }
      ],
      "name": "renounceRole",
      "outputs": [],
      "stateMutability": "nonpayable",
      "type": "function"
    },
    {
      "inputs": [
        {
          "internalType": "bytes32",
          "name": "role",
          "type": "bytes32"
        },
        {
          "internalType": "address",
          "name": "account",
          "type": "address"
        }
      ],
      "name": "revokeRole",
      "outputs": [],
      "stateMutability": "nonpayable",
      "type": "function"
    },
    {
      "inputs": [
        {
          "internalType": "bytes4",
          "name": "interfaceId",
          "type": "bytes4"
        }
      ],
      "name": "supportsInterface",
      "outputs": [
        {
          "internalType": "bool",
          "name": "",
          "type": "bool"
        }
      ],
      "stateMutability": "view",
      "type": "function",
      "constant": true
    },
    {
      "inputs": [],
      "name": "totalApprovedVendors",
      "outputs": [
        {
          "internalType": "uint256",
          "name": "",
          "type": "uint256"
        }
      ],
      "stateMutability": "view",
      "type": "function",
      "constant": true
    },
    {
      "inputs": [],
      "name": "totalDeliveries",
      "outputs": [
        {
          "internalType": "uint256",
          "name": "",
          "type": "uint256"
        }
      ],
      "stateMutability": "view",
      "type": "function",
      "constant": true
    },
    {
      "inputs": [],
      "name": "totalQuantities",
      "outputs": [
        {
          "internalType": "uint256",
          "name": "",
          "type": "uint256"
        }
      ],
      "stateMutability": "view",
      "type": "function",
      "constant": true
    },
    {
      "inputs": [],
      "name": "totalVendors",
      "outputs": [
        {
          "internalType": "uint256",
          "name": "",
          "type": "uint256"
        }
      ],
      "stateMutability": "view",
      "type": "function",
      "constant": true
    },
    {
      "inputs": [
        {
          "internalType": "address",
          "name": "newOwner",
          "type": "address"
        }
      ],
      "name": "transferOwnership",
      "outputs": [],
      "stateMutability": "nonpayable",
      "type": "function"
    },
    {
      "inputs": [
        {
          "internalType": "address",
          "name": "",
          "type": "address"
        },
        {
          "internalType": "uint256",
          "name": "",
          "type": "uint256"
        }
      ],
      "name": "vendorQuantityByDate",
      "outputs": [
        {
          "internalType": "uint256",
          "name": "",
          "type": "uint256"
        }
      ],
      "stateMutability": "view",
      "type": "function",
      "constant": true
    },
    {
      "inputs": [
        {
          "internalType": "uint256",
          "name": "",
          "type": "uint256"
        }
      ],
      "name": "vendors",
      "outputs": [
        {
          "internalType": "uint256",
          "name": "id",
          "type": "uint256"
        },
        {
          "internalType": "string",
          "name": "milkFactory",
          "type": "string"
        },
        {
          "internalType": "string",
          "name": "name",
          "type": "string"
        },
        {
          "internalType": "string",
          "name": "email",
          "type": "string"
        },
        {
          "internalType": "address payable",
          "name": "vendorAddress",
          "type": "address"
        },
        {
          "internalType": "uint256",
          "name": "createdAt",
          "type": "uint256"
        }
      ],
      "stateMutability": "view",
      "type": "function",
      "constant": true
    },
    {
      "inputs": [
        {
          "internalType": "address",
          "name": "",
          "type": "address"
        }
      ],
      "name": "vendorsByUser",
      "outputs": [
        {
          "internalType": "uint256",
          "name": "id",
          "type": "uint256"
        },
        {
          "internalType": "string",
          "name": "milkFactory",
          "type": "string"
        },
        {
          "internalType": "string",
          "name": "name",
          "type": "string"
        },
        {
          "internalType": "string",
          "name": "email",
          "type": "string"
        },
        {
          "internalType": "address payable",
          "name": "vendorAddress",
          "type": "address"
        },
        {
          "internalType": "uint256",
          "name": "createdAt",
          "type": "uint256"
        }
      ],
      "stateMutability": "view",
      "type": "function",
      "constant": true
    },
    {
      "inputs": [
        {
          "internalType": "address",
          "name": "_vendor",
          "type": "address"
        }
      ],
      "name": "approveVendor",
      "outputs": [
        {
          "internalType": "bool",
          "name": "",
          "type": "bool"
        }
      ],
      "stateMutability": "nonpayable",
      "type": "function"
    },
    {
      "inputs": [
        {
          "internalType": "address",
          "name": "_newVendor",
          "type": "address"
        },
        {
          "internalType": "string",
          "name": "_milkFactory",
          "type": "string"
        },
        {
          "internalType": "string",
          "name": "_name",
          "type": "string"
        },
        {
          "internalType": "string",
          "name": "_email",
          "type": "string"
        }
      ],
      "name": "listNewVendor",
      "outputs": [
        {
          "internalType": "bool",
          "name": "",
          "type": "bool"
        }
      ],
      "stateMutability": "nonpayable",
      "type": "function"
    },
    {
      "inputs": [
        {
          "internalType": "address",
          "name": "_vendor",
          "type": "address"
        },
        {
          "internalType": "uint256",
          "name": "_date",
          "type": "uint256"
        }
      ],
      "name": "getVendorQuantityByDate",
      "outputs": [
        {
          "internalType": "uint256",
          "name": "",
          "type": "uint256"
        }
      ],
      "stateMutability": "view",
      "type": "function",
      "constant": true
    },
    {
      "inputs": [
        {
          "internalType": "uint256",
          "name": "_quantity",
          "type": "uint256"
        },
        {
          "internalType": "enum MilkDelivery.MILK_QUALITY_TYPE",
          "name": "_qualityType",
          "type": "uint8"
        }
      ],
      "name": "recordNewDelivery",
      "outputs": [
        {
          "internalType": "bool",
          "name": "",
          "type": "bool"
        }
      ],
      "stateMutability": "nonpayable",
      "type": "function"
    },
    {
      "inputs": [
        {
          "internalType": "address",
          "name": "_vendor",
          "type": "address"
        }
      ],
      "name": "delistVendor",
      "outputs": [
        {
          "internalType": "bool",
          "name": "",
          "type": "bool"
        }
      ],
      "stateMutability": "nonpayable",
      "type": "function"
    },
    {
      "inputs": [
        {
          "internalType": "address",
          "name": "_vendor",
          "type": "address"
        }
      ],
      "name": "revokeVendorApproval",
      "outputs": [
        {
          "internalType": "bool",
          "name": "",
          "type": "bool"
        }
      ],
      "stateMutability": "nonpayable",
      "type": "function"
    },
    {
      "inputs": [],
      "name": "totalQuantity",
      "outputs": [
        {
          "internalType": "uint256",
          "name": "",
          "type": "uint256"
        }
      ],
      "stateMutability": "view",
      "type": "function",
      "constant": true
    },
    {
      "inputs": [],
      "name": "vendorList",
      "outputs": [
        {
          "components": [
            {
              "internalType": "uint256",
              "name": "id",
              "type": "uint256"
            },
            {
              "internalType": "string",
              "name": "milkFactory",
              "type": "string"
            },
            {
              "internalType": "string",
              "name": "name",
              "type": "string"
            },
            {
              "internalType": "string",
              "name": "email",
              "type": "string"
            },
            {
              "internalType": "address payable",
              "name": "vendorAddress",
              "type": "address"
            },
            {
              "internalType": "uint256",
              "name": "createdAt",
              "type": "uint256"
            }
          ],
          "internalType": "struct MilkDelivery.Vendor[]",
          "name": "",
          "type": "tuple[]"
        }
      ],
      "stateMutability": "view",
      "type": "function",
      "constant": true
    }
  ],
  "bytecode": "0x6080604052600060055560006006556000600755600060085534801561002457600080fd5b5061002e33610033565b610083565b600080546001600160a01b038381166001600160a01b0319831681178455604051919092169283917f8be0079c531659141344cd1fd0a4f28419497f9722a3daafe3b4186f6b6457e09190a35050565b61215a806100926000396000f3fe608060405234801561001057600080fd5b50600436106101e55760003560e01c806391d148541161010f578063d15d79ae116100a2578063e128e23411610071578063e128e2341461049d578063ef4c7970146104a6578063f2fde38b146104af578063f8a52923146104c257600080fd5b8063d15d79ae14610418578063d547741f1461042b578063ddc00f3b1461043e578063df627c2a1461045357600080fd5b8063a420623b116100de578063a420623b146103af578063c616f412146103d2578063c824e088146103da578063cea676e41461040557600080fd5b806391d148541461037857806398faad551461038b578063a08d986d14610394578063a217fddf146103a757600080fd5b806354f97a6111610187578063715018a611610156578063715018a614610311578063868947c91461031957806386f22dbd146103445780638da5cb5b1461036757600080fd5b806354f97a61146102be5780636c1c13a8146102d15780636ea8b002146102eb5780637129bbb7146102fe57600080fd5b80632f2ff15d116101c35780632f2ff15d1461024d57806336568abe146102625780633df0acc9146102755780634ca5d1421461029a57600080fd5b806301ffc9a7146101ea5780630c59d63914610212578063248a9ca314610229575b600080fd5b6101fd6101f8366004611b33565b6104d5565b60405190151581526020015b60405180910390f35b61021b60075481565b604051908152602001610209565b61021b610237366004611b5d565b6000908152600160208190526040909120015490565b61026061025b366004611b92565b61050c565b005b610260610270366004611b92565b610538565b610288610283366004611bbe565b6105bb565b60405161020996959493929190611c35565b6102ad6102a8366004611b5d565b610792565b604051610209959493929190611ccb565b6101fd6102cc366004611bbe565b6107e0565b6004546102de9060ff1681565b6040516102099190611d07565b6101fd6102f9366004611bbe565b610912565b61021b61030c366004611d15565b610a1f565b610260610a5d565b61032c610327366004611b5d565b610a93565b6040516001600160a01b039091168152602001610209565b6101fd610352366004611bbe565b600c6020526000908152604090205460ff1681565b6000546001600160a01b031661032c565b6101fd610386366004611b92565b610abd565b61021b60055481565b6102886103a2366004611b5d565b610ae8565b61021b600081565b6101fd6103bd366004611bbe565b60106020526000908152604090205460ff1681565b60065461021b565b61021b6103e8366004611d15565b600e60209081526000928352604080842090915290825290205481565b6101fd610413366004611d3f565b610b1d565b6101fd610426366004611e16565b610f2c565b610260610439366004611b92565b611329565b610446611350565b6040516102099190611eaf565b6102ad610461366004611bbe565b600d60205260009081526040902080546001820154600283015460038401546004909401546001600160a01b0390931693919290919060ff1685565b61021b60065481565b61021b60085481565b6102606104bd366004611bbe565b611592565b6101fd6104d0366004611bbe565b61162d565b60006001600160e01b03198216637965db0b60e01b148061050657506301ffc9a760e01b6001600160e01b03198316145b92915050565b600082815260016020819052604090912001546105298133611759565b61053383836117bd565b505050565b6001600160a01b03811633146105ad5760405162461bcd60e51b815260206004820152602f60248201527f416363657373436f6e74726f6c3a2063616e206f6e6c792072656e6f756e636560448201526e103937b632b9903337b91039b2b63360891b60648201526084015b60405180910390fd5b6105b78282611828565b5050565b600f60205260009081526040902080546001820180549192916105dd90611f78565b80601f016020809104026020016040519081016040528092919081815260200182805461060990611f78565b80156106565780601f1061062b57610100808354040283529160200191610656565b820191906000526020600020905b81548152906001019060200180831161063957829003601f168201915b50505050509080600201805461066b90611f78565b80601f016020809104026020016040519081016040528092919081815260200182805461069790611f78565b80156106e45780601f106106b9576101008083540402835291602001916106e4565b820191906000526020600020905b8154815290600101906020018083116106c757829003601f168201915b5050505050908060030180546106f990611f78565b80601f016020809104026020016040519081016040528092919081815260200182805461072590611f78565b80156107725780601f1061074757610100808354040283529160200191610772565b820191906000526020600020905b81548152906001019060200180831161075557829003601f168201915b50505050600483015460059093015491926001600160a01b031691905086565b600a81815481106107a257600080fd5b6000918252602090912060059091020180546001820154600283015460038401546004909401546001600160a01b0390931694509092909160ff1685565b600080546001600160a01b0316331461080b5760405162461bcd60e51b81526004016105a490611fad565b816001600160a01b0381166108325760405162461bcd60e51b81526004016105a490611fe2565b6001600160a01b0381166000908152600c602052604090205460ff1615156001146108955760405162461bcd60e51b815260206004820152601360248201527215995b991bdc88139bdd08105c1c1c9bdd9959606a1b60448201526064016105a4565b6001600160a01b0383166000908152600c60205260409020805460ff191690556008546108c390600161188f565b60085560405142815233906001600160a01b038516907fb5a2fcb0e25435e1bc8c82c0624a166cb5281d2614da6819cb253686224078e9906020015b60405180910390a3600191505b50919050565b600080546001600160a01b0316331461093d5760405162461bcd60e51b81526004016105a490611fad565b816001600160a01b0381166109645760405162461bcd60e51b81526004016105a490611fe2565b6001600160a01b03811660009081526010602052604090205460ff1615156001146109ca5760405162461bcd60e51b8152602060048201526016602482015275135a5b1ac815995b991bdc881b9bdd081b1a5cdd195960521b60448201526064016105a4565b6001600160a01b03831660008181526010602052604090819020805460ff19169055513391907fc1519c40dfbaa692a1c12680413675b407827248b9252fa6cd30611669cf8abf906108ff9042815260200190565b60006001600160a01b038316610a3457600080fd5b506001600160a01b03919091166000908152600e60209081526040808320938352929052205490565b6000546001600160a01b03163314610a875760405162461bcd60e51b81526004016105a490611fad565b610a9160006118a2565b565b600b8181548110610aa357600080fd5b6000918252602090912001546001600160a01b0316905081565b60009182526001602090815260408084206001600160a01b0393909316845291905290205460ff1690565b60098181548110610af857600080fd5b600091825260209091206006909102018054600182018054919350906105dd90611f78565b60003380610b3d5760405162461bcd60e51b81526004016105a490611fe2565b6001600160a01b03811660009081526010602052604090205460ff161515600114610ba35760405162461bcd60e51b8152602060048201526016602482015275135a5b1ac815995b991bdc881b9bdd081b1a5cdd195960521b60448201526064016105a4565b3380610bc15760405162461bcd60e51b81526004016105a490611fe2565b6001600160a01b0381166000908152600c602052604090205460ff161515600114610c245760405162461bcd60e51b815260206004820152601360248201527215995b991bdc88139bdd08105c1c1c9bdd9959606a1b60448201526064016105a4565b84610c8f5760405162461bcd60e51b815260206004820152603560248201527f4e6577204d696c6b2044656c6976657279204974656d3a203d3e205a65726f20604482015274145d585b9d1a5d1e48139bdd081058d8d95c1d1959605a1b60648201526084016105a4565b610c9d600280546001019055565b6000610ca860025490565b905060006040518060a00160405280336001600160a01b03168152602001838152602001428152602001888152602001876003811115610cea57610cea611c93565b9052600a80546001808201835560009290925282517fc65a7bb8d6351c1cf70c95a316cc6a92839c986682d98bc35f958f4883f9d2a8600590920291820180546001600160a01b0319166001600160a01b0390921691909117815560208401517fc65a7bb8d6351c1cf70c95a316cc6a92839c986682d98bc35f958f4883f9d2a983015560408401517fc65a7bb8d6351c1cf70c95a316cc6a92839c986682d98bc35f958f4883f9d2aa83015560608401517fc65a7bb8d6351c1cf70c95a316cc6a92839c986682d98bc35f958f4883f9d2ab83015560808401517fc65a7bb8d6351c1cf70c95a316cc6a92839c986682d98bc35f958f4883f9d2ac909201805494955085949193909160ff191690836003811115610e0b57610e0b611c93565b021790555050336000908152600d6020908152604091829020845181546001600160a01b0319166001600160a01b03909116178155908401516001808301919091559184015160028201556060840151600380830191909155608085015160048301805487965093949193909260ff1990911691908490811115610e9157610e91611c93565b021790555050336000908152600e60209081526040808320428452909152902088905550600754610ec39060016118f2565b600755600654610ed390886118f2565b600655856003811115610ee857610ee8611c93565b604051428152889033907f85f3f3a7f3ef4c556d64244b4b4b8bd8a4d3977d27b6f270cafe93466f8001649060200160405180910390a45060019695505050505050565b600080546001600160a01b03163314610f575760405162461bcd60e51b81526004016105a490611fad565b846001600160a01b038116610f7e5760405162461bcd60e51b81526004016105a490611fe2565b6001600160a01b03811660009081526010602052604090205460ff1615610fdf5760405162461bcd60e51b8152602060048201526015602482015274135a5b1ac815995b991bdc881a5cc81b1a5cdd1959605a1b60448201526064016105a4565b60008551116110305760405162461bcd60e51b815260206004820152601f60248201527f4e6577204d696c6b2056656e646f72203d3e204e756c6c20466163746f72790060448201526064016105a4565b600084511161108d5760405162461bcd60e51b815260206004820152602360248201527f4e6577204d696c6b2056656e646f72203d3e204e756c6c2056656e646f72204e604482015262616d6560e81b60648201526084016105a4565b60008351116110ea5760405162461bcd60e51b8152602060048201526024808201527f4e6577204d696c6b2056656e646f72203d3e204e756c6c2056656e646f7220456044820152631b585a5b60e21b60648201526084016105a4565b6110f8600380546001019055565b600061110360035490565b6040805160c08101825282815260208082018a8152928201899052606082018890526001600160a01b038b1660808301524260a083015260098054600181018255600091909152825160069091027f6e1540171b6c0c960b71a7020d9f60077f6af931a8bbf590da0223dacf75c7af8101918255935180519596509294859491936111b4937f6e1540171b6c0c960b71a7020d9f60077f6af931a8bbf590da0223dacf75c7b0909301920190611a9a565b50604082015180516111d0916002840191602090910190611a9a565b50606082015180516111ec916003840191602090910190611a9a565b5060808201516004820180546001600160a01b0319166001600160a01b0390921691909117905560a090910151600590910155336000908152600f6020908152604090912082518155828201518051849361124e926001850192910190611a9a565b506040820151805161126a916002840191602090910190611a9a565b5060608201518051611286916003840191602090910190611a9a565b5060808201516004820180546001600160a01b0319166001600160a01b0392831617905560a0909201516005918201559089166000908152601060205260409020805460ff1916600190811790915590546112e0916118f2565b600555604051429033906001600160a01b038b16907ff2ec7d1becaa3243fd29d0fc48bde1dd19c594104b9ce00eb188b9797face12d90600090a4506001979650505050505050565b600082815260016020819052604090912001546113468133611759565b6105338383611828565b60606009805480602002602001604051908101604052809291908181526020016000905b8282101561158957838290600052602060002090600602016040518060c0016040529081600082015481526020016001820180546113b190611f78565b80601f01602080910402602001604051908101604052809291908181526020018280546113dd90611f78565b801561142a5780601f106113ff5761010080835404028352916020019161142a565b820191906000526020600020905b81548152906001019060200180831161140d57829003601f168201915b5050505050815260200160028201805461144390611f78565b80601f016020809104026020016040519081016040528092919081815260200182805461146f90611f78565b80156114bc5780601f10611491576101008083540402835291602001916114bc565b820191906000526020600020905b81548152906001019060200180831161149f57829003601f168201915b505050505081526020016003820180546114d590611f78565b80601f016020809104026020016040519081016040528092919081815260200182805461150190611f78565b801561154e5780601f106115235761010080835404028352916020019161154e565b820191906000526020600020905b81548152906001019060200180831161153157829003601f168201915b505050918352505060048201546001600160a01b03166020808301919091526005909201546040909101529082526001929092019101611374565b50505050905090565b6000546001600160a01b031633146115bc5760405162461bcd60e51b81526004016105a490611fad565b6001600160a01b0381166116215760405162461bcd60e51b815260206004820152602660248201527f4f776e61626c653a206e6577206f776e657220697320746865207a65726f206160448201526564647265737360d01b60648201526084016105a4565b61162a816118a2565b50565b600080546001600160a01b031633146116585760405162461bcd60e51b81526004016105a490611fad565b816001600160a01b03811661167f5760405162461bcd60e51b81526004016105a490611fe2565b6001600160a01b0381166000908152600c602052604090205460ff16156116da5760405162461bcd60e51b815260206004820152600f60248201526e15995b991bdc88105c1c1c9bdd9959608a1b60448201526064016105a4565b6001600160a01b0383166000818152600c60205260408120805460ff19166001908117909155600b8054808301825592527f0175b7a638427703f0dbe7bb9bbf987a2551717b34e79f33b5b1008d1fa01db990910180546001600160a01b03191690921790915560085461174d916118f2565b60085550600192915050565b6117638282610abd565b6105b75761177b816001600160a01b031660146118fe565b6117868360206118fe565b60405160200161179792919061200b565b60408051601f198184030181529082905262461bcd60e51b82526105a491600401612080565b6117c78282610abd565b6105b75760008281526001602081815260408084206001600160a01b0386168086529252808420805460ff19169093179092559051339285917f2f8788117e7eff1d82e926ec794901d17c78024a50270940304540a733656f0d9190a45050565b6118328282610abd565b156105b75760008281526001602090815260408083206001600160a01b0385168085529252808320805460ff1916905551339285917ff6391f5c32d9c69d2a47ea670b442974b53935d1edc7fd64eb21e047a839171b9190a45050565b600061189b82846120a9565b9392505050565b600080546001600160a01b038381166001600160a01b0319831681178455604051919092169283917f8be0079c531659141344cd1fd0a4f28419497f9722a3daafe3b4186f6b6457e09190a35050565b600061189b82846120c0565b6060600061190d8360026120d8565b6119189060026120c0565b67ffffffffffffffff81111561193057611930611d73565b6040519080825280601f01601f19166020018201604052801561195a576020820181803683370190505b509050600360fc1b81600081518110611975576119756120f7565b60200101906001600160f81b031916908160001a905350600f60fb1b816001815181106119a4576119a46120f7565b60200101906001600160f81b031916908160001a90535060006119c88460026120d8565b6119d39060016120c0565b90505b6001811115611a4b576f181899199a1a9b1b9c1cb0b131b232b360811b85600f1660108110611a0757611a076120f7565b1a60f81b828281518110611a1d57611a1d6120f7565b60200101906001600160f81b031916908160001a90535060049490941c93611a448161210d565b90506119d6565b50831561189b5760405162461bcd60e51b815260206004820181905260248201527f537472696e67733a20686578206c656e67746820696e73756666696369656e7460448201526064016105a4565b828054611aa690611f78565b90600052602060002090601f016020900481019282611ac85760008555611b0e565b82601f10611ae157805160ff1916838001178555611b0e565b82800160010185558215611b0e579182015b82811115611b0e578251825591602001919060010190611af3565b50611b1a929150611b1e565b5090565b5b80821115611b1a5760008155600101611b1f565b600060208284031215611b4557600080fd5b81356001600160e01b03198116811461189b57600080fd5b600060208284031215611b6f57600080fd5b5035919050565b80356001600160a01b0381168114611b8d57600080fd5b919050565b60008060408385031215611ba557600080fd5b82359150611bb560208401611b76565b90509250929050565b600060208284031215611bd057600080fd5b61189b82611b76565b60005b83811015611bf4578181015183820152602001611bdc565b83811115611c03576000848401525b50505050565b60008151808452611c21816020860160208601611bd9565b601f01601f19169290920160200192915050565b86815260c060208201526000611c4e60c0830188611c09565b8281036040840152611c608188611c09565b90508281036060840152611c748187611c09565b6001600160a01b03959095166080840152505060a00152949350505050565b634e487b7160e01b600052602160045260246000fd5b60048110611cc757634e487b7160e01b600052602160045260246000fd5b9052565b6001600160a01b038616815260208101859052604081018490526060810183905260a08101611cfd6080830184611ca9565b9695505050505050565b602081016105068284611ca9565b60008060408385031215611d2857600080fd5b611d3183611b76565b946020939093013593505050565b60008060408385031215611d5257600080fd5b82359150602083013560048110611d6857600080fd5b809150509250929050565b634e487b7160e01b600052604160045260246000fd5b600082601f830112611d9a57600080fd5b813567ffffffffffffffff80821115611db557611db5611d73565b604051601f8301601f19908116603f01168101908282118183101715611ddd57611ddd611d73565b81604052838152866020858801011115611df657600080fd5b836020870160208301376000602085830101528094505050505092915050565b60008060008060808587031215611e2c57600080fd5b611e3585611b76565b9350602085013567ffffffffffffffff80821115611e5257600080fd5b611e5e88838901611d89565b94506040870135915080821115611e7457600080fd5b611e8088838901611d89565b93506060870135915080821115611e9657600080fd5b50611ea387828801611d89565b91505092959194509250565b60006020808301818452808551808352604092508286019150828160051b87010184880160005b83811015611f6a57603f19898403018552815160c08151855288820151818a870152611f0482870182611c09565b9150508782015185820389870152611f1c8282611c09565b91505060608083015186830382880152611f368382611c09565b6080858101516001600160a01b03169089015260a09485015194909701939093525050509386019390860190600101611ed6565b509098975050505050505050565b600181811c90821680611f8c57607f821691505b6020821081141561090c57634e487b7160e01b600052602260045260246000fd5b6020808252818101527f4f776e61626c653a2063616c6c6572206973206e6f7420746865206f776e6572604082015260600190565b6020808252600f908201526e496e76616c6964204164647265737360881b604082015260600190565b7f416363657373436f6e74726f6c3a206163636f756e7420000000000000000000815260008351612043816017850160208801611bd9565b7001034b99036b4b9b9b4b733903937b6329607d1b6017918401918201528351612074816028840160208801611bd9565b01602801949350505050565b60208152600061189b6020830184611c09565b634e487b7160e01b600052601160045260246000fd5b6000828210156120bb576120bb612093565b500390565b600082198211156120d3576120d3612093565b500190565b60008160001904831182151516156120f2576120f2612093565b500290565b634e487b7160e01b600052603260045260246000fd5b60008161211c5761211c612093565b50600019019056fea26469706673582212204975000765f85b69a10d7829bdeccd19887e7f9749db56725049073a2a7da99164736f6c634300080b0033",
  "immutableReferences": {},
  "source": "// SPDX-License-Identifier: MIT\npragma solidity ^0.8.0;\nimport \"@openzeppelin/contracts/access/Ownable.sol\";\nimport \"@openzeppelin/contracts/access/AccessControl.sol\";\nimport \"@openzeppelin/contracts/utils/math/SafeMath.sol\";\nimport \"@openzeppelin/contracts/utils/Counters.sol\";\nimport \"./interfaces/MilkDeliveryInterface.sol\";\n\n/**\n  * @title Milk Delivery Contract\n  * @dev A smart contract that enables dairy farmers to record their daily produce\n */\ncontract MilkDelivery is Ownable, AccessControl,MilkDeliveryInterface {\n  using SafeMath for uint256;\n  using Counters for Counters.Counter;\n\n  Counters.Counter private milkDeliveryIds; //to help track milk delivery items by ID e.g 1\n  Counters.Counter private vendorIds; //to help track vendors by ID e.g 1\n\n  enum MILK_QUALITY_TYPE { GOOD, STALE, PERFECT, BAD } //quality types\n  MILK_QUALITY_TYPE public milkQualityType; //in order to access the enum via a variable\n\n  //Vendor struct with vendor particulars/details\n  struct Vendor{\n    uint id;\n    string milkFactory;\n    string name;\n    string email;\n    address payable vendorAddress;\n    uint createdAt;\n  }\n\n  //Delivery struct with delivery item particulars\n  struct MilkDeliveryItem{\n    address payable vendor;\n    uint id;\n    uint date;\n    uint quantity;\n    MILK_QUALITY_TYPE milkQualityType;\n  }\n\n  uint public totalVendors = 0; //total vendors initialised to 0\n  uint public totalQuantities = 0; //keeps track of total milk quantity recorded on-chain\n  uint public totalDeliveries = 0; //to handle incrementing of overral milk quantities\n  uint public totalApprovedVendors = 0; // shall be incremented and decremented accordingly\n\n  Vendor[] public vendors; //an array of the vendors\n  MilkDeliveryItem[] public milkDeliveries; //to help keep track of delivery items as an array\n  address[] public approvedVendors; //the addresses of the approved vendors\n  \n  mapping(address => bool) public isApprovedForMilkVending; //a boolean indicating whether a vendor has been approved\n  mapping(address => MilkDeliveryItem) public deliveryItemByVendor; //get the delivery item by vendor identified by an address\n  mapping(address => mapping(uint => uint)) public vendorQuantityByDate; //keeps track of the total quantity of the vendor by date [address][date][quantity]\n  mapping(address => Vendor) public vendorsByUser; //who added thie vendor item\n  mapping(address => bool) public isVendorListed; //to show whether this address is listed as a vendor or not\n\n  event NewMilkDeliveryRecorded(address indexed vendor, uint indexed quantity, MILK_QUALITY_TYPE indexed quality, uint date);\n  event NewMilkVendorAdded(address indexed vendor, address indexed addedBy, uint indexed date);\n  event MilkVendorDisapproved(address indexed vendor, address indexed caller, uint date); //address[] indexed approvedVendors\n  event MilkVendorDelisted(address indexed vendor, address indexed caller, uint date);\n\n  error BadRecord();\n\n  constructor() public {\n  }\n\n  modifier isApprovedForVending(address _vendor){\n    require(_vendor != address(0),\"Invalid Address\");\n    require(isApprovedForMilkVending[_vendor] == true,\"Vendor Not Approved\");\n    _;\n  }\n\n  modifier isNotApprovedForVending(address _vendor){\n    require(_vendor != address(0),\"Invalid Address\");\n    require(isApprovedForMilkVending[_vendor] == false,\"Vendor Approved\");\n    _;\n  }\n\n  modifier isListedAsAvendor(address _vendor){\n    require(_vendor != address(0),\"Invalid Address\");\n    require(isVendorListed[_vendor] == true,\"Milk Vendor not listed\");\n    _;\n  }\n\n  modifier vendorNotListed(address _vendor){\n    require(_vendor != address(0),\"Invalid Address\");\n    require(isVendorListed[_vendor] == false,\"Milk Vendor is listed\");\n    _;\n  }\n\n  /**\n    * @dev approves a vendor for milk delivery, only performed by the contract owner\n    * @param _vendor address\n   */\n   function approveVendor(address _vendor) public onlyOwner isNotApprovedForVending(_vendor) returns(bool){\n      isApprovedForMilkVending[_vendor] = true;\n      approvedVendors.push(_vendor);\n      totalApprovedVendors = totalApprovedVendors.add(1);\n      return true;\n   }\n\n  /**\n    * @dev enables only the contract owner to add a new vendor\n    * @param _newVendor address \n    * @param _milkFactory string\n    * @param _name string\n    * @param _email string \n   */\n  function listNewVendor(address _newVendor, string memory _milkFactory, string memory _name, string memory _email) public \n  onlyOwner \n  vendorNotListed(_newVendor)\n  returns(bool)\n  {\n      require(bytes(_milkFactory).length > 0, \"New Milk Vendor => Null Factory\");\n      require(bytes(_name).length > 0, \"New Milk Vendor => Null Vendor Name\");\n      require(bytes(_email).length > 0, \"New Milk Vendor => Null Vendor Email\");\n\n      vendorIds.increment();\n      uint currentVendorId = vendorIds.current();\n      Vendor memory newMilkVendor = Vendor(currentVendorId,_milkFactory,_name,_email, payable(_newVendor), block.timestamp);\n      vendors.push(newMilkVendor);\n      vendorsByUser[msg.sender] = newMilkVendor;\n      isVendorListed[_newVendor] = true;\n      totalVendors = totalVendors.add(1);\n      emit NewMilkVendorAdded(_newVendor, msg.sender, block.timestamp);\n      return true;\n  }\n\n  /**\n   * @dev returns the total quantity of milk recorded by a vendor on a specific date\n   * @param _vendor address\n   * @param _date uint\n   */\n  function getVendorQuantityByDate(address _vendor, uint _date) public view returns(uint){\n    require(_vendor != address(0)); //Not an empty address\n    return vendorQuantityByDate[_vendor][_date];\n  }\n\n  /**\n    * @dev record a new milk delivery\n    * @param _quantity uint\n    * @param _qualityType enum\n   */\n  function recordNewDelivery(uint _quantity, MILK_QUALITY_TYPE _qualityType) public \n  isListedAsAvendor(msg.sender) \n  isApprovedForVending(msg.sender) \n  returns(bool)\n  {\n    require( _quantity != 0,\"New Milk Delivery Item: => Zero Quantity Not Accepted\");\n    milkDeliveryIds.increment();\n    uint currentDeliveryId = milkDeliveryIds.current();\n    MilkDeliveryItem memory newMilkDeliveryItem = MilkDeliveryItem(payable(msg.sender),currentDeliveryId, block.timestamp,_quantity,_qualityType);\n    milkDeliveries.push(newMilkDeliveryItem);\n    deliveryItemByVendor[msg.sender] = newMilkDeliveryItem;\n    vendorQuantityByDate[msg.sender][block.timestamp] = _quantity;\n    totalDeliveries = totalDeliveries.add(1);\n    totalQuantities = totalQuantities.add(_quantity);\n    emit NewMilkDeliveryRecorded(msg.sender,_quantity,_qualityType, block.timestamp);\n    return true;\n  }\n\n  /**\n    * @dev enables contract owner to delist a vendor\n    * @param _vendor address\n   */\n  function delistVendor(address _vendor) public onlyOwner isListedAsAvendor(_vendor) returns(bool){\n    isVendorListed[_vendor] = false;\n    emit MilkVendorDelisted(_vendor, msg.sender, block.timestamp);\n    return true;\n  }\n\n  /**\n    * @dev revoke a milk vendor's approval for milk vending\n    * @param _vendor address\n   */\n  function revokeVendorApproval(address _vendor) public onlyOwner isApprovedForVending(_vendor) returns(bool){\n      isApprovedForMilkVending[_vendor] = false;\n      //remove this vendor from the approved vendors array and maintain the array order\n      /** \n      for(uint i = 0; i < approvedVendors.length - 1; i++){\n        if(approvedVendors[i] == _vendor){\n          approvedVendors[i] = approvedVendors[i + 1];\n        }\n      }\n      \n      approvedVendors.pop();\n      */\n      totalApprovedVendors = totalApprovedVendors.sub(1);\n      emit MilkVendorDisapproved(_vendor, msg.sender, block.timestamp); //approvedVendors\n      return true;\n  }\n\n  /**\n    * @dev gets the total quantity of milk by all vendors recorded on-chain\n   */\n  function totalQuantity() external virtual view returns(uint){\n    return totalQuantities;\n  }\n\n  /**\n    * @dev returns an array of all the vendors\n   */\n  function vendorList() public view returns(Vendor[] memory){\n    return vendors;\n  }\n}\n",
  "sourcePath": "D:/Dickens/Programming/Blockchain/Projects/Research Projects/MMUST/Dairy Farmers Milk Delivery/contracts/MilkDelivery.sol",
  "compiler": {
    "name": "solc",
    "version": "0.8.11+commit.d7f03943.Emscripten.clang"
  },
  "schemaVersion": "3.4.1",
  "updatedAt": "2022-01-02T20:30:21.313Z",
  "networkType": "ethereum",
  "devdoc": {
    "details": "A smart contract that enables dairy farmers to record their daily produce",
    "kind": "dev",
    "methods": {
      "approveVendor(address)": {
        "details": "approves a vendor for milk delivery, only performed by the contract owner",
        "params": {
          "_vendor": "address"
        }
      },
      "delistVendor(address)": {
        "details": "enables contract owner to delist a vendor",
        "params": {
          "_vendor": "address"
        }
      },
      "getRoleAdmin(bytes32)": {
        "details": "Returns the admin role that controls `role`. See {grantRole} and {revokeRole}. To change a role's admin, use {_setRoleAdmin}."
      },
      "getVendorQuantityByDate(address,uint256)": {
        "details": "returns the total quantity of milk recorded by a vendor on a specific date",
        "params": {
          "_date": "uint",
          "_vendor": "address"
        }
      },
      "grantRole(bytes32,address)": {
        "details": "Grants `role` to `account`. If `account` had not been already granted `role`, emits a {RoleGranted} event. Requirements: - the caller must have ``role``'s admin role."
      },
      "hasRole(bytes32,address)": {
        "details": "Returns `true` if `account` has been granted `role`."
      },
      "listNewVendor(address,string,string,string)": {
        "details": "enables only the contract owner to add a new vendor",
        "params": {
          "_email": "string ",
          "_milkFactory": "string",
          "_name": "string",
          "_newVendor": "address "
        }
      },
      "owner()": {
        "details": "Returns the address of the current owner."
      },
      "recordNewDelivery(uint256,uint8)": {
        "details": "record a new milk delivery",
        "params": {
          "_qualityType": "enum",
          "_quantity": "uint"
        }
      },
      "renounceOwnership()": {
        "details": "Leaves the contract without owner. It will not be possible to call `onlyOwner` functions anymore. Can only be called by the current owner. NOTE: Renouncing ownership will leave the contract without an owner, thereby removing any functionality that is only available to the owner."
      },
      "renounceRole(bytes32,address)": {
        "details": "Revokes `role` from the calling account. Roles are often managed via {grantRole} and {revokeRole}: this function's purpose is to provide a mechanism for accounts to lose their privileges if they are compromised (such as when a trusted device is misplaced). If the calling account had been revoked `role`, emits a {RoleRevoked} event. Requirements: - the caller must be `account`."
      },
      "revokeRole(bytes32,address)": {
        "details": "Revokes `role` from `account`. If `account` had been granted `role`, emits a {RoleRevoked} event. Requirements: - the caller must have ``role``'s admin role."
      },
      "revokeVendorApproval(address)": {
        "details": "revoke a milk vendor's approval for milk vending",
        "params": {
          "_vendor": "address"
        }
      },
      "supportsInterface(bytes4)": {
        "details": "See {IERC165-supportsInterface}."
      },
      "totalQuantity()": {
        "details": "gets the total quantity of milk by all vendors recorded on-chain"
      },
      "transferOwnership(address)": {
        "details": "Transfers ownership of the contract to a new account (`newOwner`). Can only be called by the current owner."
      },
      "vendorList()": {
        "details": "returns an array of all the vendors"
      }
    },
    "title": "Milk Delivery Contract",
    "version": 1
  },
  "userdoc": {
    "kind": "user",
    "methods": {},
    "version": 1
  }
}