{
  "contractName": "MilkDelivery",
  "abi": [
    {
      "inputs": [],
      "stateMutability": "nonpayable",
      "type": "constructor"
    },
    {
      "inputs": [],
      "name": "BadRecord",
      "type": "error"
    },
    {
      "anonymous": false,
      "inputs": [
        {
          "indexed": true,
          "internalType": "address",
          "name": "vendor",
          "type": "address"
        },
        {
          "indexed": true,
          "internalType": "uint256",
          "name": "quantity",
          "type": "uint256"
        },
        {
          "indexed": true,
          "internalType": "enum MilkDelivery.MILK_QUALITY_TYPE",
          "name": "quality",
          "type": "uint8"
        },
        {
          "indexed": false,
          "internalType": "uint256",
          "name": "date",
          "type": "uint256"
        }
      ],
      "name": "NewMilkDeliveryRecorded",
      "type": "event"
    },
    {
      "anonymous": false,
      "inputs": [
        {
          "indexed": true,
          "internalType": "address",
          "name": "vendor",
          "type": "address"
        },
        {
          "indexed": true,
          "internalType": "address",
          "name": "addedBy",
          "type": "address"
        },
        {
          "indexed": true,
          "internalType": "uint256",
          "name": "date",
          "type": "uint256"
        }
      ],
      "name": "NewMilkVendorAdded",
      "type": "event"
    },
    {
      "anonymous": false,
      "inputs": [
        {
          "indexed": true,
          "internalType": "address",
          "name": "previousOwner",
          "type": "address"
        },
        {
          "indexed": true,
          "internalType": "address",
          "name": "newOwner",
          "type": "address"
        }
      ],
      "name": "OwnershipTransferred",
      "type": "event"
    },
    {
      "inputs": [
        {
          "internalType": "uint256",
          "name": "",
          "type": "uint256"
        }
      ],
      "name": "approvedVendors",
      "outputs": [
        {
          "internalType": "address",
          "name": "",
          "type": "address"
        }
      ],
      "stateMutability": "view",
      "type": "function"
    },
    {
      "inputs": [
        {
          "internalType": "address",
          "name": "",
          "type": "address"
        }
      ],
      "name": "deliveryItemByVendor",
      "outputs": [
        {
          "internalType": "address payable",
          "name": "vendor",
          "type": "address"
        },
        {
          "internalType": "uint256",
          "name": "id",
          "type": "uint256"
        },
        {
          "internalType": "uint256",
          "name": "date",
          "type": "uint256"
        },
        {
          "internalType": "uint256",
          "name": "quantity",
          "type": "uint256"
        },
        {
          "internalType": "enum MilkDelivery.MILK_QUALITY_TYPE",
          "name": "milkQualityType",
          "type": "uint8"
        }
      ],
      "stateMutability": "view",
      "type": "function"
    },
    {
      "inputs": [
        {
          "internalType": "address",
          "name": "",
          "type": "address"
        }
      ],
      "name": "isApprovedForMilkVending",
      "outputs": [
        {
          "internalType": "bool",
          "name": "",
          "type": "bool"
        }
      ],
      "stateMutability": "view",
      "type": "function"
    },
    {
      "inputs": [
        {
          "internalType": "address",
          "name": "",
          "type": "address"
        }
      ],
      "name": "isVendorListed",
      "outputs": [
        {
          "internalType": "bool",
          "name": "",
          "type": "bool"
        }
      ],
      "stateMutability": "view",
      "type": "function"
    },
    {
      "inputs": [
        {
          "internalType": "uint256",
          "name": "",
          "type": "uint256"
        }
      ],
      "name": "milkDeliveries",
      "outputs": [
        {
          "internalType": "address payable",
          "name": "vendor",
          "type": "address"
        },
        {
          "internalType": "uint256",
          "name": "id",
          "type": "uint256"
        },
        {
          "internalType": "uint256",
          "name": "date",
          "type": "uint256"
        },
        {
          "internalType": "uint256",
          "name": "quantity",
          "type": "uint256"
        },
        {
          "internalType": "enum MilkDelivery.MILK_QUALITY_TYPE",
          "name": "milkQualityType",
          "type": "uint8"
        }
      ],
      "stateMutability": "view",
      "type": "function"
    },
    {
      "inputs": [],
      "name": "milkQualityType",
      "outputs": [
        {
          "internalType": "enum MilkDelivery.MILK_QUALITY_TYPE",
          "name": "",
          "type": "uint8"
        }
      ],
      "stateMutability": "view",
      "type": "function"
    },
    {
      "inputs": [],
      "name": "owner",
      "outputs": [
        {
          "internalType": "address",
          "name": "",
          "type": "address"
        }
      ],
      "stateMutability": "view",
      "type": "function"
    },
    {
      "inputs": [],
      "name": "renounceOwnership",
      "outputs": [],
      "stateMutability": "nonpayable",
      "type": "function"
    },
    {
      "inputs": [],
      "name": "totalDeliveries",
      "outputs": [
        {
          "internalType": "uint256",
          "name": "",
          "type": "uint256"
        }
      ],
      "stateMutability": "view",
      "type": "function"
    },
    {
      "inputs": [],
      "name": "totalQuantities",
      "outputs": [
        {
          "internalType": "uint256",
          "name": "",
          "type": "uint256"
        }
      ],
      "stateMutability": "view",
      "type": "function"
    },
    {
      "inputs": [
        {
          "internalType": "address",
          "name": "newOwner",
          "type": "address"
        }
      ],
      "name": "transferOwnership",
      "outputs": [],
      "stateMutability": "nonpayable",
      "type": "function"
    },
    {
      "inputs": [
        {
          "internalType": "uint256",
          "name": "",
          "type": "uint256"
        }
      ],
      "name": "vendors",
      "outputs": [
        {
          "internalType": "uint256",
          "name": "id",
          "type": "uint256"
        },
        {
          "internalType": "string",
          "name": "milkFactory",
          "type": "string"
        },
        {
          "internalType": "string",
          "name": "name",
          "type": "string"
        },
        {
          "internalType": "string",
          "name": "email",
          "type": "string"
        },
        {
          "internalType": "address payable",
          "name": "vendorAddress",
          "type": "address"
        },
        {
          "internalType": "uint256",
          "name": "createdAt",
          "type": "uint256"
        }
      ],
      "stateMutability": "view",
      "type": "function"
    },
    {
      "inputs": [
        {
          "internalType": "address",
          "name": "",
          "type": "address"
        }
      ],
      "name": "vendorsByUser",
      "outputs": [
        {
          "internalType": "uint256",
          "name": "id",
          "type": "uint256"
        },
        {
          "internalType": "string",
          "name": "milkFactory",
          "type": "string"
        },
        {
          "internalType": "string",
          "name": "name",
          "type": "string"
        },
        {
          "internalType": "string",
          "name": "email",
          "type": "string"
        },
        {
          "internalType": "address payable",
          "name": "vendorAddress",
          "type": "address"
        },
        {
          "internalType": "uint256",
          "name": "createdAt",
          "type": "uint256"
        }
      ],
      "stateMutability": "view",
      "type": "function"
    },
    {
      "inputs": [
        {
          "internalType": "address",
          "name": "_vendor",
          "type": "address"
        }
      ],
      "name": "approveVendor",
      "outputs": [
        {
          "internalType": "bool",
          "name": "",
          "type": "bool"
        }
      ],
      "stateMutability": "nonpayable",
      "type": "function"
    },
    {
      "inputs": [
        {
          "internalType": "address",
          "name": "_newVendor",
          "type": "address"
        },
        {
          "internalType": "string",
          "name": "_milkFactory",
          "type": "string"
        },
        {
          "internalType": "string",
          "name": "_name",
          "type": "string"
        },
        {
          "internalType": "string",
          "name": "_email",
          "type": "string"
        }
      ],
      "name": "addNewVendor",
      "outputs": [
        {
          "internalType": "bool",
          "name": "",
          "type": "bool"
        }
      ],
      "stateMutability": "nonpayable",
      "type": "function"
    },
    {
      "inputs": [
        {
          "internalType": "address",
          "name": "_vendor",
          "type": "address"
        },
        {
          "internalType": "uint256",
          "name": "_date",
          "type": "uint256"
        }
      ],
      "name": "getVendorQuantityByDate",
      "outputs": [
        {
          "internalType": "uint256",
          "name": "",
          "type": "uint256"
        }
      ],
      "stateMutability": "view",
      "type": "function"
    },
    {
      "inputs": [
        {
          "internalType": "uint256",
          "name": "_quantity",
          "type": "uint256"
        },
        {
          "internalType": "enum MilkDelivery.MILK_QUALITY_TYPE",
          "name": "_qualityType",
          "type": "uint8"
        }
      ],
      "name": "recordNewDelivery",
      "outputs": [
        {
          "internalType": "bool",
          "name": "",
          "type": "bool"
        }
      ],
      "stateMutability": "nonpayable",
      "type": "function"
    },
    {
      "inputs": [],
      "name": "totalQuantity",
      "outputs": [
        {
          "internalType": "uint256",
          "name": "",
          "type": "uint256"
        }
      ],
      "stateMutability": "view",
      "type": "function"
    },
    {
      "inputs": [],
      "name": "vendorList",
      "outputs": [
        {
          "components": [
            {
              "internalType": "uint256",
              "name": "id",
              "type": "uint256"
            },
            {
              "internalType": "string",
              "name": "milkFactory",
              "type": "string"
            },
            {
              "internalType": "string",
              "name": "name",
              "type": "string"
            },
            {
              "internalType": "string",
              "name": "email",
              "type": "string"
            },
            {
              "internalType": "address payable",
              "name": "vendorAddress",
              "type": "address"
            },
            {
              "internalType": "uint256",
              "name": "createdAt",
              "type": "uint256"
            }
          ],
          "internalType": "struct MilkDelivery.Vendor[]",
          "name": "",
          "type": "tuple[]"
        }
      ],
      "stateMutability": "view",
      "type": "function"
    }
  ],
  "bytecode": "0x608060405260006004556000600555600060065534801561001f57600080fd5b506100293361002e565b61007e565b600080546001600160a01b038381166001600160a01b0319831681178455604051919092169283917f8be0079c531659141344cd1fd0a4f28419497f9722a3daafe3b4186f6b6457e09190a35050565b6117fb8061008d6000396000f3fe608060405234801561001057600080fd5b50600436106101215760003560e01c8063a08d986d116100ad578063ddc00f3b11610071578063ddc00f3b14610295578063df627c2a146102aa578063e128e234146102f4578063f2fde38b146102fd578063f8a529231461031057600080fd5b8063a08d986d14610231578063a1ac3b6d14610244578063a420623b14610257578063c616f4121461027a578063cea676e41461028257600080fd5b80637129bbb7116100f45780637129bbb7146101a5578063715018a6146101b8578063868947c9146101c257806386f22dbd146101ed5780638da5cb5b1461022057600080fd5b80630c59d639146101265780633df0acc9146101425780634ca5d142146101675780636c1c13a81461018b575b600080fd5b61012f60065481565b6040519081526020015b60405180910390f35b610155610150366004611348565b610323565b604051610139969594939291906113b0565b61017a61017536600461140e565b6104fa565b60405161013995949392919061145f565b6003546101989060ff1681565b604051610139919061149b565b61012f6101b33660046114a9565b610548565b6101c0610589565b005b6101d56101d036600461140e565b6105c8565b6040516001600160a01b039091168152602001610139565b6102106101fb366004611348565b600a6020526000908152604090205460ff1681565b6040519015158152602001610139565b6000546001600160a01b03166101d5565b61015561023f36600461140e565b6105f2565b610210610252366004611576565b610627565b610210610265366004611348565b600e6020526000908152604090205460ff1681565b60055461012f565b61021061029036600461160f565b610a27565b61029d610e36565b6040516101399190611643565b61017a6102b8366004611348565b600b60205260009081526040902080546001820154600283015460038401546004909401546001600160a01b0390931693919290919060ff1685565b61012f60055481565b6101c061030b366004611348565b611078565b61021061031e366004611348565b611113565b600d60205260009081526040902080546001820180549192916103459061170c565b80601f01602080910402602001604051908101604052809291908181526020018280546103719061170c565b80156103be5780601f10610393576101008083540402835291602001916103be565b820191906000526020600020905b8154815290600101906020018083116103a157829003601f168201915b5050505050908060020180546103d39061170c565b80601f01602080910402602001604051908101604052809291908181526020018280546103ff9061170c565b801561044c5780601f106104215761010080835404028352916020019161044c565b820191906000526020600020905b81548152906001019060200180831161042f57829003601f168201915b5050505050908060030180546104619061170c565b80601f016020809104026020016040519081016040528092919081815260200182805461048d9061170c565b80156104da5780601f106104af576101008083540402835291602001916104da565b820191906000526020600020905b8154815290600101906020018083116104bd57829003601f168201915b50505050600483015460059093015491926001600160a01b031691905086565b6008818154811061050a57600080fd5b6000918252602090912060059091020180546001820154600283015460038401546004909401546001600160a01b0390931694509092909160ff1685565b60006001600160a01b03831661055d57600080fd5b506001600160a01b0382166000908152600c602090815260408083208484529091529020545b92915050565b6000546001600160a01b031633146105bc5760405162461bcd60e51b81526004016105b390611741565b60405180910390fd5b6105c66000611230565b565b600981815481106105d857600080fd5b6000918252602090912001546001600160a01b0316905081565b6007818154811061060257600080fd5b600091825260209091206006909102018054600182018054919350906103459061170c565b600080546001600160a01b031633146106525760405162461bcd60e51b81526004016105b390611741565b846001600160a01b0381166106795760405162461bcd60e51b81526004016105b390611776565b6001600160a01b0381166000908152600e602052604090205460ff16156106da5760405162461bcd60e51b8152602060048201526015602482015274135a5b1ac815995b991bdc881a5cc81b1a5cdd1959605a1b60448201526064016105b3565b600085511161072b5760405162461bcd60e51b815260206004820152601f60248201527f4e6577204d696c6b2056656e646f72203d3e204e756c6c20466163746f72790060448201526064016105b3565b60008451116107885760405162461bcd60e51b815260206004820152602360248201527f4e6577204d696c6b2056656e646f72203d3e204e756c6c2056656e646f72204e604482015262616d6560e81b60648201526084016105b3565b60008351116107e55760405162461bcd60e51b8152602060048201526024808201527f4e6577204d696c6b2056656e646f72203d3e204e756c6c2056656e646f7220456044820152631b585a5b60e21b60648201526084016105b3565b6107f3600280546001019055565b60006107fe60025490565b6040805160c08101825282815260208082018a8152928201899052606082018890526001600160a01b038b1660808301524260a083015260078054600181018255600091909152825160069091027fa66cc928b5edb82af9bd49922954155ab7b0942694bea4ce44661d9a8736c6888101918255935180519596509294859491936108af937fa66cc928b5edb82af9bd49922954155ab7b0942694bea4ce44661d9a8736c689909301920190611293565b50604082015180516108cb916002840191602090910190611293565b50606082015180516108e7916003840191602090910190611293565b5060808201516004820180546001600160a01b0319166001600160a01b0390921691909117905560a090910151600590910155336000908152600d60209081526040909120825181558282015180518493610949926001850192910190611293565b5060408201518051610965916002840191602090910190611293565b5060608201518051610981916003840191602090910190611293565b506080820151600482810180546001600160a01b0319166001600160a01b0393841617905560a09093015160059092019190915589166000908152600e60205260409020805460ff1916600190811790915590546109de91611280565b600455604051429033906001600160a01b038b16907ff2ec7d1becaa3243fd29d0fc48bde1dd19c594104b9ce00eb188b9797face12d90600090a4506001979650505050505050565b60003380610a475760405162461bcd60e51b81526004016105b390611776565b6001600160a01b0381166000908152600e602052604090205460ff161515600114610aad5760405162461bcd60e51b8152602060048201526016602482015275135a5b1ac815995b991bdc881b9bdd081b1a5cdd195960521b60448201526064016105b3565b3380610acb5760405162461bcd60e51b81526004016105b390611776565b6001600160a01b0381166000908152600a602052604090205460ff161515600114610b2e5760405162461bcd60e51b815260206004820152601360248201527215995b991bdc88139bdd08105c1c1c9bdd9959606a1b60448201526064016105b3565b84610b995760405162461bcd60e51b815260206004820152603560248201527f4e6577204d696c6b2044656c6976657279204974656d3a203d3e205a65726f20604482015274145d585b9d1a5d1e48139bdd081058d8d95c1d1959605a1b60648201526084016105b3565b610ba7600180546001019055565b6000610bb260015490565b905060006040518060a00160405280336001600160a01b03168152602001838152602001428152602001888152602001876003811115610bf457610bf4611427565b9052600880546001808201835560009290925282517ff3f7a9fe364faab93b216da50a3214154f22a0a2b415b23a84c8169e8b636ee3600590920291820180546001600160a01b0319166001600160a01b0390921691909117815560208401517ff3f7a9fe364faab93b216da50a3214154f22a0a2b415b23a84c8169e8b636ee483015560408401517ff3f7a9fe364faab93b216da50a3214154f22a0a2b415b23a84c8169e8b636ee583015560608401517ff3f7a9fe364faab93b216da50a3214154f22a0a2b415b23a84c8169e8b636ee683015560808401517ff3f7a9fe364faab93b216da50a3214154f22a0a2b415b23a84c8169e8b636ee7909201805494955085949193909160ff191690836003811115610d1557610d15611427565b021790555050336000908152600b6020908152604091829020845181546001600160a01b0319166001600160a01b03909116178155908401516001808301919091559184015160028201556060840151600380830191909155608085015160048301805487965093949193909260ff1990911691908490811115610d9b57610d9b611427565b021790555050336000908152600c60209081526040808320428452909152902088905550600654610dcd906001611280565b600655600554610ddd9088611280565b600555856003811115610df257610df2611427565b604051428152889033907f85f3f3a7f3ef4c556d64244b4b4b8bd8a4d3977d27b6f270cafe93466f8001649060200160405180910390a45060019695505050505050565b60606007805480602002602001604051908101604052809291908181526020016000905b8282101561106f57838290600052602060002090600602016040518060c001604052908160008201548152602001600182018054610e979061170c565b80601f0160208091040260200160405190810160405280929190818152602001828054610ec39061170c565b8015610f105780601f10610ee557610100808354040283529160200191610f10565b820191906000526020600020905b815481529060010190602001808311610ef357829003601f168201915b50505050508152602001600282018054610f299061170c565b80601f0160208091040260200160405190810160405280929190818152602001828054610f559061170c565b8015610fa25780601f10610f7757610100808354040283529160200191610fa2565b820191906000526020600020905b815481529060010190602001808311610f8557829003601f168201915b50505050508152602001600382018054610fbb9061170c565b80601f0160208091040260200160405190810160405280929190818152602001828054610fe79061170c565b80156110345780601f1061100957610100808354040283529160200191611034565b820191906000526020600020905b81548152906001019060200180831161101757829003601f168201915b505050918352505060048201546001600160a01b03166020808301919091526005909201546040909101529082526001929092019101610e5a565b50505050905090565b6000546001600160a01b031633146110a25760405162461bcd60e51b81526004016105b390611741565b6001600160a01b0381166111075760405162461bcd60e51b815260206004820152602660248201527f4f776e61626c653a206e6577206f776e657220697320746865207a65726f206160448201526564647265737360d01b60648201526084016105b3565b61111081611230565b50565b600080546001600160a01b0316331461113e5760405162461bcd60e51b81526004016105b390611741565b816001600160a01b0381166111655760405162461bcd60e51b81526004016105b390611776565b6001600160a01b0381166000908152600a602052604090205460ff16156111c05760405162461bcd60e51b815260206004820152600f60248201526e15995b991bdc88105c1c1c9bdd9959608a1b60448201526064016105b3565b6001600160a01b0383166000818152600a60205260408120805460ff1916600190811790915560098054808301825592527f6e1540171b6c0c960b71a7020d9f60077f6af931a8bbf590da0223dacf75c7af90910180546001600160a01b03191690921790915591505b50919050565b600080546001600160a01b038381166001600160a01b0319831681178455604051919092169283917f8be0079c531659141344cd1fd0a4f28419497f9722a3daafe3b4186f6b6457e09190a35050565b600061128c828461179f565b9392505050565b82805461129f9061170c565b90600052602060002090601f0160209004810192826112c15760008555611307565b82601f106112da57805160ff1916838001178555611307565b82800160010185558215611307579182015b828111156113075782518255916020019190600101906112ec565b50611313929150611317565b5090565b5b808211156113135760008155600101611318565b80356001600160a01b038116811461134357600080fd5b919050565b60006020828403121561135a57600080fd5b61128c8261132c565b6000815180845260005b818110156113895760208185018101518683018201520161136d565b8181111561139b576000602083870101525b50601f01601f19169290920160200192915050565b86815260c0602082015260006113c960c0830188611363565b82810360408401526113db8188611363565b905082810360608401526113ef8187611363565b6001600160a01b03959095166080840152505060a00152949350505050565b60006020828403121561142057600080fd5b5035919050565b634e487b7160e01b600052602160045260246000fd5b6004811061145b57634e487b7160e01b600052602160045260246000fd5b9052565b6001600160a01b038616815260208101859052604081018490526060810183905260a08101611491608083018461143d565b9695505050505050565b60208101610583828461143d565b600080604083850312156114bc57600080fd5b6114c58361132c565b946020939093013593505050565b634e487b7160e01b600052604160045260246000fd5b600082601f8301126114fa57600080fd5b813567ffffffffffffffff80821115611515576115156114d3565b604051601f8301601f19908116603f0116810190828211818310171561153d5761153d6114d3565b8160405283815286602085880101111561155657600080fd5b836020870160208301376000602085830101528094505050505092915050565b6000806000806080858703121561158c57600080fd5b6115958561132c565b9350602085013567ffffffffffffffff808211156115b257600080fd5b6115be888389016114e9565b945060408701359150808211156115d457600080fd5b6115e0888389016114e9565b935060608701359150808211156115f657600080fd5b50611603878288016114e9565b91505092959194509250565b6000806040838503121561162257600080fd5b8235915060208301356004811061163857600080fd5b809150509250929050565b60006020808301818452808551808352604092508286019150828160051b87010184880160005b838110156116fe57603f19898403018552815160c08151855288820151818a87015261169882870182611363565b91505087820151858203898701526116b08282611363565b915050606080830151868303828801526116ca8382611363565b6080858101516001600160a01b03169089015260a0948501519490970193909352505050938601939086019060010161166a565b509098975050505050505050565b600181811c9082168061172057607f821691505b6020821081141561122a57634e487b7160e01b600052602260045260246000fd5b6020808252818101527f4f776e61626c653a2063616c6c6572206973206e6f7420746865206f776e6572604082015260600190565b6020808252600f908201526e496e76616c6964204164647265737360881b604082015260600190565b600082198211156117c057634e487b7160e01b600052601160045260246000fd5b50019056fea2646970667358221220f0e394c5c11a878c163d35c4213d464a0d491288f6ba9689586fa1d32036e0c364736f6c634300080b0033",
  "immutableReferences": {},
  "source": "// SPDX-License-Identifier: MIT\npragma solidity ^0.8.0;\nimport \"@openzeppelin/contracts/access/Ownable.sol\";\nimport \"@openzeppelin/contracts/utils/math/SafeMath.sol\";\nimport \"@openzeppelin/contracts/utils/Counters.sol\";\nimport \"./MilkDeliveryInterface.sol\";\n\n/**\n  * @title Milk Delivery Contract\n  * @dev A smart contract that enables dairy farmers to record their daily produce\n */\ncontract MilkDelivery is Ownable, MilkDeliveryInterface {\n  using SafeMath for uint256;\n  using Counters for Counters.Counter;\n\n  Counters.Counter private milkDeliveryIds; //to help track milk delivery items by ID e.g 1\n  Counters.Counter private vendorIds; //to help track vendors by ID e.g 1\n\n  enum MILK_QUALITY_TYPE { GOOD, STALE, PERFECT, BAD } //quality types\n  MILK_QUALITY_TYPE public milkQualityType; //in order to access the enum via a variable\n\n  //Vendor struct with vendor particulars/details\n  struct Vendor{\n    uint id;\n    string milkFactory;\n    string name;\n    string email;\n    address payable vendorAddress;\n    uint createdAt;\n  }\n\n  //Delivery struct with delivery item particulars\n  struct MilkDeliveryItem{\n    address payable vendor;\n    uint id;\n    uint date;\n    uint quantity;\n    MILK_QUALITY_TYPE milkQualityType;\n  }\n\n  uint totalVendors = 0; //total vendors initialised to 0\n  uint public totalQuantities = 0; //keeps track of total milk quantity recorded on-chain\n  uint public totalDeliveries = 0; //to handle incrementing of overral milk quantities\n\n  Vendor[] public vendors; //an array of the vendors\n  MilkDeliveryItem[] public milkDeliveries; //to help keep track of delivery items as an array\n  address[] public approvedVendors; //the addresses of the approved vendors\n  \n  mapping(address => bool) public isApprovedForMilkVending; //a boolean indicating whether a vendor has been approved\n  mapping(address => MilkDeliveryItem) public deliveryItemByVendor; //get the delivery item by vendor identified by an address\n  mapping(address => mapping(uint => uint)) vendorQuantityByDate; //keeps track of the total quantity of the vendor by date [address][date][quantity]\n  mapping(address => Vendor) public vendorsByUser; //who added thie vendor item\n  mapping(address => bool) public isVendorListed; //to show whether this address is listed as a vendor or not\n\n  event NewMilkDeliveryRecorded(address indexed vendor, uint indexed quantity, MILK_QUALITY_TYPE indexed quality, uint date);\n  event NewMilkVendorAdded(address indexed vendor, address indexed addedBy, uint indexed date);\n\n  error BadRecord();\n\n  constructor() public {\n  }\n\n  modifier isApprovedForVending(address _vendor){\n    require(_vendor != address(0),\"Invalid Address\");\n    require(isApprovedForMilkVending[_vendor] == true,\"Vendor Not Approved\");\n    _;\n  }\n\n  modifier isNotApprovedForVending(address _vendor){\n    require(_vendor != address(0),\"Invalid Address\");\n    require(isApprovedForMilkVending[_vendor] == false,\"Vendor Approved\");\n    _;\n  }\n\n  modifier isListedAsAvendor(address _vendor){\n    require(_vendor != address(0),\"Invalid Address\");\n    require(isVendorListed[_vendor] == true,\"Milk Vendor not listed\");\n    _;\n  }\n\n  modifier vendorNotListed(address _vendor){\n    require(_vendor != address(0),\"Invalid Address\");\n    require(isVendorListed[_vendor] == false,\"Milk Vendor is listed\");\n    _;\n  }\n\n  /**\n    * @dev approves a vendor for milk delivery, only performed by the contract owner\n    * @param _vendor address\n   */\n   function approveVendor(address _vendor) public onlyOwner isNotApprovedForVending(_vendor) returns(bool){\n      isApprovedForMilkVending[_vendor] = true;\n      approvedVendors.push(_vendor);\n      return true;\n   }\n\n  /**\n    * @dev enables only the contract owner to add a new vendor\n    * @param _newVendor address \n    * @param _milkFactory string\n    * @param _name string\n    * @param _email string \n   */\n  function addNewVendor(address _newVendor, string memory _milkFactory, string memory _name, string memory _email) public \n  onlyOwner \n  vendorNotListed(_newVendor)\n  returns(bool)\n  {\n      require(bytes(_milkFactory).length > 0, \"New Milk Vendor => Null Factory\");\n      require(bytes(_name).length > 0, \"New Milk Vendor => Null Vendor Name\");\n      require(bytes(_email).length > 0, \"New Milk Vendor => Null Vendor Email\");\n\n      vendorIds.increment();\n      uint currentVendorId = vendorIds.current();\n      Vendor memory newMilkVendor = Vendor(currentVendorId,_milkFactory,_name,_email, payable(_newVendor), block.timestamp);\n      vendors.push(newMilkVendor);\n      vendorsByUser[msg.sender] = newMilkVendor;\n      isVendorListed[_newVendor] = true;\n      totalVendors = totalVendors.add(1);\n      emit NewMilkVendorAdded(_newVendor, msg.sender, block.timestamp);\n      return true;\n  }\n  /**\n   * @dev returns the total quantity of milk recorded by a vendor on a specific date\n   * @param _vendor address\n   * @param _date uint\n   */\n  function getVendorQuantityByDate(address _vendor, uint _date) public view returns(uint){\n    require(_vendor != address(0)); //Not an empty address\n    return vendorQuantityByDate[_vendor][_date];\n  }\n\n  /**\n    * @dev record a new milk delivery\n    * @param _quantity uint\n    * @param _qualityType enum\n   */\n  function recordNewDelivery(uint _quantity, MILK_QUALITY_TYPE _qualityType) public \n  isListedAsAvendor(msg.sender) \n  isApprovedForVending(msg.sender) \n  returns(bool)\n  {\n    require( _quantity != 0,\"New Milk Delivery Item: => Zero Quantity Not Accepted\");\n    milkDeliveryIds.increment();\n    uint currentDeliveryId = milkDeliveryIds.current();\n    MilkDeliveryItem memory newMilkDeliveryItem = MilkDeliveryItem(payable(msg.sender),currentDeliveryId, block.timestamp,_quantity,_qualityType);\n    milkDeliveries.push(newMilkDeliveryItem);\n    deliveryItemByVendor[msg.sender] = newMilkDeliveryItem;\n    vendorQuantityByDate[msg.sender][block.timestamp] = _quantity;\n    totalDeliveries = totalDeliveries.add(1);\n    totalQuantities = totalQuantities.add(_quantity);\n    emit NewMilkDeliveryRecorded(msg.sender,_quantity,_qualityType, block.timestamp);\n    return true;\n  }\n\n  /**\n    * @dev gets the total quantity of milk by all vendors recorded on-chain\n   */\n  function totalQuantity() external virtual view returns(uint){\n    return totalQuantities;\n  }\n\n  /**\n    * @dev returns an array of all the vendors\n   */\n  function vendorList() public view returns(Vendor[] memory){\n    return vendors;\n  }\n}\n",
  "sourcePath": "D:/Dickens/Programming/Blockchain/Projects/Research Projects/MMUST/Dairy Farmers Milk Delivery/contracts/MilkDelivery.sol",
  "compiler": {
    "name": "solc",
    "version": "0.8.11+commit.d7f03943.Emscripten.clang"
  },
  "schemaVersion": "3.4.1",
  "updatedAt": "2021-12-30T19:49:49.770Z",
  "devdoc": {
    "details": "A smart contract that enables dairy farmers to record their daily produce",
    "kind": "dev",
    "methods": {
      "addNewVendor(address,string,string,string)": {
        "details": "enables only the contract owner to add a new vendor",
        "params": {
          "_email": "string ",
          "_milkFactory": "string",
          "_name": "string",
          "_newVendor": "address "
        }
      },
      "approveVendor(address)": {
        "details": "approves a vendor for milk delivery, only performed by the contract owner",
        "params": {
          "_vendor": "address"
        }
      },
      "getVendorQuantityByDate(address,uint256)": {
        "details": "returns the total quantity of milk recorded by a vendor on a specific date",
        "params": {
          "_date": "uint",
          "_vendor": "address"
        }
      },
      "owner()": {
        "details": "Returns the address of the current owner."
      },
      "recordNewDelivery(uint256,uint8)": {
        "details": "record a new milk delivery",
        "params": {
          "_qualityType": "enum",
          "_quantity": "uint"
        }
      },
      "renounceOwnership()": {
        "details": "Leaves the contract without owner. It will not be possible to call `onlyOwner` functions anymore. Can only be called by the current owner. NOTE: Renouncing ownership will leave the contract without an owner, thereby removing any functionality that is only available to the owner."
      },
      "totalQuantity()": {
        "details": "gets the total quantity of milk by all vendors recorded on-chain"
      },
      "transferOwnership(address)": {
        "details": "Transfers ownership of the contract to a new account (`newOwner`). Can only be called by the current owner."
      },
      "vendorList()": {
        "details": "returns an array of all the vendors"
      }
    },
    "title": "Milk Delivery Contract",
    "version": 1
  },
  "userdoc": {
    "kind": "user",
    "methods": {},
    "version": 1
  }
}