{
  "contractName": "MilkDelivery",
  "abi": [
    {
      "inputs": [],
      "stateMutability": "nonpayable",
      "type": "constructor"
    },
    {
      "inputs": [],
      "name": "BadRecord",
      "type": "error"
    },
    {
      "anonymous": false,
      "inputs": [
        {
          "indexed": true,
          "internalType": "address",
          "name": "vendor",
          "type": "address"
        },
        {
          "indexed": true,
          "internalType": "uint256",
          "name": "quantity",
          "type": "uint256"
        },
        {
          "indexed": true,
          "internalType": "enum MilkDelivery.MILK_QUALITY_TYPE",
          "name": "quality",
          "type": "uint8"
        },
        {
          "indexed": false,
          "internalType": "uint256",
          "name": "date",
          "type": "uint256"
        }
      ],
      "name": "NewMilkDeliveryRecorded",
      "type": "event"
    },
    {
      "anonymous": false,
      "inputs": [
        {
          "indexed": true,
          "internalType": "address",
          "name": "previousOwner",
          "type": "address"
        },
        {
          "indexed": true,
          "internalType": "address",
          "name": "newOwner",
          "type": "address"
        }
      ],
      "name": "OwnershipTransferred",
      "type": "event"
    },
    {
      "inputs": [
        {
          "internalType": "uint256",
          "name": "",
          "type": "uint256"
        }
      ],
      "name": "approvedVendors",
      "outputs": [
        {
          "internalType": "address",
          "name": "",
          "type": "address"
        }
      ],
      "stateMutability": "view",
      "type": "function"
    },
    {
      "inputs": [
        {
          "internalType": "address",
          "name": "",
          "type": "address"
        }
      ],
      "name": "deliveryItemByVendor",
      "outputs": [
        {
          "internalType": "address payable",
          "name": "vendor",
          "type": "address"
        },
        {
          "internalType": "uint256",
          "name": "id",
          "type": "uint256"
        },
        {
          "internalType": "uint256",
          "name": "date",
          "type": "uint256"
        },
        {
          "internalType": "uint256",
          "name": "quantity",
          "type": "uint256"
        },
        {
          "internalType": "enum MilkDelivery.MILK_QUALITY_TYPE",
          "name": "milkQualityType",
          "type": "uint8"
        }
      ],
      "stateMutability": "view",
      "type": "function"
    },
    {
      "inputs": [
        {
          "internalType": "address",
          "name": "",
          "type": "address"
        }
      ],
      "name": "isApprovedForMilkVending",
      "outputs": [
        {
          "internalType": "bool",
          "name": "",
          "type": "bool"
        }
      ],
      "stateMutability": "view",
      "type": "function"
    },
    {
      "inputs": [
        {
          "internalType": "uint256",
          "name": "",
          "type": "uint256"
        }
      ],
      "name": "milkDeliveries",
      "outputs": [
        {
          "internalType": "address payable",
          "name": "vendor",
          "type": "address"
        },
        {
          "internalType": "uint256",
          "name": "id",
          "type": "uint256"
        },
        {
          "internalType": "uint256",
          "name": "date",
          "type": "uint256"
        },
        {
          "internalType": "uint256",
          "name": "quantity",
          "type": "uint256"
        },
        {
          "internalType": "enum MilkDelivery.MILK_QUALITY_TYPE",
          "name": "milkQualityType",
          "type": "uint8"
        }
      ],
      "stateMutability": "view",
      "type": "function"
    },
    {
      "inputs": [],
      "name": "milkQualityType",
      "outputs": [
        {
          "internalType": "enum MilkDelivery.MILK_QUALITY_TYPE",
          "name": "",
          "type": "uint8"
        }
      ],
      "stateMutability": "view",
      "type": "function"
    },
    {
      "inputs": [],
      "name": "owner",
      "outputs": [
        {
          "internalType": "address",
          "name": "",
          "type": "address"
        }
      ],
      "stateMutability": "view",
      "type": "function"
    },
    {
      "inputs": [],
      "name": "renounceOwnership",
      "outputs": [],
      "stateMutability": "nonpayable",
      "type": "function"
    },
    {
      "inputs": [],
      "name": "totalDeliveries",
      "outputs": [
        {
          "internalType": "uint256",
          "name": "",
          "type": "uint256"
        }
      ],
      "stateMutability": "view",
      "type": "function"
    },
    {
      "inputs": [],
      "name": "totalQuantities",
      "outputs": [
        {
          "internalType": "uint256",
          "name": "",
          "type": "uint256"
        }
      ],
      "stateMutability": "view",
      "type": "function"
    },
    {
      "inputs": [
        {
          "internalType": "address",
          "name": "newOwner",
          "type": "address"
        }
      ],
      "name": "transferOwnership",
      "outputs": [],
      "stateMutability": "nonpayable",
      "type": "function"
    },
    {
      "inputs": [
        {
          "internalType": "address",
          "name": "",
          "type": "address"
        }
      ],
      "name": "vendorQuantity",
      "outputs": [
        {
          "internalType": "uint256",
          "name": "",
          "type": "uint256"
        }
      ],
      "stateMutability": "view",
      "type": "function"
    },
    {
      "inputs": [
        {
          "internalType": "uint256",
          "name": "",
          "type": "uint256"
        }
      ],
      "name": "vendors",
      "outputs": [
        {
          "internalType": "uint256",
          "name": "id",
          "type": "uint256"
        },
        {
          "internalType": "string",
          "name": "milkFactory",
          "type": "string"
        },
        {
          "internalType": "string",
          "name": "name",
          "type": "string"
        },
        {
          "internalType": "string",
          "name": "email",
          "type": "string"
        },
        {
          "internalType": "address",
          "name": "vendorAddress",
          "type": "address"
        }
      ],
      "stateMutability": "view",
      "type": "function"
    },
    {
      "inputs": [
        {
          "internalType": "address",
          "name": "_vendor",
          "type": "address"
        }
      ],
      "name": "approveVendor",
      "outputs": [
        {
          "internalType": "bool",
          "name": "",
          "type": "bool"
        }
      ],
      "stateMutability": "nonpayable",
      "type": "function"
    },
    {
      "inputs": [
        {
          "internalType": "address",
          "name": "_vendor",
          "type": "address"
        },
        {
          "internalType": "uint256",
          "name": "_date",
          "type": "uint256"
        }
      ],
      "name": "getVendorQuantityByDate",
      "outputs": [
        {
          "internalType": "uint256",
          "name": "",
          "type": "uint256"
        }
      ],
      "stateMutability": "view",
      "type": "function"
    },
    {
      "inputs": [
        {
          "internalType": "uint256",
          "name": "_quantity",
          "type": "uint256"
        },
        {
          "internalType": "enum MilkDelivery.MILK_QUALITY_TYPE",
          "name": "_qualityType",
          "type": "uint8"
        }
      ],
      "name": "recordNewDelivery",
      "outputs": [
        {
          "internalType": "bool",
          "name": "",
          "type": "bool"
        }
      ],
      "stateMutability": "nonpayable",
      "type": "function"
    },
    {
      "inputs": [],
      "name": "totalQuantity",
      "outputs": [
        {
          "internalType": "uint256",
          "name": "",
          "type": "uint256"
        }
      ],
      "stateMutability": "view",
      "type": "function"
    },
    {
      "inputs": [],
      "name": "vendorList",
      "outputs": [
        {
          "components": [
            {
              "internalType": "uint256",
              "name": "id",
              "type": "uint256"
            },
            {
              "internalType": "string",
              "name": "milkFactory",
              "type": "string"
            },
            {
              "internalType": "string",
              "name": "name",
              "type": "string"
            },
            {
              "internalType": "string",
              "name": "email",
              "type": "string"
            },
            {
              "internalType": "address",
              "name": "vendorAddress",
              "type": "address"
            }
          ],
          "internalType": "struct MilkDelivery.Vendor[]",
          "name": "",
          "type": "tuple[]"
        }
      ],
      "stateMutability": "view",
      "type": "function"
    }
  ],
  "bytecode": "0x608060405260006004556000600555600060065534801561001f57600080fd5b506100293361002e565b61007e565b600080546001600160a01b038381166001600160a01b0319831681178455604051919092169283917f8be0079c531659141344cd1fd0a4f28419497f9722a3daafe3b4186f6b6457e09190a35050565b6110f28061008d6000396000f3fe608060405234801561001057600080fd5b506004361061010b5760003560e01c80638da5cb5b116100a2578063ddc00f3b11610071578063ddc00f3b14610255578063df627c2a1461026a578063e128e234146102b4578063f2fde38b146102bd578063f8a52923146102d057600080fd5b80638da5cb5b14610205578063a08d986d14610216578063c616f4121461023a578063cea676e41461024257600080fd5b80637129bbb7116100de5780637129bbb71461018a578063715018a61461019d578063868947c9146101a757806386f22dbd146101d257600080fd5b80630c59d639146101105780634ca5d1421461012c5780635039185e146101505780636c1c13a814610170575b600080fd5b61011960065481565b6040519081526020015b60405180910390f35b61013f61013a366004610d95565b6102e3565b604051610123959493929190610de6565b61011961015e366004610e3e565b600c6020526000908152604090205481565b60035461017d9060ff1681565b6040516101239190610e59565b610119610198366004610e67565b610331565b6101a5610372565b005b6101ba6101b5366004610d95565b6103b1565b6040516001600160a01b039091168152602001610123565b6101f56101e0366004610e3e565b600a6020526000908152604090205460ff1681565b6040519015158152602001610123565b6000546001600160a01b03166101ba565b610229610224366004610d95565b6103db565b604051610123959493929190610ede565b600554610119565b6101f5610250366004610f38565b6105be565b61025d610922565b6040516101239190610f6c565b61013f610278366004610e3e565b600b60205260009081526040902080546001820154600283015460038401546004909401546001600160a01b0390931693919290919060ff1685565b61011960055481565b6101a56102cb366004610e3e565b610b57565b6101f56102de366004610e3e565b610bf2565b600881815481106102f357600080fd5b6000918252602090912060059091020180546001820154600283015460038401546004909401546001600160a01b0390931694509092909160ff1685565b60006001600160a01b03831661034657600080fd5b506001600160a01b0382166000908152600d602090815260408083208484529091529020545b92915050565b6000546001600160a01b031633146103a55760405162461bcd60e51b815260040161039c9061102c565b60405180910390fd5b6103af6000610d32565b565b600981815481106103c157600080fd5b6000918252602090912001546001600160a01b0316905081565b600781815481106103eb57600080fd5b6000918252602090912060059091020180546001820180549193509061041090611061565b80601f016020809104026020016040519081016040528092919081815260200182805461043c90611061565b80156104895780601f1061045e57610100808354040283529160200191610489565b820191906000526020600020905b81548152906001019060200180831161046c57829003601f168201915b50505050509080600201805461049e90611061565b80601f01602080910402602001604051908101604052809291908181526020018280546104ca90611061565b80156105175780601f106104ec57610100808354040283529160200191610517565b820191906000526020600020905b8154815290600101906020018083116104fa57829003601f168201915b50505050509080600301805461052c90611061565b80601f016020809104026020016040519081016040528092919081815260200182805461055890611061565b80156105a55780601f1061057a576101008083540402835291602001916105a5565b820191906000526020600020905b81548152906001019060200180831161058857829003601f168201915b505050600490930154919250506001600160a01b031685565b336000818152600a602052604081205490919060ff16151560011461061b5760405162461bcd60e51b815260206004820152601360248201527215995b991bdc88139bdd08105c1c1c9bdd9959606a1b604482015260640161039c565b836106865760405162461bcd60e51b815260206004820152603560248201527f4e6577204d696c6b2044656c6976657279204974656d3a203d3e205a65726f20604482015274145d585b9d1a5d1e48139bdd081058d8d95c1d1959605a1b606482015260840161039c565b610694600180546001019055565b600061069f60015490565b905060006040518060a00160405280336001600160a01b031681526020018381526020014281526020018781526020018660038111156106e1576106e1610dae565b9052600880546001808201835560009290925282517ff3f7a9fe364faab93b216da50a3214154f22a0a2b415b23a84c8169e8b636ee3600590920291820180546001600160a01b0319166001600160a01b0390921691909117815560208401517ff3f7a9fe364faab93b216da50a3214154f22a0a2b415b23a84c8169e8b636ee483015560408401517ff3f7a9fe364faab93b216da50a3214154f22a0a2b415b23a84c8169e8b636ee583015560608401517ff3f7a9fe364faab93b216da50a3214154f22a0a2b415b23a84c8169e8b636ee683015560808401517ff3f7a9fe364faab93b216da50a3214154f22a0a2b415b23a84c8169e8b636ee7909201805494955085949193909160ff19169083600381111561080257610802610dae565b021790555050336000908152600b6020908152604091829020845181546001600160a01b0319166001600160a01b03909116178155908401516001808301919091559184015160028201556060840151600380830191909155608085015160048301805487965093949193909260ff199091169190849081111561088857610888610dae565b021790555050336000908152600d602090815260408083204284529091529020879055506006546108ba906001610d82565b6006556005546108ca9087610d82565b6005558460038111156108df576108df610dae565b604051428152879033907f85f3f3a7f3ef4c556d64244b4b4b8bd8a4d3977d27b6f270cafe93466f8001649060200160405180910390a450600195945050505050565b60606007805480602002602001604051908101604052809291908181526020016000905b82821015610b4e57838290600052602060002090600502016040518060a00160405290816000820154815260200160018201805461098390611061565b80601f01602080910402602001604051908101604052809291908181526020018280546109af90611061565b80156109fc5780601f106109d1576101008083540402835291602001916109fc565b820191906000526020600020905b8154815290600101906020018083116109df57829003601f168201915b50505050508152602001600282018054610a1590611061565b80601f0160208091040260200160405190810160405280929190818152602001828054610a4190611061565b8015610a8e5780601f10610a6357610100808354040283529160200191610a8e565b820191906000526020600020905b815481529060010190602001808311610a7157829003601f168201915b50505050508152602001600382018054610aa790611061565b80601f0160208091040260200160405190810160405280929190818152602001828054610ad390611061565b8015610b205780601f10610af557610100808354040283529160200191610b20565b820191906000526020600020905b815481529060010190602001808311610b0357829003601f168201915b5050509183525050600491909101546001600160a01b03166020918201529082526001929092019101610946565b50505050905090565b6000546001600160a01b03163314610b815760405162461bcd60e51b815260040161039c9061102c565b6001600160a01b038116610be65760405162461bcd60e51b815260206004820152602660248201527f4f776e61626c653a206e6577206f776e657220697320746865207a65726f206160448201526564647265737360d01b606482015260840161039c565b610bef81610d32565b50565b600080546001600160a01b03163314610c1d5760405162461bcd60e51b815260040161039c9061102c565b6001600160a01b0382166000908152600a6020526040902054829060ff1615610c7a5760405162461bcd60e51b815260206004820152600f60248201526e15995b991bdc88105c1c1c9bdd9959608a1b604482015260640161039c565b6001600160a01b038316610cc25760405162461bcd60e51b815260206004820152600f60248201526e496e76616c6964204164647265737360881b604482015260640161039c565b6001600160a01b0383166000818152600a60205260408120805460ff1916600190811790915560098054808301825592527f6e1540171b6c0c960b71a7020d9f60077f6af931a8bbf590da0223dacf75c7af90910180546001600160a01b03191690921790915591505b50919050565b600080546001600160a01b038381166001600160a01b0319831681178455604051919092169283917f8be0079c531659141344cd1fd0a4f28419497f9722a3daafe3b4186f6b6457e09190a35050565b6000610d8e8284611096565b9392505050565b600060208284031215610da757600080fd5b5035919050565b634e487b7160e01b600052602160045260246000fd5b60048110610de257634e487b7160e01b600052602160045260246000fd5b9052565b6001600160a01b038616815260208101859052604081018490526060810183905260a08101610e186080830184610dc4565b9695505050505050565b80356001600160a01b0381168114610e3957600080fd5b919050565b600060208284031215610e5057600080fd5b610d8e82610e22565b6020810161036c8284610dc4565b60008060408385031215610e7a57600080fd5b610e8383610e22565b946020939093013593505050565b6000815180845260005b81811015610eb757602081850181015186830182015201610e9b565b81811115610ec9576000602083870101525b50601f01601f19169290920160200192915050565b85815260a060208201526000610ef760a0830187610e91565b8281036040840152610f098187610e91565b90508281036060840152610f1d8186610e91565b91505060018060a01b03831660808301529695505050505050565b60008060408385031215610f4b57600080fd5b82359150602083013560048110610f6157600080fd5b809150509250929050565b60006020808301818452808551808352604092508286019150828160051b87010184880160005b8381101561101e57603f19898403018552815160a08151855288820151818a870152610fc182870182610e91565b9150508782015185820389870152610fd98282610e91565b91505060608083015186830382880152610ff38382610e91565b6080948501516001600160a01b03169790940196909652505094870194925090860190600101610f93565b509098975050505050505050565b6020808252818101527f4f776e61626c653a2063616c6c6572206973206e6f7420746865206f776e6572604082015260600190565b600181811c9082168061107557607f821691505b60208210811415610d2c57634e487b7160e01b600052602260045260246000fd5b600082198211156110b757634e487b7160e01b600052601160045260246000fd5b50019056fea26469706673582212201960ac8253f6141153ef2eec74392db44cf085396275e879c9cf7c61322d192764736f6c634300080b0033",
  "immutableReferences": {},
  "source": "// SPDX-License-Identifier: MIT\npragma solidity ^0.8.0;\nimport \"@openzeppelin/contracts/access/Ownable.sol\";\nimport \"@openzeppelin/contracts/utils/math/SafeMath.sol\";\nimport \"@openzeppelin/contracts/utils/Counters.sol\";\nimport \"./MilkDeliveryInterface.sol\";\n\n/**\n  * @title Milk Delivery Contract\n  * @dev A smart contract that enables dairy farmers to record their daily produce\n */\ncontract MilkDelivery is Ownable, MilkDeliveryInterface {\n  using SafeMath for uint256;\n  using Counters for Counters.Counter;\n\n  Counters.Counter private milkDeliveryIds; //to help track milk delivery items by ID e.g 1\n  Counters.Counter private vendorIds; //to help track vendors by ID e.g 1\n\n  enum MILK_QUALITY_TYPE { GOOD, STALE, PERFECT, BAD } //quality types\n  MILK_QUALITY_TYPE public milkQualityType; //in order to access the enum via a variable\n\n  //Vendor struct with vendor particulars/details\n  struct Vendor{\n    uint id;\n    string milkFactory;\n    string name;\n    string email;\n    address vendorAddress;\n  }\n\n  //Delivery struct with delivery item particulars\n  struct MilkDeliveryItem{\n    address payable vendor;\n    uint id;\n    uint date;\n    uint quantity;\n    MILK_QUALITY_TYPE milkQualityType;\n  }\n\n  uint totalVendors = 0; //total vendors initialised to 0\n  uint public totalQuantities = 0; //keeps track of total milk quantity recorded on-chain\n  uint public totalDeliveries = 0; //to handle incrementing of overral milk quantities\n\n  Vendor[] public vendors; //an array of the vendors\n  MilkDeliveryItem[] public milkDeliveries; //to help keep track of delivery items as an array\n  address[] public approvedVendors; //the addresses of the approved vendors\n  \n  mapping(address => bool) public isApprovedForMilkVending; //a boolean indicating whether a vendor has been approved\n  mapping(address => MilkDeliveryItem) public deliveryItemByVendor; //get the delivery item by vendor identified by an address\n  mapping(address => uint) public vendorQuantity; //vendor quantity of milk delivered\n  mapping(address => mapping(uint => uint)) vendorQuantityByDate; //keeps track of the total quantity of the vendor by date [address][date][quantity]\n\n  event NewMilkDeliveryRecorded(address indexed vendor, uint indexed quantity, MILK_QUALITY_TYPE indexed quality, uint date);\n  error BadRecord();\n\n  constructor() public {\n  }\n\n  modifier isApprovedForVending(address _vendor){\n    require(isApprovedForMilkVending[_vendor] == true,\"Vendor Not Approved\");\n    _;\n  }\n\n  modifier isNotApprovedForVending(address _vendor){\n    require(isApprovedForMilkVending[_vendor] == false,\"Vendor Approved\");\n    _;\n  }\n\n  /**\n    * @dev approves a vendor for milk delivery, only performed by the contract owner\n    * @param _vendor address\n   */\n\n   function approveVendor(address _vendor) public onlyOwner isNotApprovedForVending(_vendor) returns(bool){\n      require(_vendor != address(0),\"Invalid Address\");\n      isApprovedForMilkVending[_vendor] = true;\n      approvedVendors.push(_vendor);\n      return true;\n   }\n\n  /**\n   * @dev returns the total quantity of milk recorded by a vendor on a specific date\n   * @param _vendor address\n   * @param _date uint\n   */\n  function getVendorQuantityByDate(address _vendor, uint _date) public view returns(uint){\n    require(_vendor != address(0)); //Not an empty address\n    return vendorQuantityByDate[_vendor][_date];\n  }\n\n  /**\n    * @dev record a new milk delivery\n    * @param _quantity uint\n    * @param _qualityType enum\n   */\n  function recordNewDelivery(uint _quantity, MILK_QUALITY_TYPE _qualityType) public isApprovedForVending(msg.sender) returns(bool){\n    require( _quantity != 0,\"New Milk Delivery Item: => Zero Quantity Not Accepted\");\n    milkDeliveryIds.increment();\n    uint currentDeliveryId = milkDeliveryIds.current();\n    MilkDeliveryItem memory newMilkDeliveryItem = MilkDeliveryItem(payable(msg.sender),currentDeliveryId, block.timestamp,_quantity,_qualityType);\n    milkDeliveries.push(newMilkDeliveryItem);\n    deliveryItemByVendor[msg.sender] = newMilkDeliveryItem;\n    vendorQuantityByDate[msg.sender][block.timestamp] = _quantity;\n    totalDeliveries = totalDeliveries.add(1);\n    totalQuantities = totalQuantities.add(_quantity);\n    emit NewMilkDeliveryRecorded(msg.sender,_quantity,_qualityType, block.timestamp);\n    return true;\n  }\n\n  /**\n    * @dev gets the total quantity of milk by all vendors recorded on-chain\n   */\n  function totalQuantity() external virtual view returns(uint){\n    return totalQuantities;\n  }\n\n  /**\n    * @dev returns an array of all the vendors\n   */\n  function vendorList() public view returns(Vendor[] memory){\n    return vendors;\n  }\n}\n",
  "sourcePath": "D:/Dickens/Programming/Blockchain/Projects/Research Projects/MMUST/Dairy Farmers Milk Delivery/contracts/MilkDelivery.sol",
  "compiler": {
    "name": "solc",
    "version": "0.8.11+commit.d7f03943.Emscripten.clang"
  },
  "schemaVersion": "3.4.1",
  "updatedAt": "2021-12-30T18:24:43.453Z",
  "devdoc": {
    "details": "A smart contract that enables dairy farmers to record their daily produce",
    "kind": "dev",
    "methods": {
      "approveVendor(address)": {
        "details": "approves a vendor for milk delivery, only performed by the contract owner",
        "params": {
          "_vendor": "address"
        }
      },
      "getVendorQuantityByDate(address,uint256)": {
        "details": "returns the total quantity of milk recorded by a vendor on a specific date",
        "params": {
          "_date": "uint",
          "_vendor": "address"
        }
      },
      "owner()": {
        "details": "Returns the address of the current owner."
      },
      "recordNewDelivery(uint256,uint8)": {
        "details": "record a new milk delivery",
        "params": {
          "_qualityType": "enum",
          "_quantity": "uint"
        }
      },
      "renounceOwnership()": {
        "details": "Leaves the contract without owner. It will not be possible to call `onlyOwner` functions anymore. Can only be called by the current owner. NOTE: Renouncing ownership will leave the contract without an owner, thereby removing any functionality that is only available to the owner."
      },
      "totalQuantity()": {
        "details": "gets the total quantity of milk by all vendors recorded on-chain"
      },
      "transferOwnership(address)": {
        "details": "Transfers ownership of the contract to a new account (`newOwner`). Can only be called by the current owner."
      },
      "vendorList()": {
        "details": "returns an array of all the vendors"
      }
    },
    "title": "Milk Delivery Contract",
    "version": 1
  },
  "userdoc": {
    "kind": "user",
    "methods": {},
    "version": 1
  }
}