{
  "contractName": "MilkDelivery",
  "abi": [
    {
      "inputs": [],
      "stateMutability": "nonpayable",
      "type": "constructor"
    },
    {
      "inputs": [],
      "name": "BadRecord",
      "type": "error"
    },
    {
      "anonymous": false,
      "inputs": [
        {
          "indexed": true,
          "internalType": "address",
          "name": "vendor",
          "type": "address"
        },
        {
          "indexed": true,
          "internalType": "address",
          "name": "caller",
          "type": "address"
        },
        {
          "indexed": false,
          "internalType": "uint256",
          "name": "date",
          "type": "uint256"
        }
      ],
      "name": "MilkVendorDelisted",
      "type": "event"
    },
    {
      "anonymous": false,
      "inputs": [
        {
          "indexed": true,
          "internalType": "address",
          "name": "vendor",
          "type": "address"
        },
        {
          "indexed": true,
          "internalType": "address",
          "name": "caller",
          "type": "address"
        },
        {
          "indexed": false,
          "internalType": "uint256",
          "name": "date",
          "type": "uint256"
        },
        {
          "indexed": true,
          "internalType": "address[]",
          "name": "approvedVendors",
          "type": "address[]"
        }
      ],
      "name": "MilkVendorDisapproved",
      "type": "event"
    },
    {
      "anonymous": false,
      "inputs": [
        {
          "indexed": true,
          "internalType": "address",
          "name": "vendor",
          "type": "address"
        },
        {
          "indexed": true,
          "internalType": "uint256",
          "name": "quantity",
          "type": "uint256"
        },
        {
          "indexed": true,
          "internalType": "enum MilkDelivery.MILK_QUALITY_TYPE",
          "name": "quality",
          "type": "uint8"
        },
        {
          "indexed": false,
          "internalType": "uint256",
          "name": "date",
          "type": "uint256"
        }
      ],
      "name": "NewMilkDeliveryRecorded",
      "type": "event"
    },
    {
      "anonymous": false,
      "inputs": [
        {
          "indexed": true,
          "internalType": "address",
          "name": "vendor",
          "type": "address"
        },
        {
          "indexed": true,
          "internalType": "address",
          "name": "addedBy",
          "type": "address"
        },
        {
          "indexed": true,
          "internalType": "uint256",
          "name": "date",
          "type": "uint256"
        }
      ],
      "name": "NewMilkVendorAdded",
      "type": "event"
    },
    {
      "anonymous": false,
      "inputs": [
        {
          "indexed": true,
          "internalType": "address",
          "name": "previousOwner",
          "type": "address"
        },
        {
          "indexed": true,
          "internalType": "address",
          "name": "newOwner",
          "type": "address"
        }
      ],
      "name": "OwnershipTransferred",
      "type": "event"
    },
    {
      "anonymous": false,
      "inputs": [
        {
          "indexed": true,
          "internalType": "bytes32",
          "name": "role",
          "type": "bytes32"
        },
        {
          "indexed": true,
          "internalType": "bytes32",
          "name": "previousAdminRole",
          "type": "bytes32"
        },
        {
          "indexed": true,
          "internalType": "bytes32",
          "name": "newAdminRole",
          "type": "bytes32"
        }
      ],
      "name": "RoleAdminChanged",
      "type": "event"
    },
    {
      "anonymous": false,
      "inputs": [
        {
          "indexed": true,
          "internalType": "bytes32",
          "name": "role",
          "type": "bytes32"
        },
        {
          "indexed": true,
          "internalType": "address",
          "name": "account",
          "type": "address"
        },
        {
          "indexed": true,
          "internalType": "address",
          "name": "sender",
          "type": "address"
        }
      ],
      "name": "RoleGranted",
      "type": "event"
    },
    {
      "anonymous": false,
      "inputs": [
        {
          "indexed": true,
          "internalType": "bytes32",
          "name": "role",
          "type": "bytes32"
        },
        {
          "indexed": true,
          "internalType": "address",
          "name": "account",
          "type": "address"
        },
        {
          "indexed": true,
          "internalType": "address",
          "name": "sender",
          "type": "address"
        }
      ],
      "name": "RoleRevoked",
      "type": "event"
    },
    {
      "inputs": [],
      "name": "DEFAULT_ADMIN_ROLE",
      "outputs": [
        {
          "internalType": "bytes32",
          "name": "",
          "type": "bytes32"
        }
      ],
      "stateMutability": "view",
      "type": "function"
    },
    {
      "inputs": [
        {
          "internalType": "uint256",
          "name": "",
          "type": "uint256"
        }
      ],
      "name": "approvedVendors",
      "outputs": [
        {
          "internalType": "address",
          "name": "",
          "type": "address"
        }
      ],
      "stateMutability": "view",
      "type": "function"
    },
    {
      "inputs": [
        {
          "internalType": "address",
          "name": "",
          "type": "address"
        }
      ],
      "name": "deliveryItemByVendor",
      "outputs": [
        {
          "internalType": "address payable",
          "name": "vendor",
          "type": "address"
        },
        {
          "internalType": "uint256",
          "name": "id",
          "type": "uint256"
        },
        {
          "internalType": "uint256",
          "name": "date",
          "type": "uint256"
        },
        {
          "internalType": "uint256",
          "name": "quantity",
          "type": "uint256"
        },
        {
          "internalType": "enum MilkDelivery.MILK_QUALITY_TYPE",
          "name": "milkQualityType",
          "type": "uint8"
        }
      ],
      "stateMutability": "view",
      "type": "function"
    },
    {
      "inputs": [
        {
          "internalType": "bytes32",
          "name": "role",
          "type": "bytes32"
        }
      ],
      "name": "getRoleAdmin",
      "outputs": [
        {
          "internalType": "bytes32",
          "name": "",
          "type": "bytes32"
        }
      ],
      "stateMutability": "view",
      "type": "function"
    },
    {
      "inputs": [
        {
          "internalType": "bytes32",
          "name": "role",
          "type": "bytes32"
        },
        {
          "internalType": "address",
          "name": "account",
          "type": "address"
        }
      ],
      "name": "grantRole",
      "outputs": [],
      "stateMutability": "nonpayable",
      "type": "function"
    },
    {
      "inputs": [
        {
          "internalType": "bytes32",
          "name": "role",
          "type": "bytes32"
        },
        {
          "internalType": "address",
          "name": "account",
          "type": "address"
        }
      ],
      "name": "hasRole",
      "outputs": [
        {
          "internalType": "bool",
          "name": "",
          "type": "bool"
        }
      ],
      "stateMutability": "view",
      "type": "function"
    },
    {
      "inputs": [
        {
          "internalType": "address",
          "name": "",
          "type": "address"
        }
      ],
      "name": "isApprovedForMilkVending",
      "outputs": [
        {
          "internalType": "bool",
          "name": "",
          "type": "bool"
        }
      ],
      "stateMutability": "view",
      "type": "function"
    },
    {
      "inputs": [
        {
          "internalType": "address",
          "name": "",
          "type": "address"
        }
      ],
      "name": "isVendorListed",
      "outputs": [
        {
          "internalType": "bool",
          "name": "",
          "type": "bool"
        }
      ],
      "stateMutability": "view",
      "type": "function"
    },
    {
      "inputs": [
        {
          "internalType": "uint256",
          "name": "",
          "type": "uint256"
        }
      ],
      "name": "milkDeliveries",
      "outputs": [
        {
          "internalType": "address payable",
          "name": "vendor",
          "type": "address"
        },
        {
          "internalType": "uint256",
          "name": "id",
          "type": "uint256"
        },
        {
          "internalType": "uint256",
          "name": "date",
          "type": "uint256"
        },
        {
          "internalType": "uint256",
          "name": "quantity",
          "type": "uint256"
        },
        {
          "internalType": "enum MilkDelivery.MILK_QUALITY_TYPE",
          "name": "milkQualityType",
          "type": "uint8"
        }
      ],
      "stateMutability": "view",
      "type": "function"
    },
    {
      "inputs": [],
      "name": "milkQualityType",
      "outputs": [
        {
          "internalType": "enum MilkDelivery.MILK_QUALITY_TYPE",
          "name": "",
          "type": "uint8"
        }
      ],
      "stateMutability": "view",
      "type": "function"
    },
    {
      "inputs": [],
      "name": "owner",
      "outputs": [
        {
          "internalType": "address",
          "name": "",
          "type": "address"
        }
      ],
      "stateMutability": "view",
      "type": "function"
    },
    {
      "inputs": [],
      "name": "renounceOwnership",
      "outputs": [],
      "stateMutability": "nonpayable",
      "type": "function"
    },
    {
      "inputs": [
        {
          "internalType": "bytes32",
          "name": "role",
          "type": "bytes32"
        },
        {
          "internalType": "address",
          "name": "account",
          "type": "address"
        }
      ],
      "name": "renounceRole",
      "outputs": [],
      "stateMutability": "nonpayable",
      "type": "function"
    },
    {
      "inputs": [
        {
          "internalType": "bytes32",
          "name": "role",
          "type": "bytes32"
        },
        {
          "internalType": "address",
          "name": "account",
          "type": "address"
        }
      ],
      "name": "revokeRole",
      "outputs": [],
      "stateMutability": "nonpayable",
      "type": "function"
    },
    {
      "inputs": [
        {
          "internalType": "bytes4",
          "name": "interfaceId",
          "type": "bytes4"
        }
      ],
      "name": "supportsInterface",
      "outputs": [
        {
          "internalType": "bool",
          "name": "",
          "type": "bool"
        }
      ],
      "stateMutability": "view",
      "type": "function"
    },
    {
      "inputs": [],
      "name": "totalApprovedVendors",
      "outputs": [
        {
          "internalType": "uint256",
          "name": "",
          "type": "uint256"
        }
      ],
      "stateMutability": "view",
      "type": "function"
    },
    {
      "inputs": [],
      "name": "totalDeliveries",
      "outputs": [
        {
          "internalType": "uint256",
          "name": "",
          "type": "uint256"
        }
      ],
      "stateMutability": "view",
      "type": "function"
    },
    {
      "inputs": [],
      "name": "totalQuantities",
      "outputs": [
        {
          "internalType": "uint256",
          "name": "",
          "type": "uint256"
        }
      ],
      "stateMutability": "view",
      "type": "function"
    },
    {
      "inputs": [],
      "name": "totalVendors",
      "outputs": [
        {
          "internalType": "uint256",
          "name": "",
          "type": "uint256"
        }
      ],
      "stateMutability": "view",
      "type": "function"
    },
    {
      "inputs": [
        {
          "internalType": "address",
          "name": "newOwner",
          "type": "address"
        }
      ],
      "name": "transferOwnership",
      "outputs": [],
      "stateMutability": "nonpayable",
      "type": "function"
    },
    {
      "inputs": [
        {
          "internalType": "address",
          "name": "",
          "type": "address"
        },
        {
          "internalType": "uint256",
          "name": "",
          "type": "uint256"
        }
      ],
      "name": "vendorQuantityByDate",
      "outputs": [
        {
          "internalType": "uint256",
          "name": "",
          "type": "uint256"
        }
      ],
      "stateMutability": "view",
      "type": "function"
    },
    {
      "inputs": [
        {
          "internalType": "uint256",
          "name": "",
          "type": "uint256"
        }
      ],
      "name": "vendors",
      "outputs": [
        {
          "internalType": "uint256",
          "name": "id",
          "type": "uint256"
        },
        {
          "internalType": "string",
          "name": "milkFactory",
          "type": "string"
        },
        {
          "internalType": "string",
          "name": "name",
          "type": "string"
        },
        {
          "internalType": "string",
          "name": "email",
          "type": "string"
        },
        {
          "internalType": "address payable",
          "name": "vendorAddress",
          "type": "address"
        },
        {
          "internalType": "uint256",
          "name": "createdAt",
          "type": "uint256"
        }
      ],
      "stateMutability": "view",
      "type": "function"
    },
    {
      "inputs": [
        {
          "internalType": "address",
          "name": "",
          "type": "address"
        }
      ],
      "name": "vendorsByUser",
      "outputs": [
        {
          "internalType": "uint256",
          "name": "id",
          "type": "uint256"
        },
        {
          "internalType": "string",
          "name": "milkFactory",
          "type": "string"
        },
        {
          "internalType": "string",
          "name": "name",
          "type": "string"
        },
        {
          "internalType": "string",
          "name": "email",
          "type": "string"
        },
        {
          "internalType": "address payable",
          "name": "vendorAddress",
          "type": "address"
        },
        {
          "internalType": "uint256",
          "name": "createdAt",
          "type": "uint256"
        }
      ],
      "stateMutability": "view",
      "type": "function"
    },
    {
      "inputs": [
        {
          "internalType": "address",
          "name": "_vendor",
          "type": "address"
        }
      ],
      "name": "approveVendor",
      "outputs": [
        {
          "internalType": "bool",
          "name": "",
          "type": "bool"
        }
      ],
      "stateMutability": "nonpayable",
      "type": "function"
    },
    {
      "inputs": [
        {
          "internalType": "address",
          "name": "_newVendor",
          "type": "address"
        },
        {
          "internalType": "string",
          "name": "_milkFactory",
          "type": "string"
        },
        {
          "internalType": "string",
          "name": "_name",
          "type": "string"
        },
        {
          "internalType": "string",
          "name": "_email",
          "type": "string"
        }
      ],
      "name": "listNewVendor",
      "outputs": [
        {
          "internalType": "bool",
          "name": "",
          "type": "bool"
        }
      ],
      "stateMutability": "nonpayable",
      "type": "function"
    },
    {
      "inputs": [
        {
          "internalType": "address",
          "name": "_vendor",
          "type": "address"
        },
        {
          "internalType": "uint256",
          "name": "_date",
          "type": "uint256"
        }
      ],
      "name": "getVendorQuantityByDate",
      "outputs": [
        {
          "internalType": "uint256",
          "name": "",
          "type": "uint256"
        }
      ],
      "stateMutability": "view",
      "type": "function"
    },
    {
      "inputs": [
        {
          "internalType": "uint256",
          "name": "_quantity",
          "type": "uint256"
        },
        {
          "internalType": "enum MilkDelivery.MILK_QUALITY_TYPE",
          "name": "_qualityType",
          "type": "uint8"
        }
      ],
      "name": "recordNewDelivery",
      "outputs": [
        {
          "internalType": "bool",
          "name": "",
          "type": "bool"
        }
      ],
      "stateMutability": "nonpayable",
      "type": "function"
    },
    {
      "inputs": [
        {
          "internalType": "address",
          "name": "_vendor",
          "type": "address"
        }
      ],
      "name": "delistVendor",
      "outputs": [
        {
          "internalType": "bool",
          "name": "",
          "type": "bool"
        }
      ],
      "stateMutability": "nonpayable",
      "type": "function"
    },
    {
      "inputs": [
        {
          "internalType": "address",
          "name": "_vendor",
          "type": "address"
        }
      ],
      "name": "revokeVendorApproval",
      "outputs": [
        {
          "internalType": "bool",
          "name": "",
          "type": "bool"
        }
      ],
      "stateMutability": "nonpayable",
      "type": "function"
    },
    {
      "inputs": [],
      "name": "totalQuantity",
      "outputs": [
        {
          "internalType": "uint256",
          "name": "",
          "type": "uint256"
        }
      ],
      "stateMutability": "view",
      "type": "function"
    },
    {
      "inputs": [],
      "name": "vendorList",
      "outputs": [
        {
          "components": [
            {
              "internalType": "uint256",
              "name": "id",
              "type": "uint256"
            },
            {
              "internalType": "string",
              "name": "milkFactory",
              "type": "string"
            },
            {
              "internalType": "string",
              "name": "name",
              "type": "string"
            },
            {
              "internalType": "string",
              "name": "email",
              "type": "string"
            },
            {
              "internalType": "address payable",
              "name": "vendorAddress",
              "type": "address"
            },
            {
              "internalType": "uint256",
              "name": "createdAt",
              "type": "uint256"
            }
          ],
          "internalType": "struct MilkDelivery.Vendor[]",
          "name": "",
          "type": "tuple[]"
        }
      ],
      "stateMutability": "view",
      "type": "function"
    }
  ],
  "bytecode": "0x6080604052600060055560006006556000600755600060085534801561002457600080fd5b5061002e33610033565b610083565b600080546001600160a01b038381166001600160a01b0319831681178455604051919092169283917f8be0079c531659141344cd1fd0a4f28419497f9722a3daafe3b4186f6b6457e09190a35050565b612304806100926000396000f3fe608060405234801561001057600080fd5b50600436106101e55760003560e01c806391d148541161010f578063d15d79ae116100a2578063e128e23411610071578063e128e2341461049d578063ef4c7970146104a6578063f2fde38b146104af578063f8a52923146104c257600080fd5b8063d15d79ae14610418578063d547741f1461042b578063ddc00f3b1461043e578063df627c2a1461045357600080fd5b8063a420623b116100de578063a420623b146103af578063c616f412146103d2578063c824e088146103da578063cea676e41461040557600080fd5b806391d148541461037857806398faad551461038b578063a08d986d14610394578063a217fddf146103a757600080fd5b806354f97a6111610187578063715018a611610156578063715018a614610311578063868947c91461031957806386f22dbd146103445780638da5cb5b1461036757600080fd5b806354f97a61146102be5780636c1c13a8146102d15780636ea8b002146102eb5780637129bbb7146102fe57600080fd5b80632f2ff15d116101c35780632f2ff15d1461024d57806336568abe146102625780633df0acc9146102755780634ca5d1421461029a57600080fd5b806301ffc9a7146101ea5780630c59d63914610212578063248a9ca314610229575b600080fd5b6101fd6101f8366004611c66565b6104d5565b60405190151581526020015b60405180910390f35b61021b60075481565b604051908152602001610209565b61021b610237366004611c90565b6000908152600160208190526040909120015490565b61026061025b366004611cc5565b61050c565b005b610260610270366004611cc5565b610538565b610288610283366004611cf1565b6105bb565b60405161020996959493929190611d68565b6102ad6102a8366004611c90565b610792565b604051610209959493929190611dfe565b6101fd6102cc366004611cf1565b6107e0565b6004546102de9060ff1681565b6040516102099190611e3a565b6101fd6102f9366004611cf1565b610a34565b61021b61030c366004611e48565b610b52565b610260610b90565b61032c610327366004611c90565b610bc6565b6040516001600160a01b039091168152602001610209565b6101fd610352366004611cf1565b600c6020526000908152604090205460ff1681565b6000546001600160a01b031661032c565b6101fd610386366004611cc5565b610bf0565b61021b60055481565b6102886103a2366004611c90565b610c1b565b61021b600081565b6101fd6103bd366004611cf1565b60106020526000908152604090205460ff1681565b60065461021b565b61021b6103e8366004611e48565b600e60209081526000928352604080842090915290825290205481565b6101fd610413366004611e72565b610c50565b6101fd610426366004611f49565b61105f565b610260610439366004611cc5565b61145c565b610446611483565b6040516102099190611fe2565b6102ad610461366004611cf1565b600d60205260009081526040902080546001820154600283015460038401546004909401546001600160a01b0390931693919290919060ff1685565b61021b60065481565b61021b60085481565b6102606104bd366004611cf1565b6116c5565b6101fd6104d0366004611cf1565b611760565b60006001600160e01b03198216637965db0b60e01b148061050657506301ffc9a760e01b6001600160e01b03198316145b92915050565b60008281526001602081905260409091200154610529813361188c565b61053383836118f0565b505050565b6001600160a01b03811633146105ad5760405162461bcd60e51b815260206004820152602f60248201527f416363657373436f6e74726f6c3a2063616e206f6e6c792072656e6f756e636560448201526e103937b632b9903337b91039b2b63360891b60648201526084015b60405180910390fd5b6105b7828261195b565b5050565b600f60205260009081526040902080546001820180549192916105dd906120ab565b80601f0160208091040260200160405190810160405280929190818152602001828054610609906120ab565b80156106565780601f1061062b57610100808354040283529160200191610656565b820191906000526020600020905b81548152906001019060200180831161063957829003601f168201915b50505050509080600201805461066b906120ab565b80601f0160208091040260200160405190810160405280929190818152602001828054610697906120ab565b80156106e45780601f106106b9576101008083540402835291602001916106e4565b820191906000526020600020905b8154815290600101906020018083116106c757829003601f168201915b5050505050908060030180546106f9906120ab565b80601f0160208091040260200160405190810160405280929190818152602001828054610725906120ab565b80156107725780601f1061074757610100808354040283529160200191610772565b820191906000526020600020905b81548152906001019060200180831161075557829003601f168201915b50505050600483015460059093015491926001600160a01b031691905086565b600a81815481106107a257600080fd5b6000918252602090912060059091020180546001820154600283015460038401546004909401546001600160a01b0390931694509092909160ff1685565b600080546001600160a01b0316331461080b5760405162461bcd60e51b81526004016105a4906120e0565b816001600160a01b0381166108325760405162461bcd60e51b81526004016105a490612115565b6001600160a01b0381166000908152600c602052604090205460ff1615156001146108955760405162461bcd60e51b815260206004820152601360248201527215995b991bdc88139bdd08105c1c1c9bdd9959606a1b60448201526064016105a4565b6001600160a01b0383166000908152600c60205260408120805460ff191690555b600b546108c590600190612154565b81101561098e57836001600160a01b0316600b82815481106108e9576108e961216b565b6000918252602090912001546001600160a01b0316141561097c57600b610911826001612181565b815481106109215761092161216b565b600091825260209091200154600b80546001600160a01b03909216918390811061094d5761094d61216b565b9060005260206000200160006101000a8154816001600160a01b0302191690836001600160a01b031602179055505b8061098681612199565b9150506108b6565b50600b8054806109a0576109a06121b4565b600082815260209020810160001990810180546001600160a01b03191690550190556008546109d09060016119c2565b6008556040516109e290600b906121ca565b6040519081900381204282529033906001600160a01b038616907f21e24f3c25e01de95a4174787866c5768493960f654fcb459ed40c3b876b39739060200160405180910390a4600191505b50919050565b600080546001600160a01b03163314610a5f5760405162461bcd60e51b81526004016105a4906120e0565b816001600160a01b038116610a865760405162461bcd60e51b81526004016105a490612115565b6001600160a01b03811660009081526010602052604090205460ff161515600114610aec5760405162461bcd60e51b8152602060048201526016602482015275135a5b1ac815995b991bdc881b9bdd081b1a5cdd195960521b60448201526064016105a4565b6001600160a01b03831660008181526010602052604090819020805460ff19169055513391907fc1519c40dfbaa692a1c12680413675b407827248b9252fa6cd30611669cf8abf90610b419042815260200190565b60405180910390a350600192915050565b60006001600160a01b038316610b6757600080fd5b506001600160a01b03919091166000908152600e60209081526040808320938352929052205490565b6000546001600160a01b03163314610bba5760405162461bcd60e51b81526004016105a4906120e0565b610bc460006119d5565b565b600b8181548110610bd657600080fd5b6000918252602090912001546001600160a01b0316905081565b60009182526001602090815260408084206001600160a01b0393909316845291905290205460ff1690565b60098181548110610c2b57600080fd5b600091825260209091206006909102018054600182018054919350906105dd906120ab565b60003380610c705760405162461bcd60e51b81526004016105a490612115565b6001600160a01b03811660009081526010602052604090205460ff161515600114610cd65760405162461bcd60e51b8152602060048201526016602482015275135a5b1ac815995b991bdc881b9bdd081b1a5cdd195960521b60448201526064016105a4565b3380610cf45760405162461bcd60e51b81526004016105a490612115565b6001600160a01b0381166000908152600c602052604090205460ff161515600114610d575760405162461bcd60e51b815260206004820152601360248201527215995b991bdc88139bdd08105c1c1c9bdd9959606a1b60448201526064016105a4565b84610dc25760405162461bcd60e51b815260206004820152603560248201527f4e6577204d696c6b2044656c6976657279204974656d3a203d3e205a65726f20604482015274145d585b9d1a5d1e48139bdd081058d8d95c1d1959605a1b60648201526084016105a4565b610dd0600280546001019055565b6000610ddb60025490565b905060006040518060a00160405280336001600160a01b03168152602001838152602001428152602001888152602001876003811115610e1d57610e1d611dc6565b9052600a80546001808201835560009290925282517fc65a7bb8d6351c1cf70c95a316cc6a92839c986682d98bc35f958f4883f9d2a8600590920291820180546001600160a01b0319166001600160a01b0390921691909117815560208401517fc65a7bb8d6351c1cf70c95a316cc6a92839c986682d98bc35f958f4883f9d2a983015560408401517fc65a7bb8d6351c1cf70c95a316cc6a92839c986682d98bc35f958f4883f9d2aa83015560608401517fc65a7bb8d6351c1cf70c95a316cc6a92839c986682d98bc35f958f4883f9d2ab83015560808401517fc65a7bb8d6351c1cf70c95a316cc6a92839c986682d98bc35f958f4883f9d2ac909201805494955085949193909160ff191690836003811115610f3e57610f3e611dc6565b021790555050336000908152600d6020908152604091829020845181546001600160a01b0319166001600160a01b03909116178155908401516001808301919091559184015160028201556060840151600380830191909155608085015160048301805487965093949193909260ff1990911691908490811115610fc457610fc4611dc6565b021790555050336000908152600e60209081526040808320428452909152902088905550600754610ff6906001611a25565b6007556006546110069088611a25565b60065585600381111561101b5761101b611dc6565b604051428152889033907f85f3f3a7f3ef4c556d64244b4b4b8bd8a4d3977d27b6f270cafe93466f8001649060200160405180910390a45060019695505050505050565b600080546001600160a01b0316331461108a5760405162461bcd60e51b81526004016105a4906120e0565b846001600160a01b0381166110b15760405162461bcd60e51b81526004016105a490612115565b6001600160a01b03811660009081526010602052604090205460ff16156111125760405162461bcd60e51b8152602060048201526015602482015274135a5b1ac815995b991bdc881a5cc81b1a5cdd1959605a1b60448201526064016105a4565b60008551116111635760405162461bcd60e51b815260206004820152601f60248201527f4e6577204d696c6b2056656e646f72203d3e204e756c6c20466163746f72790060448201526064016105a4565b60008451116111c05760405162461bcd60e51b815260206004820152602360248201527f4e6577204d696c6b2056656e646f72203d3e204e756c6c2056656e646f72204e604482015262616d6560e81b60648201526084016105a4565b600083511161121d5760405162461bcd60e51b8152602060048201526024808201527f4e6577204d696c6b2056656e646f72203d3e204e756c6c2056656e646f7220456044820152631b585a5b60e21b60648201526084016105a4565b61122b600380546001019055565b600061123660035490565b6040805160c08101825282815260208082018a8152928201899052606082018890526001600160a01b038b1660808301524260a083015260098054600181018255600091909152825160069091027f6e1540171b6c0c960b71a7020d9f60077f6af931a8bbf590da0223dacf75c7af8101918255935180519596509294859491936112e7937f6e1540171b6c0c960b71a7020d9f60077f6af931a8bbf590da0223dacf75c7b0909301920190611bcd565b5060408201518051611303916002840191602090910190611bcd565b506060820151805161131f916003840191602090910190611bcd565b5060808201516004820180546001600160a01b0319166001600160a01b0390921691909117905560a090910151600590910155336000908152600f60209081526040909120825181558282015180518493611381926001850192910190611bcd565b506040820151805161139d916002840191602090910190611bcd565b50606082015180516113b9916003840191602090910190611bcd565b5060808201516004820180546001600160a01b0319166001600160a01b0392831617905560a0909201516005918201559089166000908152601060205260409020805460ff19166001908117909155905461141391611a25565b600555604051429033906001600160a01b038b16907ff2ec7d1becaa3243fd29d0fc48bde1dd19c594104b9ce00eb188b9797face12d90600090a4506001979650505050505050565b60008281526001602081905260409091200154611479813361188c565b610533838361195b565b60606009805480602002602001604051908101604052809291908181526020016000905b828210156116bc57838290600052602060002090600602016040518060c0016040529081600082015481526020016001820180546114e4906120ab565b80601f0160208091040260200160405190810160405280929190818152602001828054611510906120ab565b801561155d5780601f106115325761010080835404028352916020019161155d565b820191906000526020600020905b81548152906001019060200180831161154057829003601f168201915b50505050508152602001600282018054611576906120ab565b80601f01602080910402602001604051908101604052809291908181526020018280546115a2906120ab565b80156115ef5780601f106115c4576101008083540402835291602001916115ef565b820191906000526020600020905b8154815290600101906020018083116115d257829003601f168201915b50505050508152602001600382018054611608906120ab565b80601f0160208091040260200160405190810160405280929190818152602001828054611634906120ab565b80156116815780601f1061165657610100808354040283529160200191611681565b820191906000526020600020905b81548152906001019060200180831161166457829003601f168201915b505050918352505060048201546001600160a01b031660208083019190915260059092015460409091015290825260019290920191016114a7565b50505050905090565b6000546001600160a01b031633146116ef5760405162461bcd60e51b81526004016105a4906120e0565b6001600160a01b0381166117545760405162461bcd60e51b815260206004820152602660248201527f4f776e61626c653a206e6577206f776e657220697320746865207a65726f206160448201526564647265737360d01b60648201526084016105a4565b61175d816119d5565b50565b600080546001600160a01b0316331461178b5760405162461bcd60e51b81526004016105a4906120e0565b816001600160a01b0381166117b25760405162461bcd60e51b81526004016105a490612115565b6001600160a01b0381166000908152600c602052604090205460ff161561180d5760405162461bcd60e51b815260206004820152600f60248201526e15995b991bdc88105c1c1c9bdd9959608a1b60448201526064016105a4565b6001600160a01b0383166000818152600c60205260408120805460ff19166001908117909155600b8054808301825592527f0175b7a638427703f0dbe7bb9bbf987a2551717b34e79f33b5b1008d1fa01db990910180546001600160a01b03191690921790915560085461188091611a25565b60085550600192915050565b6118968282610bf0565b6105b7576118ae816001600160a01b03166014611a31565b6118b9836020611a31565b6040516020016118ca929190612210565b60408051601f198184030181529082905262461bcd60e51b82526105a491600401612285565b6118fa8282610bf0565b6105b75760008281526001602081815260408084206001600160a01b0386168086529252808420805460ff19169093179092559051339285917f2f8788117e7eff1d82e926ec794901d17c78024a50270940304540a733656f0d9190a45050565b6119658282610bf0565b156105b75760008281526001602090815260408083206001600160a01b0385168085529252808320805460ff1916905551339285917ff6391f5c32d9c69d2a47ea670b442974b53935d1edc7fd64eb21e047a839171b9190a45050565b60006119ce8284612154565b9392505050565b600080546001600160a01b038381166001600160a01b0319831681178455604051919092169283917f8be0079c531659141344cd1fd0a4f28419497f9722a3daafe3b4186f6b6457e09190a35050565b60006119ce8284612181565b60606000611a40836002612298565b611a4b906002612181565b67ffffffffffffffff811115611a6357611a63611ea6565b6040519080825280601f01601f191660200182016040528015611a8d576020820181803683370190505b509050600360fc1b81600081518110611aa857611aa861216b565b60200101906001600160f81b031916908160001a905350600f60fb1b81600181518110611ad757611ad761216b565b60200101906001600160f81b031916908160001a9053506000611afb846002612298565b611b06906001612181565b90505b6001811115611b7e576f181899199a1a9b1b9c1cb0b131b232b360811b85600f1660108110611b3a57611b3a61216b565b1a60f81b828281518110611b5057611b5061216b565b60200101906001600160f81b031916908160001a90535060049490941c93611b77816122b7565b9050611b09565b5083156119ce5760405162461bcd60e51b815260206004820181905260248201527f537472696e67733a20686578206c656e67746820696e73756666696369656e7460448201526064016105a4565b828054611bd9906120ab565b90600052602060002090601f016020900481019282611bfb5760008555611c41565b82601f10611c1457805160ff1916838001178555611c41565b82800160010185558215611c41579182015b82811115611c41578251825591602001919060010190611c26565b50611c4d929150611c51565b5090565b5b80821115611c4d5760008155600101611c52565b600060208284031215611c7857600080fd5b81356001600160e01b0319811681146119ce57600080fd5b600060208284031215611ca257600080fd5b5035919050565b80356001600160a01b0381168114611cc057600080fd5b919050565b60008060408385031215611cd857600080fd5b82359150611ce860208401611ca9565b90509250929050565b600060208284031215611d0357600080fd5b6119ce82611ca9565b60005b83811015611d27578181015183820152602001611d0f565b83811115611d36576000848401525b50505050565b60008151808452611d54816020860160208601611d0c565b601f01601f19169290920160200192915050565b86815260c060208201526000611d8160c0830188611d3c565b8281036040840152611d938188611d3c565b90508281036060840152611da78187611d3c565b6001600160a01b03959095166080840152505060a00152949350505050565b634e487b7160e01b600052602160045260246000fd5b60048110611dfa57634e487b7160e01b600052602160045260246000fd5b9052565b6001600160a01b038616815260208101859052604081018490526060810183905260a08101611e306080830184611ddc565b9695505050505050565b602081016105068284611ddc565b60008060408385031215611e5b57600080fd5b611e6483611ca9565b946020939093013593505050565b60008060408385031215611e8557600080fd5b82359150602083013560048110611e9b57600080fd5b809150509250929050565b634e487b7160e01b600052604160045260246000fd5b600082601f830112611ecd57600080fd5b813567ffffffffffffffff80821115611ee857611ee8611ea6565b604051601f8301601f19908116603f01168101908282118183101715611f1057611f10611ea6565b81604052838152866020858801011115611f2957600080fd5b836020870160208301376000602085830101528094505050505092915050565b60008060008060808587031215611f5f57600080fd5b611f6885611ca9565b9350602085013567ffffffffffffffff80821115611f8557600080fd5b611f9188838901611ebc565b94506040870135915080821115611fa757600080fd5b611fb388838901611ebc565b93506060870135915080821115611fc957600080fd5b50611fd687828801611ebc565b91505092959194509250565b60006020808301818452808551808352604092508286019150828160051b87010184880160005b8381101561209d57603f19898403018552815160c08151855288820151818a87015261203782870182611d3c565b915050878201518582038987015261204f8282611d3c565b915050606080830151868303828801526120698382611d3c565b6080858101516001600160a01b03169089015260a09485015194909701939093525050509386019390860190600101612009565b509098975050505050505050565b600181811c908216806120bf57607f821691505b60208210811415610a2e57634e487b7160e01b600052602260045260246000fd5b6020808252818101527f4f776e61626c653a2063616c6c6572206973206e6f7420746865206f776e6572604082015260600190565b6020808252600f908201526e496e76616c6964204164647265737360881b604082015260600190565b634e487b7160e01b600052601160045260246000fd5b6000828210156121665761216661213e565b500390565b634e487b7160e01b600052603260045260246000fd5b600082198211156121945761219461213e565b500190565b60006000198214156121ad576121ad61213e565b5060010190565b634e487b7160e01b600052603160045260246000fd5b60008183548391508460005260208060002060005b838110156122045781546001600160a01b0316855293820193600191820191016121df565b50929695505050505050565b7f416363657373436f6e74726f6c3a206163636f756e7420000000000000000000815260008351612248816017850160208801611d0c565b7001034b99036b4b9b9b4b733903937b6329607d1b6017918401918201528351612279816028840160208801611d0c565b01602801949350505050565b6020815260006119ce6020830184611d3c565b60008160001904831182151516156122b2576122b261213e565b500290565b6000816122c6576122c661213e565b50600019019056fea26469706673582212204e196fcfea91c71d13cc947b10729b96c2903d5e52255526bb5ff8d906dd599464736f6c634300080b0033",
  "immutableReferences": {},
  "source": "// SPDX-License-Identifier: MIT\npragma solidity ^0.8.0;\nimport \"@openzeppelin/contracts/access/Ownable.sol\";\nimport \"@openzeppelin/contracts/access/AccessControl.sol\";\nimport \"@openzeppelin/contracts/utils/math/SafeMath.sol\";\nimport \"@openzeppelin/contracts/utils/Counters.sol\";\nimport \"./interfaces/MilkDeliveryInterface.sol\";\n\n/**\n  * @title Milk Delivery Contract\n  * @dev A smart contract that enables dairy farmers to record their daily produce\n */\ncontract MilkDelivery is Ownable, AccessControl,MilkDeliveryInterface {\n  using SafeMath for uint256;\n  using Counters for Counters.Counter;\n\n  Counters.Counter private milkDeliveryIds; //to help track milk delivery items by ID e.g 1\n  Counters.Counter private vendorIds; //to help track vendors by ID e.g 1\n\n  enum MILK_QUALITY_TYPE { GOOD, STALE, PERFECT, BAD } //quality types\n  MILK_QUALITY_TYPE public milkQualityType; //in order to access the enum via a variable\n\n  //Vendor struct with vendor particulars/details\n  struct Vendor{\n    uint id;\n    string milkFactory;\n    string name;\n    string email;\n    address payable vendorAddress;\n    uint createdAt;\n  }\n\n  //Delivery struct with delivery item particulars\n  struct MilkDeliveryItem{\n    address payable vendor;\n    uint id;\n    uint date;\n    uint quantity;\n    MILK_QUALITY_TYPE milkQualityType;\n  }\n\n  uint public totalVendors = 0; //total vendors initialised to 0\n  uint public totalQuantities = 0; //keeps track of total milk quantity recorded on-chain\n  uint public totalDeliveries = 0; //to handle incrementing of overral milk quantities\n  uint public totalApprovedVendors = 0; // shall be incremented and decremented accordingly\n\n  Vendor[] public vendors; //an array of the vendors\n  MilkDeliveryItem[] public milkDeliveries; //to help keep track of delivery items as an array\n  address[] public approvedVendors; //the addresses of the approved vendors\n  \n  mapping(address => bool) public isApprovedForMilkVending; //a boolean indicating whether a vendor has been approved\n  mapping(address => MilkDeliveryItem) public deliveryItemByVendor; //get the delivery item by vendor identified by an address\n  mapping(address => mapping(uint => uint)) public vendorQuantityByDate; //keeps track of the total quantity of the vendor by date [address][date][quantity]\n  mapping(address => Vendor) public vendorsByUser; //who added thie vendor item\n  mapping(address => bool) public isVendorListed; //to show whether this address is listed as a vendor or not\n\n  event NewMilkDeliveryRecorded(address indexed vendor, uint indexed quantity, MILK_QUALITY_TYPE indexed quality, uint date);\n  event NewMilkVendorAdded(address indexed vendor, address indexed addedBy, uint indexed date);\n  event MilkVendorDisapproved(address indexed vendor, address indexed caller, uint date, address[] indexed approvedVendors);\n  event MilkVendorDelisted(address indexed vendor, address indexed caller, uint date);\n\n  error BadRecord();\n\n  constructor() public {\n  }\n\n  modifier isApprovedForVending(address _vendor){\n    require(_vendor != address(0),\"Invalid Address\");\n    require(isApprovedForMilkVending[_vendor] == true,\"Vendor Not Approved\");\n    _;\n  }\n\n  modifier isNotApprovedForVending(address _vendor){\n    require(_vendor != address(0),\"Invalid Address\");\n    require(isApprovedForMilkVending[_vendor] == false,\"Vendor Approved\");\n    _;\n  }\n\n  modifier isListedAsAvendor(address _vendor){\n    require(_vendor != address(0),\"Invalid Address\");\n    require(isVendorListed[_vendor] == true,\"Milk Vendor not listed\");\n    _;\n  }\n\n  modifier vendorNotListed(address _vendor){\n    require(_vendor != address(0),\"Invalid Address\");\n    require(isVendorListed[_vendor] == false,\"Milk Vendor is listed\");\n    _;\n  }\n\n  /**\n    * @dev approves a vendor for milk delivery, only performed by the contract owner\n    * @param _vendor address\n   */\n   function approveVendor(address _vendor) public onlyOwner isNotApprovedForVending(_vendor) returns(bool){\n      isApprovedForMilkVending[_vendor] = true;\n      approvedVendors.push(_vendor);\n      totalApprovedVendors = totalApprovedVendors.add(1);\n      return true;\n   }\n\n  /**\n    * @dev enables only the contract owner to add a new vendor\n    * @param _newVendor address \n    * @param _milkFactory string\n    * @param _name string\n    * @param _email string \n   */\n  function listNewVendor(address _newVendor, string memory _milkFactory, string memory _name, string memory _email) public \n  onlyOwner \n  vendorNotListed(_newVendor)\n  returns(bool)\n  {\n      require(bytes(_milkFactory).length > 0, \"New Milk Vendor => Null Factory\");\n      require(bytes(_name).length > 0, \"New Milk Vendor => Null Vendor Name\");\n      require(bytes(_email).length > 0, \"New Milk Vendor => Null Vendor Email\");\n\n      vendorIds.increment();\n      uint currentVendorId = vendorIds.current();\n      Vendor memory newMilkVendor = Vendor(currentVendorId,_milkFactory,_name,_email, payable(_newVendor), block.timestamp);\n      vendors.push(newMilkVendor);\n      vendorsByUser[msg.sender] = newMilkVendor;\n      isVendorListed[_newVendor] = true;\n      totalVendors = totalVendors.add(1);\n      emit NewMilkVendorAdded(_newVendor, msg.sender, block.timestamp);\n      return true;\n  }\n\n  /**\n   * @dev returns the total quantity of milk recorded by a vendor on a specific date\n   * @param _vendor address\n   * @param _date uint\n   */\n  function getVendorQuantityByDate(address _vendor, uint _date) public view returns(uint){\n    require(_vendor != address(0)); //Not an empty address\n    return vendorQuantityByDate[_vendor][_date];\n  }\n\n  /**\n    * @dev record a new milk delivery\n    * @param _quantity uint\n    * @param _qualityType enum\n   */\n  function recordNewDelivery(uint _quantity, MILK_QUALITY_TYPE _qualityType) public \n  isListedAsAvendor(msg.sender) \n  isApprovedForVending(msg.sender) \n  returns(bool)\n  {\n    require( _quantity != 0,\"New Milk Delivery Item: => Zero Quantity Not Accepted\");\n    milkDeliveryIds.increment();\n    uint currentDeliveryId = milkDeliveryIds.current();\n    MilkDeliveryItem memory newMilkDeliveryItem = MilkDeliveryItem(payable(msg.sender),currentDeliveryId, block.timestamp,_quantity,_qualityType);\n    milkDeliveries.push(newMilkDeliveryItem);\n    deliveryItemByVendor[msg.sender] = newMilkDeliveryItem;\n    vendorQuantityByDate[msg.sender][block.timestamp] = _quantity;\n    totalDeliveries = totalDeliveries.add(1);\n    totalQuantities = totalQuantities.add(_quantity);\n    emit NewMilkDeliveryRecorded(msg.sender,_quantity,_qualityType, block.timestamp);\n    return true;\n  }\n\n  /**\n    * @dev enables contract owner to delist a vendor\n    * @param _vendor address\n   */\n  function delistVendor(address _vendor) public onlyOwner isListedAsAvendor(_vendor) returns(bool){\n    isVendorListed[_vendor] = false;\n    emit MilkVendorDelisted(_vendor, msg.sender, block.timestamp);\n    return true;\n  }\n\n  /**\n    * @dev revoke a milk vendor's approval for milk vending\n    * @param _vendor address\n   */\n  function revokeVendorApproval(address _vendor) public onlyOwner isApprovedForVending(_vendor) returns(bool){\n      isApprovedForMilkVending[_vendor] = false;\n      //remove this vendor from the aproved vendors array and maintain the array order\n      for(uint i = 0; i < approvedVendors.length - 1; i++){\n        if(approvedVendors[i] == _vendor){\n          approvedVendors[i] = approvedVendors[i + 1];\n        }\n      }\n      approvedVendors.pop();\n      totalApprovedVendors = totalApprovedVendors.sub(1);\n      emit MilkVendorDisapproved(_vendor, msg.sender, block.timestamp,approvedVendors);\n      return true;\n  }\n\n  /**\n    * @dev gets the total quantity of milk by all vendors recorded on-chain\n   */\n  function totalQuantity() external virtual view returns(uint){\n    return totalQuantities;\n  }\n\n  /**\n    * @dev returns an array of all the vendors\n   */\n  function vendorList() public view returns(Vendor[] memory){\n    return vendors;\n  }\n}\n",
  "sourcePath": "D:/Dickens/Programming/Blockchain/Projects/Research Projects/MMUST/Dairy Farmers Milk Delivery/contracts/MilkDelivery.sol",
  "compiler": {
    "name": "solc",
    "version": "0.8.11+commit.d7f03943.Emscripten.clang"
  },
  "schemaVersion": "3.4.1",
  "updatedAt": "2022-01-02T13:00:08.771Z",
  "devdoc": {
    "details": "A smart contract that enables dairy farmers to record their daily produce",
    "kind": "dev",
    "methods": {
      "approveVendor(address)": {
        "details": "approves a vendor for milk delivery, only performed by the contract owner",
        "params": {
          "_vendor": "address"
        }
      },
      "delistVendor(address)": {
        "details": "enables contract owner to delist a vendor",
        "params": {
          "_vendor": "address"
        }
      },
      "getRoleAdmin(bytes32)": {
        "details": "Returns the admin role that controls `role`. See {grantRole} and {revokeRole}. To change a role's admin, use {_setRoleAdmin}."
      },
      "getVendorQuantityByDate(address,uint256)": {
        "details": "returns the total quantity of milk recorded by a vendor on a specific date",
        "params": {
          "_date": "uint",
          "_vendor": "address"
        }
      },
      "grantRole(bytes32,address)": {
        "details": "Grants `role` to `account`. If `account` had not been already granted `role`, emits a {RoleGranted} event. Requirements: - the caller must have ``role``'s admin role."
      },
      "hasRole(bytes32,address)": {
        "details": "Returns `true` if `account` has been granted `role`."
      },
      "listNewVendor(address,string,string,string)": {
        "details": "enables only the contract owner to add a new vendor",
        "params": {
          "_email": "string ",
          "_milkFactory": "string",
          "_name": "string",
          "_newVendor": "address "
        }
      },
      "owner()": {
        "details": "Returns the address of the current owner."
      },
      "recordNewDelivery(uint256,uint8)": {
        "details": "record a new milk delivery",
        "params": {
          "_qualityType": "enum",
          "_quantity": "uint"
        }
      },
      "renounceOwnership()": {
        "details": "Leaves the contract without owner. It will not be possible to call `onlyOwner` functions anymore. Can only be called by the current owner. NOTE: Renouncing ownership will leave the contract without an owner, thereby removing any functionality that is only available to the owner."
      },
      "renounceRole(bytes32,address)": {
        "details": "Revokes `role` from the calling account. Roles are often managed via {grantRole} and {revokeRole}: this function's purpose is to provide a mechanism for accounts to lose their privileges if they are compromised (such as when a trusted device is misplaced). If the calling account had been revoked `role`, emits a {RoleRevoked} event. Requirements: - the caller must be `account`."
      },
      "revokeRole(bytes32,address)": {
        "details": "Revokes `role` from `account`. If `account` had been granted `role`, emits a {RoleRevoked} event. Requirements: - the caller must have ``role``'s admin role."
      },
      "revokeVendorApproval(address)": {
        "details": "revoke a milk vendor's approval for milk vending",
        "params": {
          "_vendor": "address"
        }
      },
      "supportsInterface(bytes4)": {
        "details": "See {IERC165-supportsInterface}."
      },
      "totalQuantity()": {
        "details": "gets the total quantity of milk by all vendors recorded on-chain"
      },
      "transferOwnership(address)": {
        "details": "Transfers ownership of the contract to a new account (`newOwner`). Can only be called by the current owner."
      },
      "vendorList()": {
        "details": "returns an array of all the vendors"
      }
    },
    "title": "Milk Delivery Contract",
    "version": 1
  },
  "userdoc": {
    "kind": "user",
    "methods": {},
    "version": 1
  }
}